:020000040810E2
:100004000000000090B5A5B000AF78607B68C7F829
:10001400843011F0F1F9C7F8800011F013FAF86791
:10002400D7F88430002B04D0564AD7F884301360B4
:1000340002E0544B544A1A60524B1B68D3F8003107
:10004400D7F88010514898474E4B1B68D3F80031BD
:10005400F96F4F4898474B4B1B68D3F80031D7F8DA
:1000640084104C489847474B1B689B689847034645
:100074003B660023C7F88C300023C7F88830464A13
:100084003EA4D4E90034C2E90034434BD3E900016F
:10009400424A4FF0000300F095FB03460C46C7E9C3
:1000A4001C34D7E91C34234302D0D7E91C3403E0C1
:1000B4004FF001034FF00004C7E91C34314B1B68B7
:1000C400D3F80011D7E91C23354888472D4B1B680A
:1000D400D3F80011304BD3E900341A462346314893
:1000E4008847284B1B68D3F824316420984700F0D4
:1000F400BFFD0346002B0CD0224B1B68D3F8003104
:10010400294898471F4B1B68D3F8FC3041F28830CC
:1001140098470FF031FF0346002B0CD0194B1B6896
:10012400D3F8003121489847164B1B68D3F8FC30AC
:1001340041F28830984700F079FE0346002B06DD33
:10014400104B1B68D3F800313D21194898471948D2
:1001540000F086FE0346002B30DA0A4B1B68D3F806
:10016400003115489847074B1B68D3F8FC3041F21F
:100174008830984728E000BFAFF30080002D31019C
:1001840000000000E42A002000040008E4901108A4
:1001940008911108289111089024002040420F0072
:1001A400489111087091110890911108BC9111089F
:1001B400E89111085C1900201C9211087F4B1B6800
:1001C400D3F800317E4898477C4B1B68D3F84C31F8
:1001D400984702467B4B1A607A4B1B68002B0BD165
:1001E400764B1B68D3F8003177489847734B1B68EC
:1001F400D3F8FC301F20984711F00AFF6F4B1B689F
:10020400D3F8D83098476D4B1B68D3F8A43007F166
:100214006002012110469847D7F88C305A1CC7F861
:100224008C2018464FF00001D7E91C2300F0CAFACD
:100234001C461346234307D1002011F087FFD7F84B
:1002440088300133C7F88830604B1A68D7F88C308F
:10025400B3FBF2F102FB01F29B1A002B08D1574BBE
:100264001B68D3F824315A4A126892B21046984750
:10027400D7F888300A2B0DD0564BD3E900344DA261
:10028400D2E90012A24208BF99422CD2D7F8883092
:10029400012B28D10223A7F850304F4B07F140041B
:1002A4000FCB84E80F0007F14003FB61434B1B684D
:1002B400D3F8F03007F10C02104698470346002BA0
:1002C40011D17B697A69128842F0010292B21A80D4
:1002D4003A4B1B68D3F834317A6910469847374B48
:1002E4001B689B699847354B1B681B6B07F16400BF
:1002F4000022002198477B6E082B7FF47FAFBB6EF2
:10030400012B03D0BB6E022B7FF478AF324B07F185
:1003140030040FCB84E80F000FF066FF00F04EFDB1
:10032400BB6E012B1FD107F13003FB61234B1B680C
:10033400D3F8F03007F10C02104698470346002B1F
:1003440011D17B697A69128822F0010292B21A8073
:100354001A4B1B68D3F834317A6910469847174B07
:100364001B689B699847002000F07AFD0346002B28
:1003740006DB124B1B68D3F800311848984705E098
:100384000E4B1B68D3F80031154898470B4B1B687C
:10039400D3F8003113489847084B1B685C69074B36
:1003A4001B681B69984703461846A04726E700BF09
:1003B400AFF3008000CA9A3B00000000E42A00204A
:1003C40048921108E82A00207492110804000020C1
:1003D400000000209024002010931108909211082E
:1003E400BC921108F492110810B5054C237833B966
:1003F400044B13B10448AFF300800123237010BDF4
:10040400C82A002000000000588C11080C4B43B18E
:100414000C480D4910B5AFF300800C48036823B9AC
:1004240010BD0A48036833B97047094B002BF7D055
:10043400BDE810401847064B002BF5D0184700BF05
:1004440000000000588C1108CC2A0020C42A002087
:100454000000000081F0004102E000BF83F000438F
:1004640030B54FEA41044FEA430594EA050F08BF4B
:1004740090EA020F1FBF54EA000C55EA020C7FEA0F
:10048400645C7FEA655C00F0E2804FEA5454D4EB8C
:100494005555B8BF6D420CDD2C4480EA020281EA56
:1004A400030382EA000083EA010180EA020281EA8E
:1004B4000303362D88BF30BD11F0004F4FEA0131E0
:1004C4004FF4801C4CEA113102D0404261EB4101EF
:1004D40013F0004F4FEA03334CEA133302D0524275
:1004E40063EB430394EA050F00F0A780A4F1010431
:1004F400D5F1200E0DDB02FA0EFC22FA05F280186B
:1005040041F1000103FA0EF2801843FA05F3594150
:100514000EE0A5F120050EF1200E012A03FA0EFCCF
:1005240028BF4CF0020C43FA05F3C01851EBE371F9
:1005340001F0004507D54FF0000EDCF1000C7EEB16
:1005440000006EEB0101B1F5801F1BD3B1F5001F54
:100554000CD349085FEA30004FEA3C0C04F1010473
:100564004FEA445212F5800F80F09A80BCF1004F9C
:1005740008BF5FEA500C50F1000041EB045141EA1E
:10058400050130BD5FEA4C0C404141EB010111F41F
:10059400801FA4F10104E9D191F0000F04BF0146CA
:1005A4000020B1FA81F308BF2033A3F10B03B3F1A8
:1005B40020020CDA0C3208DD02F1140CC2F10C0238
:1005C40001FA0CF021FA02F10CE002F11402D8BF96
:1005D400C2F1200C01FA02F120FA0CFCDCBF41EA62
:1005E4000C019040E41AA2BF01EB0451294330BD31
:1005F4006FEA04041F3C1CDA0C340EDC04F114040E
:10060400C4F1200220FA04F001FA02F340EA0300E4
:1006140021FA04F345EA030130BDC4F10C04C4F12A
:10062400200220FA02F001FA04F340EA030029460A
:1006340030BD21FA04F0294630BD94F0000F83F454
:10064400801306BF81F480110134013D4EE77FEA37
:10065400645C18BF7FEA655C29D094EA050F08BF83
:1006640090EA020F05D054EA000C04BF1946104664
:1006740030BD91EA030F1EBF0021002030BD5FEAA8
:10068400545C05D14000494128BF41F0004130BDD0
:1006940014F580043CBF01F5801130BD01F0004524
:1006A40045F0FE4141F470014FF0000030BD7FEA97
:1006B400645C1ABF194610467FEA655C1CBF0B4692
:1006C400024650EA013406BF52EA033591EA030FA9
:1006D40041F4002130BD00BF90F0000F04BF0021A1
:1006E400704730B54FF4806404F132044FF00005D4
:1006F4004FF0000150E700BF90F0000F04BF00214D
:10070400704730B54FF4806404F1320410F00045B2
:1007140048BF40424FF000013EE700BF42004FEAAD
:10072400E2014FEA31014FEA02701FBF12F07F432A
:1007340093F07F4F81F06051704792F0000F14BF27
:1007440093F07F4F704730B54FF4607401F000456B
:1007540021F0004120E700BF50EA010208BF7047C2
:1007640030B54FF000050AE050EA010208BF7047B7
:1007740030B511F0004502D5404261EB41014FF420
:10078400806404F132045FEA915C3FF4DCAE4FF024
:1007940003025FEADC0C18BF03325FEADC0C18BF0B
:1007A400033202EBDC02C2F1200300FA03FC20FA5C
:1007B40002F001FA03FE40EA0E0021FA02F11444A9
:1007C400C1E600BF53B94AB9002908BF00281CBFBD
:1007D4004FF0FF314FF0FF3000F0AEB9ADF1080C2F
:1007E4006DE904CE00F03AF8DDF804E0DDE9022317
:1007F40004B0704741EC170BB5EEC07BF1EE10FA74
:1008040001D400F00BB808B581F0004100F006F8FF
:10081400404261EB410108BD000000009FED0B6BFD
:1008240041EC170B9FED0B5B27EE066BBCEEC66B22
:100834000020B8EE464BA4EE457BBCEEC77B16EE1B
:10084400101A17EE103A1843704700BF000000005A
:100854000000F03D000000000000F0412DE9F047E9
:100864008C460D460446089E002B51D18A421746F9
:100874006DD9B2FA82FEBEF1000F0BD0CEF1200C7E
:1008840001FA0EF520FA0CFC02FA0EF74CEA050CFC
:1008940000FA0EF44FEA174A250CBCFBFAF81FFACB
:1008A40087F90AFB18CC45EA0C4508FB09F3AB426F
:1008B4000AD9ED1908F1FF3280F02381AB4240F2EE
:1008C4002081A8F102083D44ED1AA4B2B5FBFAF068
:1008D4000AFB105544EA054400FB09F9A14509D96E
:1008E400E41900F1FF3380F00A81A14540F2078149
:1008F40002383C44A4EB090440EA08400021002EDD
:1009040061D024FA0EF4002334607360BDE8F087EC
:100914008B4207D9002E54D0002186E821000846D6
:10092400BDE8F087B3FA83F1002940F08E80AB4232
:1009340002D3824200F2FA80841A65EB0305012097
:10094400AC46002E3FD086E81010BDE8F08712B9FF
:100954000127B7FBF2F7B7FA87FEBEF1000F34D1D7
:10096400EB1B3A0C1FFA87FC0121B3FBF2F8250CB0
:1009740002FB183345EA03450CFB08F3AB4207D9E5
:10098400ED1908F1FF3002D2AB4200F2D18080466B
:10099400ED1AA3B2B5FBF2F002FB105543EA05448D
:1009A4000CFB00FCA44507D9E41900F1FF3302D283
:1009B400A44500F2B8801846A4EB0C0440EA0840B1
:1009C4009DE731463046BDE8F087CEF1200405FAB4
:1009D4000EF307FA0EF720FA04F83A0C25FA04F499
:1009E40048EA0308B4FBF2F14FEA184502FB11444C
:1009F4001FFA87FC45EA044501FB0CF3AB4200FAFD
:100A04000EF409D9ED1901F1FF3080F08A80AB4270
:100A140040F2878002393D44EB1A1FFA88F5B3FB94
:100A2400F2F002FB103345EA034500FB0CF3AB4242
:100A340007D9ED1900F1FF386FD2AB426DD90238F6
:100A44003D44EB1A40EA01418FE7C1F1200722FA45
:100A540007F88B4005FA01F448EA030320FA07FE7D
:100A64004FEA134CFD404EEA040EB5FBFCF94FEA85
:100A74001E440CFB19551FFA83F844EA054509FB8B
:100A840008F4AC4202FA01F200FA01FA08D9ED18AE
:100A940009F1FF3043D2AC4241D9A9F102091D4406
:100AA4002D1B1FFA8EFEB5FBFCF00CFB10554EEA15
:100AB400054400FB08F8A04507D9E41800F1FF3508
:100AC40029D2A04527D902381C4440EA0940A4EBA6
:100AD4000804A0FB02894C45C6464D4615D312D0E6
:100AE40056B1BAEB0E0364EB050404FA07F7CB40E6
:100AF4001F43CC40376074600021BDE8F08718467E
:100B0400F8E69046E0E6C245EAD2B8EB020E69EB9D
:100B140003050138E4E72846D7E7404691E78146D4
:100B2400BEE7014678E702383C4445E7084608E753
:100B3400A8F102083D442BE7704700BF844641EA10
:100B4400000313F003036DD1403A41D351F8043B41
:100B540040F8043B51F8043B40F8043B51F8043B93
:100B640040F8043B51F8043B40F8043B51F8043B83
:100B740040F8043B51F8043B40F8043B51F8043B73
:100B840040F8043B51F8043B40F8043B51F8043B63
:100B940040F8043B51F8043B40F8043B51F8043B53
:100BA40040F8043B51F8043B40F8043B51F8043B43
:100BB40040F8043B51F8043B40F8043B51F8043B33
:100BC40040F8043B51F8043B40F8043B403ABDD2A2
:100BD400303211D351F8043B40F8043B51F8043B44
:100BE40040F8043B51F8043B40F8043B51F8043B03
:100BF40040F8043B103AEDD20C3205D351F8043BD3
:100C040040F8043B043AF9D2043208D0D2071CBF9E
:100C140011F8013B00F8013B01D30B8803806046C7
:100C2400704700BF082A13D38B078DD010F003033D
:100C34008AD0C3F10403D21ADB071CBF11F8013BAD
:100C440000F8013B80D331F8023B20F8023B7BE7FC
:100C5400043AD9D3013A11F8013B00F8013BF9D227
:100C64000B7803704B7843708B78837060467047C1
:100C740080B586B000AF00237B6100233B61002375
:100C84007B6000233B607B68002B0AD0454B1B68CC
:100C9400D3F810313A1D444949F640409847386129
:100CA40001E001237B603B68002B0AD03D4B1B68AD
:100CB400D3F810313A463D4947F2305098473861ED
:100CC40001E001233B607B68002B02D03B68002BD2
:100CD40063D1344B1B68D3F80031354898473B69DE
:100CE400002B57D00023FB7321E02E4B1B685B6E57
:100CF400FA7B114638699847B860BB68002B13D05B
:100D0400BB685B681A462B4B9A420DD3BB685B6881
:100D14001946284A284B1344994205D2214B1B6893
:100D24001B6EB96838699847FB7B0133FB73FA7B08
:100D34003B699B689A42D8D300237B6000233B60C5
:100D44007B68002B0AD0174B1B68D3F810313A1D6F
:100D5400154949F640409847386101E001237B601A
:100D64003B68002B0AD00F4B1B68D3F810313A466E
:100D74000E4947F230509847386101E001233B6047
:100D84007B68002B02D03B68002B06D14FF0FF3369
:100D94007B6102E04FF0FF337B617B6918461837B3
:100DA400BD4680BDE42A0020E82A0020E82A00206D
:100DB400209311080000002000CC010090B587B0FA
:100DC40000AF0023FB7520E0154B3C1D0FCB84E8DE
:100DD4000F00FB7D3033DBB2BB74124B1B68D3F8BE
:100DE40030313A1D1046984702460F4B1A600E4B9D
:100DF4001B68002B06D00B4B1B685B690A4A126800
:100E040010469847FB7D0133FB75FB7D052B02D80B
:100E1400FB7D002BD8D000BF1C37BD4690BD00BF62
:100E24004C931108E42A0020EC2A002080B582B0FB
:100E340000AF00237B60084B1B68D3F844313D218D
:100E4400064898470346002B01D101237B607B6849
:100E540018460837BD4680BDE42A0020B496110820
:100E640080B586B000AF786000237B61214A07F12A
:100E7400080307CA03C31A701F4B1B68D3F8303129
:100E840007F108021046984702461C4B1A601B4B98
:100E94001B68002B25D07B68002B16D004E0164B72
:100EA4001B685B6A01209847134B1B689B6A134AB3
:100EB40012687968104698470346002BEFDB13E06D
:100EC4000D4B1B685B6A012098470B4B1B689B6AA0
:100ED4000A4A12682021104698470346002BEFDB8C
:100EE40002E04FF0FF337B617B6918461837BD463B
:100EF40080BD00BF5C931108E42A0020F02A002082
:100F040080B483B000AF03463960FB71FB799F2B3B
:100F140006D13B681B78002B01D0054B01E000BFD4
:100F2400002318460C37BD465DF8047B704700BFAC
:100F34003000090680B487B000AFF8600B467A60D1
:100F44007B817B8942F60802934200F0EE8342F6ED
:100F54000802934200F3878141F20262934200F057
:100F64007B8341F20262934200F3C38041F2044264
:100F7400934200F03B8341F2044293425EDCB3F5BA
:100F8400945F00F01883B3F5945F28DC41F2060205
:100F9400934200F0048341F2060293420FDC41F2D3
:100FA4000102934200F0F58241F20502934200F0FF
:100FB400F382B3F5805F00F0E98200F088BC41F26F
:100FC4001802934200F0F182B3F5905F00F0F082D2
:100FD40041F21602934200F0E58200F078BC41F23F
:100FE4008422934200F0F38241F2842293420ADC89
:100FF40041F28222934200F0E48241F2822293423F
:1010040000F3E282DAE241F20142934200F0E58227
:1010140041F20142934205DCB3F5A05F00F0DA82AD
:1010240000F055BC41F20242934200F0D98241F2F1
:101034000342934200F0D78200F049BC41F20D42D2
:10104400934200F0EE8241F20D42934229DC41F2D8
:101054000842934200F0D68241F2084293420ADCED
:1010640041F20642934200F0C78241F206429342A3
:1010740000F3C582BDE241F20A42934200F0C88205
:1010840041F20A429342C0F2C08241F20B429342BF
:1010940000F0C18241F20C42934200F0BF8200F0A2
:1010A40016BC41F21142934200F0C78241F2114250
:1010B40093420ADC41F20F42934200F0B88241F2BB
:1010C4000F42934200F3B682AEE241F213429342DE
:1010D40000F0B98241F213429342C0F2B182B3F5F7
:1010E400B05F00F0B38241F20162934200F0B1823A
:1010F400EDE341F21362934200F0E18241F21362A4
:10110400934250DC41F20A62934200F0BD8241F204
:101114000A6293421EDC41F20662934200F0A88206
:1011240041F2066293420ADC41F20462934200F007
:10113400998241F20462934200F397828FE241F272
:101144000862934200F09A8241F20862934200F3EB
:10115400988290E241F20E62934200F0A18241F241
:101164000E6293420ADC41F20C62934200F09282D6
:1011740041F20C62934200F3908288E241F21062E1
:10118400934200F0938241F210629342C0F28B8248
:1011940041F21162934200F08C8241F21262934256
:1011A40000F08A8293E342F20802934200F0A282A2
:1011B40042F20802934229DCB3F5D05F00F08B823F
:1011C400B3F5D05F0EDC41F60102934200F07D825C
:1011D40041F60202934200F07B82B3F5C05F00F057
:1011E400718274E341F60222934200F07A8241F65E
:1011F40002229342C0F27282B3F5005F00F074825F
:1012040042F20302934200F0728260E342F22F0240
:10121400934200F07B8242F22F0293420FDC42F2AF
:101224002302934200F06C8242F22E02934200F0B9
:101234006A8242F21502934200F05F8247E342F26F
:101244003102934200F0688242F231029342C0F2CA
:101254006082B3F5205F00F0628242F6030293429B
:1012640000F0608233E3B3F5405F00F0C782B3F56A
:10127400405F00F3BF8042F63D02934200F0888253
:1012840042F63D02934255DC42F63402934200F0AA
:10129400648242F63402934223DC42F630029342E3
:1012A40000F04F8242F6300293420FDC42F62302F2
:1012B400934200F0408242F62F02934200F03E82B5
:1012C40042F61502934200F0338200E342F6320202
:1012D400934200F03C8242F63202934200F33A8297
:1012E40032E242F63802934200F0438242F6380278
:1012F40093420ADC42F63602934200F0348242F60C
:101304003602934200F332822AE242F63A029342D0
:1013140000F0358242F63A029342C0F22D8242F640
:101324003B02934200F02E8242F63C02934200F0CC
:101334002C82CCE242F66702934200F0448242F6E9
:10134400670293422DDC42F66202934200F02C8243
:1013540042F6620293420FDC42F66002934200F0CE
:101364001D8242F66002934200F31B8242F63E0263
:10137400934200F01082AAE242F66402934200F023
:10138400198242F664029342C0F2118242F6650267
:10139400934200F0128242F66602934200F01082F9
:1013A40095E242F66B02934200F0198242F66B0218
:1013B40093420ADC42F66902934200F00A8242F642
:1013C4006902934200F3088200E242F66D029342FE
:1013D40000F00B8242F66D029342C0F2038242F6A1
:1013E4006E02934200F0048242F66F02934200F0D0
:1013F40002826CE244F26102934200F0328244F2CF
:101404006102934262DC43F60302934200F00E82CF
:1014140043F60302934227DC43F22302934200F093
:10142400F98143F2230293420FDC43F20802934210
:1014340000F0EA8143F21502934200F0E88143F29E
:101444000302934200F0DD8141E243F23002934211
:1014540000F0E681B3F5605F00F0E58143F22F020E
:10146400934200F0DA8132E243F65E02934200F0E6
:10147400E98143F65E0293420FDC43F61502934280
:1014840000F0DA8143F62302934200F0D88143F658
:101494000802934200F0CD8119E244F2090293421A
:1014A40000F0D68144F20902934204DCB3F5804F84
:1014B40000F0CB810BE244F20A02934200F0CB81AC
:1014C40044F24002934200F0C98100E244F2740203
:1014D400934200F0E18144F27402934228DC44F226
:1014E4006502934200F0C98144F2650293420ADC2A
:1014F40044F26302934200F0BA8144F263029342DD
:1015040000F3B881B0E144F26702934200F0BB817A
:1015140044F267029342C0F2B38144F268029342F8
:1015240000F0B48144F26A02934200F0B281CEE149
:1015340044F29402934200F0BB8144F29402934239
:101544000FDC44F29202934200F0AC8144F2920226
:10155400934200F3AA8144F29102934200F09F81E6
:10156400B5E144F29602934200F0A88144F2960257
:101574009342C0F2A08144F29702934200F0A18109
:1015840044F29802934200F09F81A0E100237B6122
:10159400A2E101237B619FE102237B619CE10323A0
:1015A4007B6199E104237B6196E105237B6193E1EF
:1015B40006237B6190E107237B618DE108237B6136
:1015C4008AE109237B6187E10A237B6184E10B23A0
:1015D4007B6181E10C237B617EE10D237B617BE1F7
:1015E4000E237B6178E10F237B6175E110237B611E
:1015F40072E111237B616FE112237B616CE11323A0
:101604007B6169E114237B6166E115237B6163E1FE
:1016140016237B6160E117237B615DE118237B6105
:101624005AE119237B6157E11A237B6154E11B239F
:101634007B6151E11C237B614EE11D237B614BE106
:101644001E237B6148E11F237B6145E120237B61ED
:1016540042E121237B613FE122237B613CE123239F
:101664007B6139E124237B6136E125237B6133E10E
:1016740026237B6130E127237B612DE128237B61D5
:101684002AE129237B6127E12A237B6124E12B239F
:101694007B6121E12C237B611EE12D237B611BE116
:1016A4002E237B6118E12F237B6115E130237B61BD
:1016B40012E131237B610FE132237B610CE133239F
:1016C4007B6109E134237B6106E135237B6103E11E
:1016D40036237B6100E137237B61FDE038237B61A6
:1016E400FAE039237B61F7E03A237B61F4E03B23A2
:1016F4007B61F1E03C237B61EEE03D237B61EBE029
:101704003E237B61E8E03F237B61E5E040237B618E
:10171400E2E041237B61DFE042237B61DCE04323A1
:101724007B61D9E044237B61D6E045237B61D3E030
:1017340046237B61D0E047237B61CDE048237B6176
:10174400CAE049237B61C7E04A237B61C4E04B23A1
:101754007B61C1E04C237B61BEE04D237B61BBE038
:101764004E237B61B8E04F237B61B5E050237B615E
:10177400B2E051237B61AFE052237B61ACE05323A1
:101784007B61A9E054237B61A6E055237B61A3E040
:1017940056237B61A0E057237B619DE058237B6146
:1017A4009AE059237B6197E05A237B6194E05B23A1
:1017B4007B6191E05C237B618EE05D237B618BE048
:1017C4005E237B6188E05F237B6185E060237B612E
:1017D40082E061237B617FE062237B617CE06323A1
:1017E4007B6179E064237B6176E065237B6173E050
:1017F40066237B6170E067237B616DE068237B6116
:101804006AE069237B6167E06A237B6164E06B23A0
:101814007B6161E06C237B615EE06D237B615BE057
:101824006E237B6158E06F237B6155E070237B61FD
:1018340052E071237B614FE072237B614CE07323A0
:101844007B6149E074237B6146E075237B6143E05F
:1018540076237B6140E077237B613DE078237B61E5
:101864003AE079237B6137E07A237B6134E07B23A0
:101874007B6131E07C237B612EE07D237B612BE067
:101884007E237B6128E07F237B6125E080237B61CD
:1018940022E081237B611FE082237B611CE08323A0
:1018A4007B6119E084237B6116E085237B6113E06F
:1018B40086237B6110E087237B610DE088237B61B5
:1018C4000AE089237B6107E08A237B6104E07B686B
:1018D400094A1A60002309E07B6800221A607A69C9
:1018E40013465B0013449B00044A134418461C37F8
:1018F400BD465DF8047B704700000206189E11087F
:1019040080B483B000AF7860044B1B687A681A60B7
:1019140000BF0C37BD465DF8047B7047681B002090
:1019240080B400AF054B1B681B7903F00203DBB2E4
:101934001846BD465DF8047B704700BF681B002055
:1019440080B400AF034B1B681846BD465DF8047BAA
:10195400704700BF681B002080B483B000AF78607C
:10196400054B1B681B687A681A6000BF0C37BD46BC
:101974005DF8047B704700BF6C1B002080B400AF8F
:10198400054B1B681B7903F00203DBB21846BD4606
:101994005DF8047B704700BF6C1B002080B400AF6F
:1019A400034B1B681B681846BD465DF8047B7047F3
:1019B4006C1B002080B483B000AF7860054B1B68BB
:1019C4001B687A681A6000BF0C37BD465DF8047B5B
:1019D400704700BF701B002080B400AF054B1B682C
:1019E4001B7903F00203DBB21846BD465DF8047BA5
:1019F400704700BF701B002080B400AF034B1B680E
:101A04001B681846BD465DF8047B7047701B0020B8
:101A140080B483B000AF7860054B1B681B687A689C
:101A24001A6000BF0C37BD465DF8047B704700BFE9
:101A3400741B002080B400AF054B1B681B7903F0B6
:101A44000203DBB21846BD465DF8047B704700BF55
:101A5400741B002080B400AF034B1B681B6818463E
:101A6400BD465DF8047B7047741B002080B483B0CE
:101A740000AF7860054B1B681B687A681A6000BF6A
:101A84000C37BD465DF8047B704700BF781B00200F
:101A940080B400AF054B1B681B7903F00203DBB273
:101AA4001846BD465DF8047B704700BF781B0020D4
:101AB40080B400AF034B1B681B681846BD465DF835
:101AC400047B7047781B002080B483B000AF78603B
:101AD400054B1B681B687A681A6000BF0C37BD464B
:101AE4005DF8047B704700BF7C1B002080B483B08A
:101AF40000AF7860054B1B681B687A681A6000BFEA
:101B04000C37BD465DF8047B704700BF801B002086
:101B140080B483B000AF7860054B1B681B687A689B
:101B24001A6000BF0C37BD465DF8047B704700BFE8
:101B3400841B002080B483B000AF7860054B1B6821
:101B44001B687A681A6000BF0C37BD465DF8047BD9
:101B5400704700BF881B002080B483B000AF78605A
:101B6400054B1B681B687A681A6000BF0C37BD46BA
:101B74005DF8047B704700BF8C1B002080B483B0E9
:101B840000AF7860054B1B681B687A681A6000BF59
:101B94000C37BD465DF8047B704700BF901B0020E6
:101BA40080B483B000AF7860054B1B681B687A680B
:101BB4001A6000BF0C37BD465DF8047B704700BF58
:101BC400941B002080B483B000AF7860054B1B6881
:101BD4001B687A681A6000BF0C37BD465DF8047B49
:101BE400704700BF981B002080B483B000AF034649
:101BF400FB80054B1B681B68FA881A8000BF0C37F2
:101C0400BD465DF8047B70479C1B002080B483B004
:101C140000AF0346FB80054B1B681B68FA881A80DB
:101C240000BF0C37BD465DF8047B7047A01B002045
:101C340080B483B000AF0346FB80054B1B681B6870
:101C4400FA881A8000BF0C37BD465DF8047B7047E4
:101C5400A41B002080B483B000AF0346FB80054B77
:101C64001B681B68FA881A8000BF0C37BD465DF8F4
:101C7400047B7047A81B002080B483B000AF0346E8
:101C8400FB80054B1B68FA881A8000BF0C37BD46E1
:101C94005DF8047B704700BFAC1B002080B400AF2C
:101CA400034B1B681846BD465DF8047B704700BFB4
:101CB400AC1B002080B483B000AF0346FB80054B0F
:101CC4001B68FA881A8000BF0C37BD465DF8047B98
:101CD400704700BFB01B002080B400AF034B1B68EB
:101CE4001846BD465DF8047B704700BFB01B00205A
:101CF40080B483B000AF0346FB80054B1B68FA88B1
:101D04001A8000BF0C37BD465DF8047B704700BFE6
:101D1400B41B002080B400AF034B1B681846BD46BB
:101D24005DF8047B704700BFB41B002080B483B00F
:101D340000AF0346FB80054B1B68FA881A8000BF7E
:101D44000C37BD465DF8047B704700BFB81B00200C
:101D540080B400AF034B1B681846BD465DF8047B96
:101D6400704700BFB81B002080B483B000AF0346A7
:101D7400FB80054B1B68FA881A8000BF0C37BD46F0
:101D84005DF8047B704700BFBC1B002080B400AF2B
:101D9400034B1B681846BD465DF8047B704700BFC3
:101DA400BC1B002080B483B000AF0346FB80054B0E
:101DB4001B68FA881A8000BF0C37BD465DF8047BA7
:101DC400704700BFC01B002080B400AF054B1B68E8
:101DD4009B7803F00203DBB21846BD465DF8047B32
:101DE400704700BFC01B002080B400AF034B1B68CA
:101DF4001846BD465DF8047B704700BFC01B002039
:101E040080B483B000AF0346FB80054B1B68FA889F
:101E14001A8000BF0C37BD465DF8047B704700BFD5
:101E2400C41B002080B400AF054B1B689B7803F0F3
:101E34000203DBB21846BD465DF8047B704700BF61
:101E4400C41B002080B400AF034B1B681846BD467A
:101E54005DF8047B704700BFC41B002080B483B0CE
:101E640000AF0346FB80054B1B68FA881A8000BF4D
:101E74000C37BD465DF8047B704700BFC81B0020CB
:101E840080B400AF054B1B689B7803F00203DBB200
:101E94001846BD465DF8047B704700BFC81B002090
:101EA40080B400AF034B1B681846BD465DF8047B45
:101EB400704700BFC81B002080B483B000AF034646
:101EC400FB80054B1B68FA881A8000BF0C37BD469F
:101ED4005DF8047B704700BFCC1B002080B400AFCA
:101EE400054B1B689B7803F00203DBB21846BD4622
:101EF4005DF8047B704700BFCC1B002080B400AFAA
:101F0400034B1B681846BD465DF8047B704700BF51
:101F1400CC1B002080B483B000AF0346FB80054B8C
:101F24001B68FA881A8000BF0C37BD465DF8047B35
:101F3400704700BFD01B002080B400AF054B1B6866
:101F44009B7803F00203DBB21846BD465DF8047BC0
:101F5400704700BFD01B002080B400AF034B1B6848
:101F64001846BD465DF8047B704700BFD01B0020B7
:101F740080B483B000AF0346FB80054B1B68FA882E
:101F84001A8000BF0C37BD465DF8047B704700BF64
:101F9400D41B002080B400AF034B1B681846BD4619
:101FA4005DF8047B704700BFD41B002080B483B06D
:101FB40000AF0346FB80054B1B68FA881A8000BFFC
:101FC4000C37BD465DF8047B704700BFD81B00206A
:101FD40080B400AF034B1B681846BD465DF8047B14
:101FE400704700BFD81B002080B483B000AF034605
:101FF400FB80054B1B68FA881A8000BF0C37BD466E
:102004005DF8047B704700BFDC1B002080B400AF88
:10201400034B1B681846BD465DF8047B704700BF40
:10202400DC1B002080B483B000AF0346FB80054B6B
:102034001B68FA881A8000BF0C37BD465DF8047B24
:10204400704700BFE01B002080B400AF034B1B6847
:102054001846BD465DF8047B704700BFE01B0020B6
:1020640080B483B000AF0346FB80054B1B68FA883D
:102074001A8000BF0C37BD465DF8047B704700BF73
:10208400E41B002080B400AF034B1B681846BD4618
:102094005DF8047B704700BFE41B002080B483B06C
:1020A40000AF0346FB80054B1B68FA881A8000BF0B
:1020B4000C37BD465DF8047B704700BFE81B002069
:1020C40080B400AF034B1B681846BD465DF8047B23
:1020D400704700BFE81B002080B483B000AF87EDD9
:1020E400010A054B1B687A681A6000BF0C37BD46AD
:1020F4005DF8047B704700BFEC1B002080B400AF88
:10210400054B1B681B7903F00203DBB21846BD467E
:102114005DF8047B704700BFEC1B002080B400AF67
:10212400034B1B681846BD465DF8047B704700BF2F
:10213400EC1B002080B483B000AF87ED010A054B8F
:102144001B687A681A6000BF0C37BD465DF8047BD3
:10215400704700BFF01B002080B400AF054B1B6824
:102164001B7903F00203DBB21846BD465DF8047B1D
:10217400704700BFF01B002080B400AF034B1B6806
:102184001846BD465DF8047B704700BFF01B002075
:1021940080B483B000AF0346FB80054B1B68FA880C
:1021A4001A8000BF0C37BD465DF8047B704700BF42
:1021B400F41B002080B400AF054B1B689B7803F030
:1021C4000203DBB21846BD465DF8047B704700BFCE
:1021D400F41B002080B400AF034B1B681846BD46B7
:1021E4005DF8047B704700BFF41B002080B483B00B
:1021F40000AF0346FB80054B1B68FA881A8000BFBA
:102204000C37BD465DF8047B704700BFF81B002007
:1022140080B400AF054B1B689B7803F00203DBB26C
:102224001846BD465DF8047B704700BFF81B0020CC
:1022340080B400AF034B1B681846BD465DF8047BB1
:10224400704700BFF81B002080B483B000AF034682
:10225400FB71054B1B68FA791A7000BF0C37BD4639
:102264005DF8047B704700BFFC1B002080B400AF06
:10227400054B1B685B7803F00203DBB21846BD46CE
:102284005DF8047B704700BFFC1B002080B400AFE6
:10229400034B1B681846BD465DF8047B704700BFBE
:1022A400FC1B002080B483B000AF7860044B1B6833
:1022B4007A681A6000BF0C37BD465DF8047B70472E
:1022C400001C002080B400AF054B1B681B7903F091
:1022D4000203DBB21846BD465DF8047B704700BFBD
:1022E400001C002080B400AF034B1B681846BD4699
:1022F4005DF8047B704700BF001C002080B483B0ED
:1023040000AF7860044B1B687A681A6000BF0C3712
:10231400BD465DF8047B7047041C002080B400AF08
:10232400054B1B681B7903F00203DBB21846BD465C
:102334005DF8047B704700BF041C002080B400AF2C
:10234400034B1B681846BD465DF8047B704700BF0D
:10235400041C002080B483B000AF0346FB80054B0F
:102364001B68FA881A8000BF0C37BD465DF8047BF1
:10237400704700BF081C002080B400AF034B1B68EB
:102384001846BD465DF8047B704700BF081C00205A
:1023940080B483B000AF0346FB80054B1B68FA880A
:1023A4001A8000BF0C37BD465DF8047B704700BF40
:1023B4000C1C002080B400AF054B1B689B7803F015
:1023C4000203DBB21846BD465DF8047B704700BFCC
:1023D4000C1C002080B400AF034B1B681846BD469C
:1023E4005DF8047B704700BF0C1C002080B483B0F0
:1023F40000AF0346FB80054B1B68FA881A8000BFB8
:102404000C37BD465DF8047B704700BF101C0020EC
:1024140080B400AF054B1B689B7803F00203DBB26A
:102424001846BD465DF8047B704700BF101C0020B1
:1024340080B400AF034B1B681846BD465DF8047BAF
:10244400704700BF101C002080B483B000AF034667
:10245400FB80054B1B68FA881A8000BF0C37BD4609
:102464005DF8047B704700BF141C002080B400AFEB
:10247400054B1B689B7803F00203DBB21846BD468C
:102484005DF8047B704700BF141C002080B400AFCB
:10249400034B1B681846BD465DF8047B704700BFBC
:1024A400141C002080B483B000AF0346FB80054BAE
:1024B4001B68FA881A8000BF0C37BD465DF8047BA0
:1024C400704700BF181C002080B400AF054B1B6888
:1024D4009B7803F00203DBB21846BD465DF8047B2B
:1024E400704700BF181C002080B400AF034B1B686A
:1024F4001846BD465DF8047B704700BF181C0020D9
:1025040080B483B000AF0346FB80054B1B68FA8898
:102514001A8000BF0C37BD465DF8047B704700BFCE
:102524001C1C002080B400AF054B1B689B7803F093
:102534000203DBB21846BD465DF8047B704700BF5A
:102544001C1C002080B400AF034B1B681846BD461A
:102554005DF8047B704700BF1C1C002080B483B06E
:1025640000AF0346FB80054B1B68FA881A8000BF46
:102574000C37BD465DF8047B704700BF201C00206B
:1025840080B400AF034B1B681846BD465DF8047B5E
:10259400704700BF201C002080B483B000AF034606
:1025A400FB80054B1B68FA881A8000BF0C37BD46B8
:1025B4005DF8047B704700BF241C002080B400AF8A
:1025C400034B1B681846BD465DF8047B704700BF8B
:1025D400241C002090B482B000AFC7E90001054B71
:1025E4001A68D7E90034C2E9003400BF0837BD4691
:1025F40090BC7047281C002080B400AF054B1B68BA
:102604001B7A03F00203DBB21846BD465DF8047B77
:10261400704700BF281C002080B400AF034B1B6828
:102624001846BD465DF8047B704700BF281C002097
:1026340080B483B000AF87ED010A054B1B687A684C
:102644001A6000BF0C37BD465DF8047B704700BFBD
:102654002C1C002080B400AF054B1B681B7903F0D1
:102664000203DBB21846BD465DF8047B704700BF29
:102674002C1C002080B400AF034B1B681846BD46D9
:102684005DF8047B704700BF2C1C002080B483B02D
:1026940000AF7860044B1B687A681A6000BF0C377F
:1026A400BD465DF8047B7047301C002080B400AF49
:1026B400054B1B681B7903F00203DBB21846BD46C9
:1026C4005DF8047B704700BF301C002080B400AF6D
:1026D400034B1B681846BD465DF8047B704700BF7A
:1026E400301C002080B483B000AF0346FB71054B5F
:1026F4001B68FA791A7000BF0C37BD465DF8047B7D
:10270400704700BF341C002080B400AF054B1B6829
:102714005B7803F00203DBB21846BD465DF8047B28
:10272400704700BF341C002080B400AF034B1B680B
:102734001846BD465DF8047B704700BF341C00207A
:1027440080B483B000AF0346FB80054B1B68FA8856
:102754001A8000BF0C37BD465DF8047B704700BF8C
:10276400381C002080B400AF034B1B681846BD46DC
:102774005DF8047B704700BF381C002080B483B030
:1027840000AF0346FB80054B1B68FA881A8000BF24
:102794000C37BD465DF8047B704700BF3C1C00202D
:1027A40080B400AF034B1B681846BD465DF8047B3C
:1027B400704700BF3C1C002080B483B000AF0346C8
:1027C400FB80054B1B68FA881A8000BF0C37BD4696
:1027D4005DF8047B704700BF401C002080B400AF4C
:1027E400034B1B681846BD465DF8047B704700BF69
:1027F400401C002080B483B000AF0346FB80054B2F
:102804001B68FA881A8000BF0C37BD465DF8047B4C
:10281400704700BF441C002080B400AF034B1B680A
:102824001846BD465DF8047B704700BF441C002079
:1028340090B482B000AFC7E90001054B1A68D7E92C
:102844000034C2E9003400BF0837BD4690BC70476D
:10285400481C002080B400AF054B1B681B7A03F0B2
:102864000203DBB21846BD465DF8047B704700BF27
:10287400481C002080B400AF034B1B681846BD46BB
:102884005DF8047B704700BF481C002090B482B000
:1028940000AFC7E90001054B1A68D7E90034C2E963
:1028A400003400BF0837BD4690BC70474C1C002064
:1028B40080B400AF054B1B681B7A03F00203DBB244
:1028C4001846BD465DF8047B704700BF4C1C0020D1
:1028D40080B400AF034B1B681846BD465DF8047B0B
:1028E400704700BF4C1C002090B482B000AFC7E911
:1028F4000001054B1A68D7E90034C2E9003400BF6F
:102904000837BD4690BC7047501C002080B400AF0F
:10291400054B1B681B7A03F00203DBB21846BD4665
:102924005DF8047B704700BF501C002080B400AFEA
:10293400034B1B681846BD465DF8047B704700BF17
:10294400501C002080B483B000AF0346FB71054BDC
:102954001B68FA791A7000BF0C37BD465DF8047B1A
:10296400704700BF541C002080B400AF034B1B68A9
:102974001846BD465DF8047B704700BF541C002018
:1029840080B483B000AF0346FB71054B1B68FA7932
:102994001A7000BF0C37BD465DF8047B704700BF5A
:1029A400581C002080B400AF034B1B681846BD467A
:1029B4005DF8047B704700BF581C002080B483B0CE
:1029C40000AF0346FB80054B1B68FA881A8000BFE2
:1029D4000C37BD465DF8047B704700BF5C1C0020CB
:1029E40080B400AF054B1B689B7803F00203DBB295
:1029F4001846BD465DF8047B704700BF5C1C002090
:102A040080B400AF034B1B681846BD465DF8047BD9
:102A1400704700BF5C1C002080B483B000AF034645
:102A2400FB80054B1B68FA881A8000BF0C37BD4633
:102A34005DF8047B704700BF601C002080B483B045
:102A440000AF0346FB80054B1B68FA881A8000BF61
:102A54000C37BD465DF8047B704700BF641C002042
:102A640080B483B000AF0346FB80054B1B68FA8833
:102A74001A8000BF0C37BD465DF8047B704700BF69
:102A8400681C002080B483B000AF0346FB80054B74
:102A94001B68FA881A8000BF0C37BD465DF8047BBA
:102AA400704700BF6C1C002080B483B000AF0346A5
:102AB400FB80054B1B68FA881A8000BF0C37BD46A3
:102AC4005DF8047B704700BF701C002080B483B0A5
:102AD40000AF0346FB80054B1B68FA881A8000BFD1
:102AE4000C37BD465DF8047B704700BF741C0020A2
:102AF40080B483B000AF0346FB80054B1B68FA88A3
:102B04001A8000BF0C37BD465DF8047B704700BFD8
:102B1400781C002080B483B000AF0346FB71054BE2
:102B24001B68FA791A7000BF0C37BD465DF8047B48
:102B3400704700BF7C1C002080B483B000AF034604
:102B4400FB71054B1B68FA791A7000BF0C37BD4640
:102B54005DF8047B704700BF801C002080B400AF88
:102B6400034B1B681846BD465DF8047B704700BFE5
:102B7400801C002080B483B000AF0346FB80054B6B
:102B84001B68FA881A8000BF0C37BD465DF8047BC9
:102B9400704700BF841C002080B400AF054B1B6845
:102BA4009B7803F00203DBB21846BD465DF8047B54
:102BB400704700BF841C002080B400AF034B1B6827
:102BC4001846BD465DF8047B704700BF841C002096
:102BD40080B483B000AF0346FB80054B1B68FA88C2
:102BE4001A8000BF0C37BD465DF8047B704700BFF8
:102BF400881C002080B483B000AF0346FB80054BE3
:102C04001B68FA881A8000BF0C37BD465DF8047B48
:102C1400704700BF8C1C002080B483B000AF034613
:102C2400FB80054B1B68FA881A8000BF0C37BD4631
:102C34005DF8047B704700BF901C002080B483B013
:102C440000AF0346FB80054B1B68FA881A8000BF5F
:102C54000C37BD465DF8047B704700BF941C002010
:102C640080B483B000AF0346FB80054B1B68FA8831
:102C74001A8000BF0C37BD465DF8047B704700BF67
:102C8400981C002080B483B000AF0346FB80054B42
:102C94001B68FA881A8000BF0C37BD465DF8047BB8
:102CA400704700BF9C1C002080B483B000AF034673
:102CB400FB80054B1B68FA881A8000BF0C37BD46A1
:102CC4005DF8047B704700BFA01C002080B483B073
:102CD40000AF0346FB80054B1B68FA881A8000BFCF
:102CE4000C37BD465DF8047B704700BFA41C002070
:102CF40080B483B000AF0346FB80054B1B68FA88A1
:102D04001A8000BF0C37BD465DF8047B704700BFD6
:102D1400A81C002080B483B000AF0346FB80054BA1
:102D24001B68FA881A8000BF0C37BD465DF8047B27
:102D3400704700BFAC1C002080B483B000AF0346D2
:102D4400FB80054B1B68FA881A8000BF0C37BD4610
:102D54005DF8047B704700BFB01C002080B483B0D2
:102D640000AF0346FB80054B1B68FA881A8000BF3E
:102D74000C37BD465DF8047B704700BFB41C0020CF
:102D840080B483B000AF0346FB80054B1B68FA8810
:102D94001A8000BF0C37BD465DF8047B704700BF46
:102DA400B81C002080B483B000AF0346FB80054B01
:102DB4001B68FA881A8000BF0C37BD465DF8047B97
:102DC400704700BFBC1C002080B483B000AF034632
:102DD400FB80054B1B68FA881A8000BF0C37BD4680
:102DE4005DF8047B704700BFC01C002080B483B032
:102DF40000AF0346FB80054B1B68FA881A8000BFAE
:102E04000C37BD465DF8047B704700BFC41C00202E
:102E140080B483B000AF0346FB80054B1B68FA887F
:102E24001A8000BF0C37BD465DF8047B704700BFB5
:102E3400C81C002080B483B000AF0346FB80054B60
:102E44001B68FA881A8000BF0C37BD465DF8047B06
:102E5400704700BFCC1C002080B483B000AF034691
:102E6400FB80054B1B68FA881A8000BF0C37BD46EF
:102E74005DF8047B704700BFD01C002080B483B091
:102E840000AF0346FB80054B1B68FA881A8000BF1D
:102E94000C37BD465DF8047B704700BFD41C00208E
:102EA40080B483B000AF0346FB80054B1B68FA88EF
:102EB4001A8000BF0C37BD465DF8047B704700BF25
:102EC400D81C002080B483B000AF7860044B1B682A
:102ED4007A681A6000BF0C37BD465DF8047B704702
:102EE400DC1C002080B483B000AF7860044B1B6806
:102EF4007A681A6000BF0C37BD465DF8047B7047E2
:102F0400E01C002080B483B000AF7860044B1B68E1
:102F14007A681A6000BF0C37BD465DF8047B7047C1
:102F2400E41C002080B483B000AF7860044B1B68BD
:102F34007A681A6000BF0C37BD465DF8047B7047A1
:102F4400E81C002080B483B000AF7860044B1B6899
:102F54007A681A6000BF0C37BD465DF8047B704781
:102F6400EC1C002080B483B000AF7860044B1B6875
:102F74007A681A6000BF0C37BD465DF8047B704761
:102F8400F01C002080B483B000AF7860044B1B6851
:102F94007A681A6000BF0C37BD465DF8047B704741
:102FA400F41C002080B483B000AF7860044B1B682D
:102FB4007A681A6000BF0C37BD465DF8047B704721
:102FC400F81C002080B483B000AF7860044B1B6809
:102FD4007A681A6000BF0C37BD465DF8047B704701
:102FE400FC1C002080B483B000AF7860044B1B68E5
:102FF4007A681A6000BF0C37BD465DF8047B7047E1
:10300400001D002080B483B000AF7860044B1B68BF
:103014007A681A6000BF0C37BD465DF8047B7047C0
:10302400041D002080B483B000AF7860044B1B689B
:103034007A681A6000BF0C37BD465DF8047B7047A0
:10304400081D002080B483B000AF7860044B1B6877
:103054007A681A6000BF0C37BD465DF8047B704780
:103064000C1D002080B483B000AF7860044B1B6853
:103074007A681A6000BF0C37BD465DF8047B704760
:10308400101D002080B483B000AF7860044B1B682F
:103094007A681A6000BF0C37BD465DF8047B704740
:1030A400141D002080B483B000AF7860044B1B680B
:1030B4007A681A6000BF0C37BD465DF8047B704720
:1030C400181D002080B483B000AF0346FB80054B7D
:1030D4001B68FA881A8000BF0C37BD465DF8047B74
:1030E400704700BF1C1D002080B483B000AF0346AE
:1030F400FB80054B1B68FA881A8000BF0C37BD465D
:103104005DF8047B704700BF201D002080B483B0AD
:1031140000AF0346FB80054B1B68FA881A8000BF8A
:103124000C37BD465DF8047B704700BF241D0020AA
:1031340080B483B000AF0346FB80054B1B68FA885C
:103144001A8000BF0C37BD465DF8047B704700BF92
:10315400281D002080B483B000AF0346FB80054BDC
:103164001B68FA881A8000BF0C37BD465DF8047BE3
:10317400704700BF2C1D002080B483B000AF03460D
:10318400FB80054B1B68FA881A8000BF0C37BD46CC
:103194005DF8047B704700BF301D002080B483B00D
:1031A40000AF0346FB80054B1B68FA881A8000BFFA
:1031B4000C37BD465DF8047B704700BF341D00200A
:1031C40080B483B000AF0346FB80054B1B68FA88CC
:1031D4001A8000BF0C37BD465DF8047B704700BF02
:1031E400381D002080B483B000AF0346FB80054B3C
:1031F4001B68FA881A8000BF0C37BD465DF8047B53
:10320400704700BF3C1D002080B483B000AF03466C
:10321400FB80054B1B68FA881A8000BF0C37BD463B
:103224005DF8047B704700BF401D002080B483B06C
:1032340000AF0346FB80054B1B68FA881A8000BF69
:103244000C37BD465DF8047B704700BF441D002069
:1032540080B483B000AF0346FB80054B1B68FA883B
:103264001A8000BF0C37BD465DF8047B704700BF71
:10327400481D002080B483B000AF0346FB80054B9B
:103284001B68FA881A8000BF0C37BD465DF8047BC2
:10329400704700BF4C1D002080B483B000AF0346CC
:1032A400FB80054B1B68FA881A8000BF0C37BD46AB
:1032B4005DF8047B704700BF501D002080B483B0CC
:1032C40000AF0346FB80054B1B68FA881A8000BFD9
:1032D4000C37BD465DF8047B704700BF541D0020C9
:1032E40080B483B000AF0346FB80054B1B68FA88AB
:1032F4001A8000BF0C37BD465DF8047B704700BFE1
:10330400581D002080B483B000AF7860044B1B6864
:103314007A681A6000BF0C37BD465DF8047B7047BD
:103324005C1D002080B400AF034B1B681846BD46EB
:103334005DF8047B704700BF5C1D002090B482B030
:1033440000AFC7E90001054B1A68D7E90034C2E9A8
:10335400003400BF0837BD4690BC7047601D002094
:1033640090B482B000AFC7E90001054B1A68D7E9F1
:103374000034C2E9003400BF0837BD4690BC704732
:10338400641D002090B482B000AFC7E90001054B72
:103394001A68D7E90034C2E9003400BF0837BD46D3
:1033A40090BC7047681D002090B482B000AFC7E99C
:1033B4000001054B1A68D7E90034C2E9003400BFA4
:1033C4000837BD4690BC70476C1D002090B482B095
:1033D40000AFC7E90001054B1A68D7E90034C2E918
:1033E400003400BF0837BD4690BC7047701D0020F4
:1033F40090B482B000AFC7E90001054B1A68D7E961
:103404000034C2E9003400BF0837BD4690BC7047A1
:10341400741D002090B482B000AFC7E90001054BD1
:103424001A68D7E90034C2E9003400BF0837BD4642
:1034340090BC7047781D002090B482B000AFC7E9FB
:103444000001054B1A68D7E90034C2E9003400BF13
:103454000837BD4690BC70477C1D002090B482B0F4
:1034640000AFC7E90001054B1A68D7E90034C2E987
:10347400003400BF0837BD4690BC7047801D002053
:1034840090B482B000AFC7E90001054B1A68D7E9D0
:103494000034C2E9003400BF0837BD4690BC704711
:1034A400841D002090B482B000AFC7E90001054B31
:1034B4001A68D7E90034C2E9003400BF0837BD46B2
:1034C40090BC7047881D002090B482B000AFC7E95B
:1034D4000001054B1A68D7E90034C2E9003400BF83
:1034E4000837BD4690BC70478C1D002090B482B054
:1034F40000AFC7E90001054B1A68D7E90034C2E9F7
:10350400003400BF0837BD4690BC7047901D0020B2
:1035140090B482B000AFC7E90001054B1A68D7E93F
:103524000034C2E9003400BF0837BD4690BC704780
:10353400941D002090B482B000AFC7E90001054B90
:103544001A68D7E90034C2E9003400BF0837BD4621
:1035540090BC7047981D002090B482B000AFC7E9BA
:103564000001054B1A68D7E90034C2E9003400BFF2
:103574000837BD4690BC70479C1D002080B483B0C2
:1035840000AF87ED010A054B1B687A681A6000BF1B
:103594000C37BD465DF8047B704700BFA01D0020BA
:1035A40080B483B000AF87ED010A054B1B687A68CD
:1035B4001A6000BF0C37BD465DF8047B704700BF3E
:1035C400A41D002080B483B000AF87ED010A054B31
:1035D4001B687A681A6000BF0C37BD465DF8047B2F
:1035E400704700BFA81D002080B483B000AF87EDF2
:1035F400010A054B1B687A681A6000BF0C37BD4688
:103604005DF8047B704700BFAC1D002080B483B01C
:1036140000AF87ED010A054B1B687A681A6000BF8A
:103624000C37BD465DF8047B704700BFB01D002019
:1036340080B483B000AF87ED010A054B1B687A683C
:103644001A6000BF0C37BD465DF8047B704700BFAD
:10365400B41D002080B483B000AF87ED010A054B90
:103664001B687A681A6000BF0C37BD465DF8047B9E
:10367400704700BFB81D002080B483B000AF87ED51
:10368400010A054B1B687A681A6000BF0C37BD46F7
:103694005DF8047B704700BFBC1D002080B483B07C
:1036A40000AF87ED010A054B1B687A681A6000BFFA
:1036B4000C37BD465DF8047B704700BFC01D002079
:1036C40080B483B000AF87ED010A054B1B687A68AC
:1036D4001A6000BF0C37BD465DF8047B704700BF1D
:1036E400C41D002080B483B000AF87ED010A054BF0
:1036F4001B687A681A6000BF0C37BD465DF8047B0E
:10370400704700BFC81D002080B483B000AF87EDB0
:10371400010A054B1B687A681A6000BF0C37BD4666
:103724005DF8047B704700BFCC1D002080B483B0DB
:1037340000AF87ED010A054B1B687A681A6000BF69
:103744000C37BD465DF8047B704700BFD01D0020D8
:1037540080B483B000AF87ED010A054B1B687A681B
:103764001A6000BF0C37BD465DF8047B704700BF8C
:10377400D41D002080B483B000AF87ED010A054B4F
:103784001B687A681A6000BF0C37BD465DF8047B7D
:10379400704700BFD81D002080B483B000AF87ED10
:1037A400010A054B1B687A681A6000BF0C37BD46D6
:1037B4005DF8047B704700BFDC1D002080B483B03B
:1037C40000AF0346FB80054B1B68FA881A8000BFD4
:1037D4000C37BD465DF8047B704700BFE01D002038
:1037E40080B400AF034B1B681846BD465DF8047BEC
:1037F400704700BFE01D002080B483B000AF0346D3
:10380400FB80054B1B68FA881A8000BF0C37BD4645
:103814005DF8047B704700BFE41D002080B400AF56
:10382400034B1B681846BD465DF8047B704700BF18
:10383400E41D002080B483B000AF0346FB80054B39
:103844001B68FA881A8000BF0C37BD465DF8047BFC
:10385400704700BFE81D002080B483B000AF03466A
:10386400FB80054B1B68FA881A8000BF0C37BD46E5
:103874005DF8047B704700BFEC1D002080B483B06A
:1038840000AF0346FB80054B1B68FA881A8000BF13
:103894000C37BD465DF8047B704700BFF01D002067
:1038A40080B483B000AF0346FB80054B1B68FA88E5
:1038B4001A8000BF0C37BD465DF8047B704700BF1B
:1038C400F41D002080B483B000AF0346FB80054B99
:1038D4001B68FA881A8000BF0C37BD465DF8047B6C
:1038E400704700BFF81D002080B483B000AF0346CA
:1038F400FB80054B1B68FA881A8000BF0C37BD4655
:103904005DF8047B704700BFFC1D002080B483B0C9
:1039140000AF0346FB80054B1B68FA881A8000BF82
:103924000C37BD465DF8047B704700BF001E0020C5
:1039340080B483B000AF87ED010A054B1B687A6839
:103944001A6000BF0C37BD465DF8047B704700BFAA
:10395400041E002080B400AF034B1B681846BD460C
:103964005DF8047B704700BF041E002080B483B060
:1039740000AF87ED010A054B1B687A681A6000BF27
:103984000C37BD465DF8047B704700BF081E00205D
:1039940080B483B000AF87ED010A054B1B687A68D9
:1039A4001A6000BF0C37BD465DF8047B704700BF4A
:1039B4000C1E002080B483B000AF87ED010A054BD4
:1039C4001B687A681A6000BF0C37BD465DF8047B3B
:1039D400704700BF101E002090B482B000AFC7E94A
:1039E4000001054B1A68D7E90034C2E9003400BF6E
:1039F4000837BD4690BC7047141E002080B483B0C5
:103A040000AF7860044B1B687A681A6000BF0C37FB
:103A1400BD465DF8047B7047181E002080B483B057
:103A240000AF0346FB80054B1B68FA881A8000BF71
:103A34000C37BD465DF8047B704700BF1C1E002098
:103A440080B483B000AF0346FB80054B1B68FA8843
:103A54001A8000BF0C37BD465DF8047B704700BF79
:103A6400201E002080B483B000AF0346FB80054BCA
:103A74001B68FA881A8000BF0C37BD465DF8047BCA
:103A8400704700BF241E002080B483B000AF0346FB
:103A9400FB80054B1B68FA881A8000BF0C37BD46B3
:103AA4005DF8047B704700BF281E002080B483B0FB
:103AB40000AF0346FB80054B1B68FA881A8000BFE1
:103AC4000C37BD465DF8047B704700BF2C1E0020F8
:103AD40080B400AF034B1B681846BD465DF8047BF9
:103AE400704700BF2C1E002080B483B000AF034693
:103AF400FB71054B1B68FA791A7000BF0C37BD4681
:103B04005DF8047B704700BF301E002080B483B092
:103B140000AF0346FB71054B1B68FA791A7000BFAE
:103B24000C37BD465DF8047B704700BF341E00208F
:103B340080B483B000AF0346FB71054B1B68FA7970
:103B44001A7000BF0C37BD465DF8047B704700BF98
:103B5400381E002080B483B000AF0346FB71054BD0
:103B64001B68FA791A7000BF0C37BD465DF8047BF8
:103B7400704700BF3C1E002080B483B000AF0346F2
:103B8400FB71054B1B68FA791A7000BF0C37BD46F0
:103B94005DF8047B704700BF401E002080B483B0F2
:103BA40000AF0346FB71054B1B68FA791A7000BF1E
:103BB4000C37BD465DF8047B704700BF441E0020EF
:103BC40080B483B000AF0346FB71054B1B68FA79E0
:103BD4001A7000BF0C37BD465DF8047B704700BF08
:103BE400481E002080B483B000AF0346FB71054B30
:103BF4001B68FA791A7000BF0C37BD465DF8047B68
:103C0400704700BF4C1E002080B483B000AF034651
:103C1400FB71054B1B68FA791A7000BF0C37BD465F
:103C24005DF8047B704700BF501E002080B483B051
:103C340000AF0346FB71054B1B68FA791A7000BF8D
:103C44000C37BD465DF8047B704700BF541E00204E
:103C540080B483B000AF0346FB71054B1B68FA794F
:103C64001A7000BF0C37BD465DF8047B704700BF77
:103C7400581E002080B483B000AF0346FB71054B8F
:103C84001B68FA791A7000BF0C37BD465DF8047BD7
:103C9400704700BF5C1E002080B483B000AF87ED86
:103CA400010A054B1B687A681A6000BF0C37BD46D1
:103CB4005DF8047B704700BF601E002080B483B0B1
:103CC40000AF87ED010A054B1B687A681A6000BFD4
:103CD4000C37BD465DF8047B704700BF641E0020AE
:103CE40080B483B000AF87ED010A054B1B687A6886
:103CF4001A6000BF0C37BD465DF8047B704700BFF7
:103D0400681E002080B483B000AF87ED010A054B24
:103D14001B687A681A6000BF0C37BD465DF8047BE7
:103D2400704700BF6C1E002080B483B000AF87EDE5
:103D3400010A054B1B687A681A6000BF0C37BD4640
:103D44005DF8047B704700BF701E002080B483B010
:103D540000AF87ED010A054B1B687A681A6000BF43
:103D64000C37BD465DF8047B704700BF741E00200D
:103D740080B483B000AF87ED010A054B1B687A68F5
:103D84001A6000BF0C37BD465DF8047B704700BF66
:103D9400781E002080B483B000AF87ED010A054B84
:103DA4001B687A681A6000BF0C37BD465DF8047B57
:103DB400704700BF7C1E002080B483B000AF87ED45
:103DC400010A054B1B687A681A6000BF0C37BD46B0
:103DD4005DF8047B704700BF801E002080B483B070
:103DE40000AF87ED010A054B1B687A681A6000BFB3
:103DF4000C37BD465DF8047B704700BF841E00206D
:103E040080B483B000AF87ED010A054B1B687A6864
:103E14001A6000BF0C37BD465DF8047B704700BFD5
:103E2400881E002080B483B000AF87ED010A054BE3
:103E34001B687A681A6000BF0C37BD465DF8047BC6
:103E4400704700BF8C1E002080B483B000AF87EDA4
:103E5400010A054B1B687A681A6000BF0C37BD461F
:103E64005DF8047B704700BF901E002080B483B0CF
:103E740000AF87ED010A054B1B687A681A6000BF22
:103E84000C37BD465DF8047B704700BF941E0020CC
:103E940080B483B000AF87ED010A054B1B687A68D4
:103EA4001A6000BF0C37BD465DF8047B704700BF45
:103EB400981E002080B483B000AF87ED010A054B43
:103EC4001B687A681A6000BF0C37BD465DF8047B36
:103ED400704700BF9C1E002080B483B000AF87ED04
:103EE400010A054B1B687A681A6000BF0C37BD468F
:103EF4005DF8047B704700BFA01E002080B400AFB3
:103F0400034B1B681846BD465DF8047B704700BF31
:103F1400A01E002080B483B000AF87ED010A054BDA
:103F24001B687A681A6000BF0C37BD465DF8047BD5
:103F3400704700BFA41E002080B400AF034B1B6871
:103F44001846BD465DF8047B704700BFA41E0020E0
:103F540080B483B000AF87ED010A054B1B687A6813
:103F64001A6000BF0C37BD465DF8047B704700BF84
:103F7400A81E002080B483B000AF87ED010A054B72
:103F84001B687A681A6000BF0C37BD465DF8047B75
:103F9400704700BFAC1E002080B483B000AF87ED33
:103FA400010A054B1B687A681A6000BF0C37BD46CE
:103FB4005DF8047B704700BFB01E002080B483B05E
:103FC40000AF87ED010A054B1B687A681A6000BFD1
:103FD4000C37BD465DF8047B704700BFB41E00205B
:103FE40080B483B000AF87ED010A054B1B687A6883
:103FF4001A6000BF0C37BD465DF8047B704700BFF4
:10400400B81E002080B483B000AF87ED010A054BD1
:104014001B687A681A6000BF0C37BD465DF8047BE4
:10402400704700BFBC1E002080B483B000AF0346BD
:10403400FB80054B1B68FA881A8000BF0C37BD460D
:104044005DF8047B704700BFC01E002080B400AF41
:10405400054B1B689B7803F00203DBB21846BD4690
:104064005DF8047B704700BFC01E002080B400AF21
:10407400034B1B681846BD465DF8047B704700BFC0
:10408400C01E002080B483B000AF0346FB71054B13
:104094001B68FA791A7000BF0C37BD465DF8047BC3
:1040A400704700BFC41E002080B483B000AF034635
:1040B400FB71054B1B68FA791A7000BF0C37BD46BB
:1040C4005DF8047B704700BFC81E002080B483B035
:1040D40000AF0346FB80054B1B68FA881A8000BFBB
:1040E4000C37BD465DF8047B704700BFCC1E002032
:1040F40080B400AF034B1B681846BD465DF8047BD3
:10410400704700BFCC1E002080B483B000AF0346CC
:10411400FB80054B1B68FA881A8000BF0C37BD462C
:104124005DF8047B704700BFD01E002080B483B0CC
:1041340000AF0346FB71054B1B68FA791A7000BF88
:104144000C37BD465DF8047B704700BFD41E0020C9
:1041540080B483B000AF0346FB71054B1B68FA794A
:104164001A7000BF0C37BD465DF8047B704700BF72
:10417400D81E002080B483B000AF0346FB71054B0A
:104184001B68FA791A7000BF0C37BD465DF8047BD2
:10419400704700BFDC1E002080B483B000AF03462C
:1041A400FB71054B1B68FA791A7000BF0C37BD46CA
:1041B4005DF8047B704700BFE01E002080B400AFB0
:1041C400034B1B681846BD465DF8047B704700BF6F
:1041D400E01E002080B483B000AF0346FB71054BA2
:1041E4001B68FA791A7000BF0C37BD465DF8047B72
:1041F400704700BFE41E002080B483B000AF0346C4
:10420400FB71054B1B68FA791A7000BF0C37BD4669
:104214005DF8047B704700BFE81E002080B483B0C3
:1042240000AF0346FB71054B1B68FA791A7000BF97
:104234000C37BD465DF8047B704700BFEC1E0020C0
:1042440080B483B000AF0346FB71054B1B68FA7959
:104254001A7000BF0C37BD465DF8047B704700BF81
:10426400F01E002080B483B000AF0346FB71054B01
:104274001B68FA791A7000BF0C37BD465DF8047BE1
:10428400704700BFF41E002080B483B000AF034623
:10429400FB71054B1B68FA791A7000BF0C37BD46D9
:1042A4005DF8047B704700BFF81E002080B483B023
:1042B40000AF0346FB71054B1B68FA791A7000BF07
:1042C4000C37BD465DF8047B704700BFFC1E002020
:1042D40080B483B000AF0346FB71054B1B68FA79C9
:1042E4001A7000BF0C37BD465DF8047B704700BFF1
:1042F400001F002080B483B000AF0346FB71054B60
:104304001B68FA791A7000BF0C37BD465DF8047B50
:10431400704700BF041F002080B483B000AF034681
:10432400FB71054B1B68FA791A7000BF0C37BD4648
:104334005DF8047B704700BF081F002080B483B081
:1043440000AF0346FB71054B1B68FA791A7000BF76
:104354000C37BD465DF8047B704700BF0C1F00207E
:1043640080B483B000AF0346FB71054B1B68FA7938
:104374001A7000BF0C37BD465DF8047B704700BF60
:10438400101F002080B483B000AF0346FB80054BB0
:104394001B68FA881A8000BF0C37BD465DF8047BA1
:1043A400704700BF141F002080B483B000AF0346E1
:1043B400FB80054B1B68FA881A8000BF0C37BD468A
:1043C4005DF8047B704700BF181F002090B482B0D2
:1043D40000AFC7E90001054B1A68D7E90034C2E908
:1043E400003400BF0837BD4690BC70471C1F002036
:1043F40080B483B000AF7860044B1B687A681A609D
:1044040000BF0C37BD465DF8047B7047201F0020B9
:1044140080B483B000AF0346FB71054B1B68FA7987
:104424001A7000BF0C37BD465DF8047B704700BFAF
:10443400241F002080B483B000AF0346FB71054BFA
:104444001B68FA791A7000BF0C37BD465DF8047B0F
:10445400704700BF281F002080B483B000AF03461C
:10446400FB71054B1B68FA791A7000BF0C37BD4607
:104474005DF8047B704700BF2C1F002080B483B01C
:1044840000AF0346FB71054B1B68FA791A7000BF35
:104494000C37BD465DF8047B704700BF301F002019
:1044A40080B483B000AF0346FB71054B1B68FA79F7
:1044B4001A7000BF0C37BD465DF8047B704700BF1F
:1044C400341F002080B483B000AF0346FB71054B5A
:1044D4001B68FA791A7000BF0C37BD465DF8047B7F
:1044E400704700BF381F002080B483B000AF03467C
:1044F400FB71054B1B68FA791A7000BF0C37BD4677
:104504005DF8047B704700BF3C1F002080B483B07B
:1045140000AF0346FB71054B1B68FA791A7000BFA4
:104524000C37BD465DF8047B704700BF401F002078
:1045340080B483B000AF0346FB71054B1B68FA7966
:104544001A7000BF0C37BD465DF8047B704700BF8E
:10455400441F002080B483B000AF0346FB71054BB9
:104564001B68FA791A7000BF0C37BD465DF8047BEE
:10457400704700BF481F002080B483B000AF87EDB0
:10458400010A054B1B687A681A6000BF0C37BD46E8
:104594005DF8047B704700BF4C1F002080B400AF5F
:1045A400034B1B681846BD465DF8047B704700BF8B
:1045B4004C1F002080B483B000AF87ED010A054B87
:1045C4001B687A681A6000BF0C37BD465DF8047B2F
:1045D400704700BF501F002080B483B000AF87ED48
:1045E400010A054B1B687A681A6000BF0C37BD4688
:1045F4005DF8047B704700BF541F002080B483B073
:1046040000AF7860044B1B687A681A6000BF0C37EF
:10461400BD465DF8047B7047581F002080B483B00A
:1046240000AF7860044B1B687A681A6000BF0C37CF
:10463400BD465DF8047B70475C1F002080B483B0E6
:1046440000AF7860044B1B687A681A6000BF0C37AF
:10465400BD465DF8047B7047601F002080B483B0C2
:1046640000AF7860044B1B687A681A6000BF0C378F
:10467400BD465DF8047B7047641F002080B483B09E
:1046840000AF7860044B1B687A681A6000BF0C376F
:10469400BD465DF8047B7047681F002080B483B07A
:1046A40000AF0346FB80054B1B68FA881A8000BFE5
:1046B4000C37BD465DF8047B704700BF6C1F0020BB
:1046C40080B483B000AF0346FB80054B1B68FA88B7
:1046D4001A8000BF0C37BD465DF8047B704700BFED
:1046E400701F002080B483B000AF0346FB80054BED
:1046F4001B68FA881A8000BF0C37BD465DF8047B3E
:10470400704700BF741F002080B483B000AF03461D
:10471400FB80054B1B68FA881A8000BF0C37BD4626
:104724005DF8047B704700BF781F002080B483B01D
:1047340000AF0346FB80054B1B68FA881A8000BF54
:104744000C37BD465DF8047B704700BF7C1F00201A
:1047540080B400AF054B1B689B7803F00203DBB207
:104764001846BD465DF8047B704700BF7C1F0020DF
:1047740080B400AF034B1B681846BD465DF8047B4C
:10478400704700BF7C1F002080B483B000AF034695
:10479400FB80054B1B68FA881A8000BF0C37BD46A6
:1047A4005DF8047B704700BF801F002080B400AF19
:1047B400054B1B689B7803F00203DBB21846BD4629
:1047C4005DF8047B704700BF801F002080B400AFF9
:1047D400034B1B681846BD465DF8047B704700BF59
:1047E400801F002080B483B000AF0346FB80054BDC
:1047F4001B68FA881A8000BF0C37BD465DF8047B3D
:10480400704700BF841F002080B483B000AF03460C
:10481400FB80054B1B68FA881A8000BF0C37BD4625
:104824005DF8047B704700BF881F002080B483B00C
:1048340000AF0346FB80054B1B68FA881A8000BF53
:104844000C37BD465DF8047B704700BF8C1F002009
:1048540080B483B000AF0346FB80054B1B68FA8825
:104864001A8000BF0C37BD465DF8047B704700BF5B
:10487400901F002080B483B000AF0346FB80054B3B
:104884001B68FA881A8000BF0C37BD465DF8047BAC
:10489400704700BF941F002080B483B000AF03466C
:1048A400FB80054B1B68FA881A8000BF0C37BD4695
:1048B4005DF8047B704700BF981F002080B483B06C
:1048C40000AF0346FB80054B1B68FA881A8000BFC3
:1048D4000C37BD465DF8047B704700BF9C1F002069
:1048E40080B483B000AF0346FB80054B1B68FA8895
:1048F4001A8000BF0C37BD465DF8047B704700BFCB
:10490400A01F002080B483B000AF0346FB80054B9A
:104914001B68FA881A8000BF0C37BD465DF8047B1B
:10492400704700BFA41F002080B483B000AF0346CB
:10493400FB80054B1B68FA881A8000BF0C37BD4604
:104944005DF8047B704700BFA81F002080B483B0CB
:1049540000AF0346FB80054B1B68FA881A8000BF32
:104964000C37BD465DF8047B704700BFAC1F0020C8
:1049740080B400AF054B1B689B7803F00203DBB2E5
:104984001846BD465DF8047B704700BFAC1F00208D
:1049940080B400AF034B1B681846BD465DF8047B2A
:1049A400704700BFAC1F002080B483B000AF034643
:1049B400FB71054B1B68FA791A7000BF0C37BD46B2
:1049C4005DF8047B704700BFB01F002080B483B043
:1049D40000AF0346FB71054B1B68FA791A7000BFE0
:1049E4000C37BD465DF8047B704700BFB41F002040
:1049F40080B483B000AF0346FB80054B1B68FA8884
:104A04001A8000BF0C37BD465DF8047B704700BFB9
:104A1400B81F002080B400AF034B1B681846BD4686
:104A24005DF8047B704700BFB81F002080B483B0DA
:104A340000AF0346FB80054B1B68FA881A8000BF51
:104A44000C37BD465DF8047B704700BFBC1F0020D7
:104A540080B483B000AF0346FB71054B1B68FA7941
:104A64001A7000BF0C37BD465DF8047B704700BF69
:104A7400C01F002080B483B000AF0346FB71054B18
:104A84001B68FA791A7000BF0C37BD465DF8047BC9
:104A9400704700BFC41F002080B483B000AF03463A
:104AA400FB71054B1B68FA791A7000BF0C37BD46C1
:104AB4005DF8047B704700BFC81F002080B483B03A
:104AC40000AF0346FB71054B1B68FA791A7000BFEF
:104AD4000C37BD465DF8047B704700BFCC1F002037
:104AE40080B400AF034B1B681846BD465DF8047BD9
:104AF400704700BFCC1F002080B483B000AF0346D2
:104B0400FB71054B1B68FA791A7000BF0C37BD4660
:104B14005DF8047B704700BFD01F002080B483B0D1
:104B240000AF0346FB71054B1B68FA791A7000BF8E
:104B34000C37BD465DF8047B704700BFD41F0020CE
:104B440080B483B000AF0346FB71054B1B68FA7950
:104B54001A7000BF0C37BD465DF8047B704700BF78
:104B6400D81F002080B483B000AF0346FB71054B0F
:104B74001B68FA791A7000BF0C37BD465DF8047BD8
:104B8400704700BFDC1F002080B483B000AF034631
:104B9400FB71054B1B68FA791A7000BF0C37BD46D0
:104BA4005DF8047B704700BFE01F002080B483B031
:104BB40000AF0346FB71054B1B68FA791A7000BFFE
:104BC4000C37BD465DF8047B704700BFE41F00202E
:104BD40080B483B000AF0346FB71054B1B68FA79C0
:104BE4001A7000BF0C37BD465DF8047B704700BFE8
:104BF400E81F002080B483B000AF0346FB71054B6F
:104C04001B68FA791A7000BF0C37BD465DF8047B47
:104C1400704700BFEC1F002080B483B000AF034690
:104C2400FB71054B1B68FA791A7000BF0C37BD463F
:104C34005DF8047B704700BFF01F002080B483B090
:104C440000AF0346FB71054B1B68FA791A7000BF6D
:104C54000C37BD465DF8047B704700BFF41F00208D
:104C640080B483B000AF0346FB71054B1B68FA792F
:104C74001A7000BF0C37BD465DF8047B704700BF57
:104C8400F81F002080B483B000AF0346FB71054BCE
:104C94001B68FA791A7000BF0C37BD465DF8047BB7
:104CA400704700BFFC1F002080B483B000AF0346F0
:104CB400FB80054B1B68FA881A8000BF0C37BD4681
:104CC4005DF8047B704700BF0020002080B483B0EF
:104CD40000AF0346FB80054B1B68FA881A8000BFAF
:104CE4000C37BD465DF8047B704700BF04200020EC
:104CF40090B482B000AFC7E90001054B1A68D7E948
:104D04000034C2E9003400BF0837BD4690BC704788
:104D14000820002080B483B000AF7860044B1B6887
:104D24007A681A6000BF0C37BD465DF8047B704793
:104D34000C20002080B483B000AF0346FB71054B08
:104D44001B68FA791A7000BF0C37BD465DF8047B06
:104D5400704700BF1020002080B483B000AF03462A
:104D6400FB71054B1B68FA791A7000BF0C37BD46FE
:104D74005DF8047B704700BF1420002080B483B02A
:104D840000AF0346FB71054B1B68FA791A7000BF2C
:104D94000C37BD465DF8047B704700BF1820002027
:104DA40080B483B000AF0346FB71054B1B68FA79EE
:104DB4001A7000BF0C37BD465DF8047B704700BF16
:104DC4001C20002080B483B000AF0346FB71054B68
:104DD4001B68FA791A7000BF0C37BD465DF8047B76
:104DE400704700BF2020002080B483B000AF03468A
:104DF400FB71054B1B68FA791A7000BF0C37BD466E
:104E04005DF8047B704700BF2420002080B483B089
:104E140000AF0346FB71054B1B68FA791A7000BF9B
:104E24000C37BD465DF8047B704700BF2820002086
:104E340080B483B000AF0346FB71054B1B68FA795D
:104E44001A7000BF0C37BD465DF8047B704700BF85
:104E54002C20002080B483B000AF0346FB71054BC7
:104E64001B68FA791A7000BF0C37BD465DF8047BE5
:104E7400704700BF3020002080B483B000AF0346E9
:104E8400FB71054B1B68FA791A7000BF0C37BD46DD
:104E94005DF8047B704700BF3420002080B483B0E9
:104EA40000AF87ED010A054B1B687A681A6000BFE2
:104EB4000C37BD465DF8047B704700BF38200020E6
:104EC40080B400AF034B1B681846BD465DF8047BF5
:104ED400704700BF3820002080B483B000AF87ED56
:104EE400010A054B1B687A681A6000BF0C37BD467F
:104EF4005DF8047B704700BF3C20002080B483B081
:104F040000AF87ED010A054B1B687A681A6000BF81
:104F14000C37BD465DF8047B704700BF402000207D
:104F240080B483B000AF7860044B1B687A681A6061
:104F340000BF0C37BD465DF8047B70474420002059
:104F440080B483B000AF7860044B1B687A681A6041
:104F540000BF0C37BD465DF8047B70474820002035
:104F640080B483B000AF7860044B1B687A681A6021
:104F740000BF0C37BD465DF8047B70474C20002011
:104F840080B483B000AF7860044B1B687A681A6001
:104F940000BF0C37BD465DF8047B704750200020ED
:104FA40080B483B000AF7860044B1B687A681A60E1
:104FB40000BF0C37BD465DF8047B704754200020C9
:104FC40080B483B000AF0346FB80054B1B68FA88AE
:104FD4001A8000BF0C37BD465DF8047B704700BFE4
:104FE4005820002080B483B000AF0346FB80054BFB
:104FF4001B68FA881A8000BF0C37BD465DF8047B35
:10500400704700BF5C20002080B483B000AF03462B
:10501400FB80054B1B68FA881A8000BF0C37BD461D
:105024005DF8047B704700BF6020002080B483B02B
:1050340000AF0346FB80054B1B68FA881A8000BF4B
:105044000C37BD465DF8047B704700BF6420002028
:1050540080B400AF054B1B689B7803F00203DBB2FE
:105064001846BD465DF8047B704700BF64200020ED
:1050740080B400AF034B1B681846BD465DF8047B43
:10508400704700BF6420002080B483B000AF0346A3
:10509400FB80054B1B68FA881A8000BF0C37BD469D
:1050A4005DF8047B704700BF6820002080B400AF27
:1050B400054B1B689B7803F00203DBB21846BD4620
:1050C4005DF8047B704700BF6820002080B400AF07
:1050D400034B1B681846BD465DF8047B704700BF50
:1050E4006820002080B483B000AF0346FB80054BEA
:1050F4001B68FA881A8000BF0C37BD465DF8047B34
:10510400704700BF6C20002080B400AF054B1B68C3
:105114009B7803F00203DBB21846BD465DF8047BBE
:10512400704700BF6C20002080B400AF034B1B68A5
:105134001846BD465DF8047B704700BF6C20002014
:1051440080B483B000AF0346FB80054B1B68FA882C
:105154001A8000BF0C37BD465DF8047B704700BF62
:105164007020002080B400AF054B1B689B7803F0CF
:105174000203DBB21846BD465DF8047B704700BFEE
:105184007020002080B400AF034B1B681846BD4656
:105194005DF8047B704700BF7020002080B483B0AA
:1051A40000AF0346FB71054B1B68FA791A7000BF08
:1051B4000C37BD465DF8047B704700BF74200020A7
:1051C40080B483B000AF0346FB71054B1B68FA79CA
:1051D4001A7000BF0C37BD465DF8047B704700BFF2
:1051E4007820002080B483B000AF0346FB71054BE8
:1051F4001B68FA791A7000BF0C37BD465DF8047B52
:10520400704700BF7C20002080B483B000AF034609
:10521400FB71054B1B68FA791A7000BF0C37BD4649
:105224005DF8047B704700BF8020002080B483B009
:1052340000AF0346FB71054B1B68FA791A7000BF77
:105244000C37BD465DF8047B704700BF8420002006
:1052540080B483B000AF0346FB71054B1B68FA7939
:105264001A7000BF0C37BD465DF8047B704700BF61
:105274008820002080B483B000AF0346FB71054B47
:105284001B68FA791A7000BF0C37BD465DF8047BC1
:10529400704700BF8C20002080B483B000AF034669
:1052A400FB71054B1B68FA791A7000BF0C37BD46B9
:1052B4005DF8047B704700BF9020002080B483B069
:1052C40000AF87ED010A054B1B687A681A6000BFBE
:1052D4000C37BD465DF8047B704700BF9420002066
:1052E40080B483B000AF87ED010A054B1B687A6870
:1052F4001A6000BF0C37BD465DF8047B704700BFE1
:105304009820002080B483B000AF87ED010A054BDC
:105314001B687A681A6000BF0C37BD465DF8047BD1
:10532400704700BF9C20002080B483B000AF87ED9D
:10533400010A054B1B687A681A6000BF0C37BD462A
:105344005DF8047B704700BFA020002080B483B0C8
:1053540000AF87ED010A054B1B687A681A6000BF2D
:105364000C37BD465DF8047B704700BFA4200020C5
:1053740080B483B000AF87ED010A054B1B687A68DF
:105384001A6000BF0C37BD465DF8047B704700BF50
:10539400A820002080B483B000AF87ED010A054B3C
:1053A4001B687A681A6000BF0C37BD465DF8047B41
:1053B400704700BFAC20002080B483B000AF87EDFD
:1053C400010A054B1B687A681A6000BF0C37BD469A
:1053D4005DF8047B704700BFB020002080B483B028
:1053E40000AF87ED010A054B1B687A681A6000BF9D
:1053F4000C37BD465DF8047B704700BFB420002025
:1054040080B483B000AF87ED010A054B1B687A684E
:105414001A6000BF0C37BD465DF8047B704700BFBF
:10542400B820002080B483B000AF87ED010A054B9B
:105434001B687A681A6000BF0C37BD465DF8047BB0
:10544400704700BFBC20002080B483B000AF87ED5C
:10545400010A054B1B687A681A6000BF0C37BD4609
:105464005DF8047B704700BFC020002080B483B087
:1054740000AF0346FB80054B1B68FA881A8000BF07
:105484000C37BD465DF8047B704700BFC420002084
:1054940080B483B000AF0346FB80054B1B68FA88D9
:1054A4001A8000BF0C37BD465DF8047B704700BF0F
:1054B400C820002080B400AF054B1B689B7803F024
:1054C4000203DBB21846BD465DF8047B704700BF9B
:1054D400C820002080B400AF034B1B681846BD46AB
:1054E4005DF8047B704700BFC820002080B483B0FF
:1054F40000AF0346FB71054B1B68FA791A7000BFB5
:105504000C37BD465DF8047B704700BFCC200020FB
:1055140080B483B000AF0346FB71054B1B68FA7976
:105524001A7000BF0C37BD465DF8047B704700BF9E
:10553400D020002080B483B000AF0346FB80054B2D
:105544001B68FA881A8000BF0C37BD465DF8047BDF
:10555400704700BFD420002080B400AF034B1B6809
:105564001846BD465DF8047B704700BFD420002078
:1055740080B483B000AF0346FB80054B1B68FA88F8
:105584001A8000BF0C37BD465DF8047B704700BF2E
:10559400D820002080B483B000AF0346FB71054BD4
:1055A4001B68FA791A7000BF0C37BD465DF8047B9E
:1055B400704700BFDC20002080B483B000AF0346F6
:1055C400FB71054B1B68FA791A7000BF0C37BD4696
:1055D4005DF8047B704700BFE020002080B483B0F6
:1055E40000AF0346FB71054B1B68FA791A7000BFC4
:1055F4000C37BD465DF8047B704700BFE4200020F3
:1056040080B483B000AF0346FB71054B1B68FA7985
:105614001A7000BF0C37BD465DF8047B704700BFAD
:10562400E820002080B400AF034B1B681846BD4639
:105634005DF8047B704700BFE820002080B483B08D
:1056440000AF0346FB71054B1B68FA791A7000BF63
:105654000C37BD465DF8047B704700BFEC2000208A
:1056640080B483B000AF0346FB71054B1B68FA7925
:105674001A7000BF0C37BD465DF8047B704700BF4D
:10568400F020002080B483B000AF0346FB71054BCB
:105694001B68FA791A7000BF0C37BD465DF8047BAD
:1056A400704700BFF420002080B483B000AF0346ED
:1056B400FB71054B1B68FA791A7000BF0C37BD46A5
:1056C4005DF8047B704700BFF820002080B483B0ED
:1056D40000AF0346FB71054B1B68FA791A7000BFD3
:1056E4000C37BD465DF8047B704700BFFC200020EA
:1056F40080B483B000AF0346FB71054B1B68FA7995
:105704001A7000BF0C37BD465DF8047B704700BFBC
:105714000021002080B483B000AF0346FB71054B29
:105724001B68FA791A7000BF0C37BD465DF8047B1C
:10573400704700BF0421002080B483B000AF03464B
:10574400FB71054B1B68FA791A7000BF0C37BD4614
:105754005DF8047B704700BF0821002080B483B04B
:1057640000AF0346FB71054B1B68FA791A7000BF42
:105774000C37BD465DF8047B704700BF0C21002048
:1057840080B483B000AF0346FB71054B1B68FA7904
:105794001A7000BF0C37BD465DF8047B704700BF2C
:1057A4001021002080B483B000AF0346FB71054B89
:1057B4001B68FA791A7000BF0C37BD465DF8047B8C
:1057C400704700BF1421002080B483B000AF0346AB
:1057D400FB71054B1B68FA791A7000BF0C37BD4684
:1057E4005DF8047B704700BF1821002080B483B0AB
:1057F40000AF0346FB80054B1B68FA881A8000BF84
:105804000C37BD465DF8047B704700BF1C210020A7
:1058140080B483B000AF0346FB80054B1B68FA8855
:105824001A8000BF0C37BD465DF8047B704700BF8B
:105834002021002090B482B000AFC7E90001054BDD
:105844001A68D7E90034C2E9003400BF0837BD46FE
:1058540090BC70472421002080B483B000AF7860EE
:10586400044B1B687A681A6000BF0C37BD465DF8AC
:10587400047B70472821002080B483B000AF034626
:10588400FB71054B1B68FA791A7000BF0C37BD46D3
:105894005DF8047B704700BF2C21002080B483B0E6
:1058A40000AF0346FB71054B1B68FA791A7000BF01
:1058B4000C37BD465DF8047B704700BF30210020E3
:1058C40080B483B000AF0346FB71054B1B68FA79C3
:1058D4001A7000BF0C37BD465DF8047B704700BFEB
:1058E4003421002080B483B000AF0346FB71054B24
:1058F4001B68FA791A7000BF0C37BD465DF8047B4B
:10590400704700BF3821002080B483B000AF034645
:10591400FB71054B1B68FA791A7000BF0C37BD4642
:105924005DF8047B704700BF3C21002080B483B045
:1059340000AF0346FB71054B1B68FA791A7000BF70
:105944000C37BD465DF8047B704700BF4021002042
:1059540080B483B000AF0346FB71054B1B68FA7932
:105964001A7000BF0C37BD465DF8047B704700BF5A
:105974004421002080B483B000AF0346FB71054B83
:105984001B68FA791A7000BF0C37BD465DF8047BBA
:10599400704700BF4821002080B483B000AF0346A5
:1059A400FB71054B1B68FA791A7000BF0C37BD46B2
:1059B4005DF8047B704700BF4C21002080B483B0A5
:1059C40000AF0346FB71054B1B68FA791A7000BFE0
:1059D4000C37BD465DF8047B704700BF50210020A2
:1059E40080B483B000AF87ED010A054B1B687A6869
:1059F4001A6000BF0C37BD465DF8047B704700BFDA
:105A04005421002080B400AF034B1B681846BD46E8
:105A14005DF8047B704700BF5421002080B483B03C
:105A240000AF87ED010A054B1B687A681A6000BF56
:105A34000C37BD465DF8047B704700BF5821002039
:105A440080B483B000AF87ED010A054B1B687A6808
:105A54001A6000BF0C37BD465DF8047B704700BF79
:105A64005C21002080B483B000AF7860044B1B68D5
:105A74007A681A6000BF0C37BD465DF8047B704736
:105A84006021002080B483B000AF7860044B1B68B1
:105A94007A681A6000BF0C37BD465DF8047B704716
:105AA4006421002080B483B000AF7860044B1B688D
:105AB4007A681A6000BF0C37BD465DF8047B7047F6
:105AC4006821002080B483B000AF7860044B1B6869
:105AD4007A681A6000BF0C37BD465DF8047B7047D6
:105AE4006C21002080B483B000AF7860044B1B6845
:105AF4007A681A6000BF0C37BD465DF8047B7047B6
:105B04007021002080B483B000AF0346FB80054BB6
:105B14001B68FA881A8000BF0C37BD465DF8047B09
:105B2400704700BF7421002080B483B000AF0346E7
:105B3400FB80054B1B68FA881A8000BF0C37BD46F2
:105B44005DF8047B704700BF7821002080B483B0E7
:105B540000AF0346FB80054B1B68FA881A8000BF20
:105B64000C37BD465DF8047B704700BF7C210020E4
:105B740080B483B000AF0346FB80054B1B68FA88F2
:105B84001A8000BF0C37BD465DF8047B704700BF28
:105B94008021002080B483B000AF0346FB80054B16
:105BA4001B68FA881A8000BF0C37BD465DF8047B79
:105BB400704700BF8421002080B400AF034B1B68F2
:105BC4001846BD465DF8047B704700BF8421002061
:105BD40080B483B000AF0346FB80054B1B68FA8892
:105BE4001A8000BF0C37BD465DF8047B704700BFC8
:105BF4008821002080B400AF034B1B681846BD46C3
:105C04005DF8047B704700BF8821002080B483B016
:105C140000AF0346FB80054B1B68FA881A8000BF5F
:105C24000C37BD465DF8047B704700BF8C21002013
:105C340080B483B000AF0346FB80054B1B68FA8831
:105C44001A8000BF0C37BD465DF8047B704700BF67
:105C54009021002080B483B000AF0346FB80054B45
:105C64001B68FA881A8000BF0C37BD465DF8047BB8
:105C7400704700BF9421002080B483B000AF034676
:105C8400FB80054B1B68FA881A8000BF0C37BD46A1
:105C94005DF8047B704700BF9821002080B483B076
:105CA40000AF0346FB80054B1B68FA881A8000BFCF
:105CB4000C37BD465DF8047B704700BF9C21002073
:105CC40080B483B000AF0346FB80054B1B68FA88A1
:105CD4001A8000BF0C37BD465DF8047B704700BFD7
:105CE400A021002080B483B000AF0346FB80054BA5
:105CF4001B68FA881A8000BF0C37BD465DF8047B28
:105D0400704700BFA421002080B483B000AF0346D5
:105D1400FB80054B1B68FA881A8000BF0C37BD4610
:105D24005DF8047B704700BFA821002080B483B0D5
:105D340000AF0346FB80054B1B68FA881A8000BF3E
:105D44000C37BD465DF8047B704700BFAC210020D2
:105D540080B483B000AF0346FB80054B1B68FA8810
:105D64001A8000BF0C37BD465DF8047B704700BF46
:105D7400B021002080B483B000AF0346FB80054B04
:105D84001B68FA881A8000BF0C37BD465DF8047B97
:105D9400704700BFB421002080B483B000AF034635
:105DA400FB80054B1B68FA881A8000BF0C37BD4680
:105DB4005DF8047B704700BFB821002080B483B035
:105DC40000AF0346FB80054B1B68FA881A8000BFAE
:105DD4000C37BD465DF8047B704700BFBC21002032
:105DE40080B483B000AF0346FB80054B1B68FA8880
:105DF4001A8000BF0C37BD465DF8047B704700BFB6
:105E0400C021002080B483B000AF0346FB80054B63
:105E14001B68FA881A8000BF0C37BD465DF8047B06
:105E2400704700BFC421002080B483B000AF87ED69
:105E3400010A054B1B687A681A6000BF0C37BD461F
:105E44005DF8047B704700BFC821002080B483B094
:105E540000AF87ED010A054B1B687A681A6000BF22
:105E64000C37BD465DF8047B704700BFCC21002091
:105E740080B483B000AF87ED010A054B1B687A68D4
:105E84001A6000BF0C37BD465DF8047B704700BF45
:105E9400D021002080B483B000AF87ED010A054B08
:105EA4001B687A681A6000BF0C37BD465DF8047B36
:105EB400704700BFD421002080B483B000AF87EDC9
:105EC400010A054B1B687A681A6000BF0C37BD468F
:105ED4005DF8047B704700BFD821002080B483B0F4
:105EE40000AF87ED010A054B1B687A681A6000BF92
:105EF4000C37BD465DF8047B704700BFDC210020F1
:105F040080B483B000AF87ED010A054B1B687A6843
:105F14001A6000BF0C37BD465DF8047B704700BFB4
:105F2400E021002080B483B000AF87ED010A054B67
:105F34001B687A681A6000BF0C37BD465DF8047BA5
:105F4400704700BFE421002080B483B000AF87ED28
:105F5400010A054B1B687A681A6000BF0C37BD46FE
:105F64005DF8047B704700BFE821002080B483B053
:105F740000AF87ED010A054B1B687A681A6000BF01
:105F84000C37BD465DF8047B704700BFEC21002050
:105F940080B483B000AF87ED010A054B1B687A68B3
:105FA4001A6000BF0C37BD465DF8047B704700BF24
:105FB400F021002080B483B000AF87ED010A054BC7
:105FC4001B687A681A6000BF0C37BD465DF8047B15
:105FD400704700BFF421002080B483B000AF87ED88
:105FE400010A054B1B687A681A6000BF0C37BD466E
:105FF4005DF8047B704700BFF821002080B483B0B3
:1060040000AF87ED010A054B1B687A681A6000BF70
:106014000C37BD465DF8047B704700BFFC210020AF
:1060240080B483B000AF87ED010A054B1B687A6822
:106034001A6000BF0C37BD465DF8047B704700BF93
:106044000022002080B483B000AF87ED010A054B25
:106054001B687A681A6000BF0C37BD465DF8047B84
:10606400704700BF0422002080B483B000AF87EDE6
:10607400010A054B1B687A681A6000BF0C37BD46DD
:106084005DF8047B704700BF0822002080B483B011
:1060940000AF87ED010A054B1B687A681A6000BFE0
:1060A4000C37BD465DF8047B704700BF0C2200200E
:1060B40080B483B000AF87ED010A054B1B687A6892
:1060C4001A6000BF0C37BD465DF8047B704700BF03
:1060D4001022002080B483B000AF87ED010A054B85
:1060E4001B687A681A6000BF0C37BD465DF8047BF4
:1060F400704700BF1422002080B483B000AF87ED46
:10610400010A054B1B687A681A6000BF0C37BD464C
:106114005DF8047B704700BF1822002080B483B070
:1061240000AF87ED010A054B1B687A681A6000BF4F
:106134000C37BD465DF8047B704700BF1C2200206D
:1061440080B483B000AF87ED010A054B1B687A6801
:106154001A6000BF0C37BD465DF8047B704700BF72
:106164002022002080B483B000AF87ED010A054BE4
:106174001B687A681A6000BF0C37BD465DF8047B63
:10618400704700BF2422002080B483B000AF87EDA5
:10619400010A054B1B687A681A6000BF0C37BD46BC
:1061A4005DF8047B704700BF2822002080B483B0D0
:1061B40000AF87ED010A054B1B687A681A6000BFBF
:1061C4000C37BD465DF8047B704700BF2C220020CD
:1061D40080B483B000AF87ED010A054B1B687A6871
:1061E4001A6000BF0C37BD465DF8047B704700BFE2
:1061F4003022002080B483B000AF87ED010A054B44
:106204001B687A681A6000BF0C37BD465DF8047BD2
:10621400704700BF3422002080B483B000AF87ED04
:10622400010A054B1B687A681A6000BF0C37BD462B
:106234005DF8047B704700BF3822002080B483B02F
:1062440000AF87ED010A054B1B687A681A6000BF2E
:106254000C37BD465DF8047B704700BF3C2200202C
:1062640080B483B000AF87ED010A054B1B687A68E0
:106274001A6000BF0C37BD465DF8047B704700BF51
:106284004022002080B483B000AF87ED010A054BA3
:106294001B687A681A6000BF0C37BD465DF8047B42
:1062A400704700BF4422002080B483B000AF87ED64
:1062B400010A054B1B687A681A6000BF0C37BD469B
:1062C4005DF8047B704700BF4822002080B483B08F
:1062D40000AF87ED010A054B1B687A681A6000BF9E
:1062E4000C37BD465DF8047B704700BF4C2200208C
:1062F40080B483B000AF87ED010A054B1B687A6850
:106304001A6000BF0C37BD465DF8047B704700BFC0
:106314005022002080B483B000AF87ED010A054B02
:106324001B687A681A6000BF0C37BD465DF8047BB1
:10633400704700BF5422002080B483B000AF87EDC3
:10634400010A054B1B687A681A6000BF0C37BD460A
:106354005DF8047B704700BF5822002080B483B0EE
:1063640000AF87ED010A054B1B687A681A6000BF0D
:106374000C37BD465DF8047B704700BF5C220020EB
:1063840080B483B000AF87ED010A054B1B687A68BF
:106394001A6000BF0C37BD465DF8047B704700BF30
:1063A4006022002080B483B000AF87ED010A054B62
:1063B4001B687A681A6000BF0C37BD465DF8047B21
:1063C400704700BF6422002080B483B000AF87ED23
:1063D400010A054B1B687A681A6000BF0C37BD467A
:1063E4005DF8047B704700BF6822002080B483B04E
:1063F40000AF87ED010A054B1B687A681A6000BF7D
:106404000C37BD465DF8047B704700BF6C2200204A
:1064140080B483B000AF87ED010A054B1B687A682E
:106424001A6000BF0C37BD465DF8047B704700BF9F
:106434007022002080B483B000AF87ED010A054BC1
:106444001B687A681A6000BF0C37BD465DF8047B90
:10645400704700BF7422002080B483B000AF87ED82
:10646400010A054B1B687A681A6000BF0C37BD46E9
:106474005DF8047B704700BF7822002080B483B0AD
:1064840000AF87ED010A054B1B687A681A6000BFEC
:106494000C37BD465DF8047B704700BF7C220020AA
:1064A40080B483B000AF87ED010A054B1B687A689E
:1064B4001A6000BF0C37BD465DF8047B704700BF0F
:1064C4008022002080B483B000AF87ED010A054B21
:1064D4001B687A681A6000BF0C37BD465DF8047B00
:1064E400704700BF8422002080B483B000AF03460D
:1064F400FB80054B1B68FA881A8000BF0C37BD4629
:106504005DF8047B704700BF8822002080B483B00C
:1065140000AF0346FB80054B1B68FA881A8000BF56
:106524000C37BD465DF8047B704700BF8C22002009
:1065340080B400AF054B1B689B7803F00203DBB209
:106544001846BD465DF8047B704700BF8C220020CE
:1065540080B400AF034B1B681846BD465DF8047B4E
:10656400704700BF8C22002080B483B000AF034684
:10657400FB71054B1B68FA791A7000BF0C37BD46D6
:106584005DF8047B704700BF9022002080B483B084
:1065940000AF0346FB71054B1B68FA791A7000BF04
:1065A4000C37BD465DF8047B704700BF9422002081
:1065B40080B483B000AF0346FB80054B1B68FA88A8
:1065C4001A8000BF0C37BD465DF8047B704700BFDE
:1065D4009822002080B400AF034B1B681846BD46C8
:1065E4005DF8047B704700BF9822002080B483B01C
:1065F40000AF0346FB80054B1B68FA881A8000BF76
:106604000C37BD465DF8047B704700BF9C22002018
:1066140080B483B000AF0346FB71054B1B68FA7965
:106624001A7000BF0C37BD465DF8047B704700BF8D
:10663400A022002080B483B000AF0346FB71054B59
:106644001B68FA791A7000BF0C37BD465DF8047BED
:10665400704700BFA422002080B483B000AF03467B
:10666400FB71054B1B68FA791A7000BF0C37BD46E5
:106674005DF8047B704700BFA822002080B483B07B
:1066840000AF0346FB71054B1B68FA791A7000BF13
:106694000C37BD465DF8047B704700BFAC22002078
:1066A40080B400AF034B1B681846BD465DF8047BFD
:1066B400704700BFAC22002080B483B000AF034613
:1066C400FB71054B1B68FA791A7000BF0C37BD4685
:1066D4005DF8047B704700BFB022002080B483B013
:1066E40000AF0346FB71054B1B68FA791A7000BFB3
:1066F4000C37BD465DF8047B704700BFB422002010
:1067040080B483B000AF0346FB71054B1B68FA7974
:106714001A7000BF0C37BD465DF8047B704700BF9C
:10672400B822002080B483B000AF0346FB71054B50
:106734001B68FA791A7000BF0C37BD465DF8047BFC
:10674400704700BFBC22002080B483B000AF034672
:10675400FB71054B1B68FA791A7000BF0C37BD46F4
:106764005DF8047B704700BFC022002080B483B072
:1067740000AF0346FB71054B1B68FA791A7000BF22
:106784000C37BD465DF8047B704700BFC42200206F
:1067940080B483B000AF0346FB71054B1B68FA79E4
:1067A4001A7000BF0C37BD465DF8047B704700BF0C
:1067B400C822002080B483B000AF0346FB71054BB0
:1067C4001B68FA791A7000BF0C37BD465DF8047B6C
:1067D400704700BFCC22002080B483B000AF0346D2
:1067E400FB71054B1B68FA791A7000BF0C37BD4664
:1067F4005DF8047B704700BFD022002080B483B0D2
:1068040000AF0346FB71054B1B68FA791A7000BF91
:106814000C37BD465DF8047B704700BFD4220020CE
:1068240080B483B000AF0346FB71054B1B68FA7953
:106834001A7000BF0C37BD465DF8047B704700BF7B
:10684400D822002080B483B000AF0346FB71054B0F
:106854001B68FA791A7000BF0C37BD465DF8047BDB
:10686400704700BFDC22002080B483B000AF034631
:10687400FB80054B1B68FA881A8000BF0C37BD46A5
:106884005DF8047B704700BFE022002080B483B031
:1068940000AF0346FB80054B1B68FA881A8000BFD3
:1068A4000C37BD465DF8047B704700BFE42200202E
:1068B40090B482B000AFC7E90001054B1A68D7E96C
:1068C4000034C2E9003400BF0837BD4690BC7047AD
:1068D400E822002080B483B000AF7860044B1B68CA
:1068E4007A681A6000BF0C37BD465DF8047B7047B8
:1068F400EC22002080B483B000AF0346FB71054B4B
:106904001B68FA791A7000BF0C37BD465DF8047B2A
:10691400704700BFF022002080B483B000AF03466C
:10692400FB71054B1B68FA791A7000BF0C37BD4622
:106934005DF8047B704700BFF422002080B483B06C
:1069440000AF0346FB71054B1B68FA791A7000BF50
:106954000C37BD465DF8047B704700BFF822002069
:1069640080B483B000AF0346FB71054B1B68FA7912
:106974001A7000BF0C37BD465DF8047B704700BF3A
:10698400FC22002080B483B000AF0346FB71054BAA
:106994001B68FA791A7000BF0C37BD465DF8047B9A
:1069A400704700BF0023002080B483B000AF0346CB
:1069B400FB71054B1B68FA791A7000BF0C37BD4692
:1069C4005DF8047B704700BF0423002080B483B0CB
:1069D40000AF0346FB71054B1B68FA791A7000BFC0
:1069E4000C37BD465DF8047B704700BF08230020C8
:1069F40080B483B000AF0346FB71054B1B68FA7982
:106A04001A7000BF0C37BD465DF8047B704700BFA9
:106A14000C23002080B483B000AF0346FB71054B08
:106A24001B68FA791A7000BF0C37BD465DF8047B09
:106A3400704700BF1023002080B483B000AF03462A
:106A4400FB71054B1B68FA791A7000BF0C37BD4601
:106A54005DF8047B704700BF1423002080B483B02A
:106A640000AF87ED010A054B1B687A681A6000BF06
:106A74000C37BD465DF8047B704700BF1823002027
:106A840080B400AF034B1B681846BD465DF8047B19
:106A9400704700BF1823002080B483B000AF87ED97
:106AA400010A054B1B687A681A6000BF0C37BD46A3
:106AB4005DF8047B704700BF1C23002080B483B0C2
:106AC40000AF87ED010A054B1B687A681A6000BFA6
:106AD4000C37BD465DF8047B704700BF20230020BF
:106AE40080B483B000AF7860044B1B687A681A6086
:106AF40000BF0C37BD465DF8047B7047242300209B
:106B040080B483B000AF7860044B1B687A681A6065
:106B140000BF0C37BD465DF8047B70472823002076
:106B240080B483B000AF7860044B1B687A681A6045
:106B340000BF0C37BD465DF8047B70472C23002052
:106B440080B483B000AF7860044B1B687A681A6025
:106B540000BF0C37BD465DF8047B7047302300202E
:106B640080B483B000AF7860044B1B687A681A6005
:106B740000BF0C37BD465DF8047B7047342300200A
:106B840080B483B000AF0346FB80054B1B68FA88D2
:106B94001A8000BF0C37BD465DF8047B704700BF08
:106BA4003823002080B483B000AF0346FB80054B3C
:106BB4001B68FA881A8000BF0C37BD465DF8047B59
:106BC400704700BF3C23002080B483B000AF03466D
:106BD400FB80054B1B68FA881A8000BF0C37BD4642
:106BE4005DF8047B704700BF4023002080B483B06D
:106BF40000AF0346FB80054B1B68FA881A8000BF70
:106C04000C37BD465DF8047B704700BF4423002069
:106C140080B483B000AF0346FB80054B1B68FA8841
:106C24001A8000BF0C37BD465DF8047B704700BF77
:106C34004823002080B483B000AF0346FB80054B9B
:106C44001B68FA881A8000BF0C37BD465DF8047BC8
:106C5400704700BF4C23002080B483B000AF0346CC
:106C6400FB80054B1B68FA881A8000BF0C37BD46B1
:106C74005DF8047B704700BF5023002080B483B0CC
:106C840000AF0346FB80054B1B68FA881A8000BFDF
:106C94000C37BD465DF8047B704700BF54230020C9
:106CA40080B483B000AF0346FB80054B1B68FA88B1
:106CB4001A8000BF0C37BD465DF8047B704700BFE7
:106CC4005823002080B483B000AF0346FB80054BFB
:106CD4001B68FA881A8000BF0C37BD465DF8047B38
:106CE400704700BF5C23002080B483B000AF03462C
:106CF400FB80054B1B68FA881A8000BF0C37BD4621
:106D04005DF8047B704700BF6023002080B483B02B
:106D140000AF0346FB80054B1B68FA881A8000BF4E
:106D24000C37BD465DF8047B704700BF6423002028
:106D340080B483B000AF0346FB80054B1B68FA8820
:106D44001A8000BF0C37BD465DF8047B704700BF56
:106D54006823002080B483B000AF0346FB80054B5A
:106D64001B68FA881A8000BF0C37BD465DF8047BA7
:106D7400704700BF6C23002080B483B000AF03468B
:106D8400FB80054B1B68FA881A8000BF0C37BD4690
:106D94005DF8047B704700BF7023002080B483B08B
:106DA40000AF0346FB80054B1B68FA881A8000BFBE
:106DB4000C37BD465DF8047B704700BF7423002088
:106DC40080B483B000AF0346FB80054B1B68FA8890
:106DD4001A8000BF0C37BD465DF8047B704700BFC6
:106DE4007823002080B483B000AF0346FB80054BBA
:106DF4001B68FA881A8000BF0C37BD465DF8047B17
:106E0400704700BF7C23002080B483B000AF0346EA
:106E1400FB80054B1B68FA881A8000BF0C37BD46FF
:106E24005DF8047B704700BF8023002080B483B0EA
:106E340000AF7860044B1B687A681A6000BF0C3797
:106E4400BD465DF8047B70478423002080B483B082
:106E540000AF7860044B1B687A681A6000BF0C3777
:106E6400BD465DF8047B70478823002080B483B05E
:106E740000AF7860044B1B687A681A6000BF0C3757
:106E8400BD465DF8047B70478C23002080B483B03A
:106E940000AF7860044B1B687A681A6000BF0C3737
:106EA400BD465DF8047B70479023002080B483B016
:106EB40000AF7860044B1B687A681A6000BF0C3717
:106EC400BD465DF8047B70479423002080B483B0F2
:106ED40000AF7860044B1B687A681A6000BF0C37F7
:106EE400BD465DF8047B70479823002080B483B0CE
:106EF40000AF7860044B1B687A681A6000BF0C37D7
:106F0400BD465DF8047B70479C23002080B483B0A9
:106F140000AF7860044B1B687A681A6000BF0C37B6
:106F2400BD465DF8047B7047A023002080B483B085
:106F340000AF7860044B1B687A681A6000BF0C3796
:106F4400BD465DF8047B7047A423002080B483B061
:106F540000AF7860044B1B687A681A6000BF0C3776
:106F6400BD465DF8047B7047A823002080B483B03D
:106F740000AF7860044B1B687A681A6000BF0C3756
:106F8400BD465DF8047B7047AC23002080B483B019
:106F940000AF7860044B1B687A681A6000BF0C3736
:106FA400BD465DF8047B7047B023002080B483B0F5
:106FB40000AF7860044B1B687A681A6000BF0C3716
:106FC400BD465DF8047B7047B423002080B483B0D1
:106FD40000AF7860044B1B687A681A6000BF0C37F6
:106FE400BD465DF8047B7047B823002080B483B0AD
:106FF40000AF7860044B1B687A681A6000BF0C37D6
:10700400BD465DF8047B7047BC23002080B483B088
:1070140000AF7860044B1B687A681A6000BF0C37B5
:10702400BD465DF8047B7047C023002080B483B064
:1070340000AF0346FB80054B1B68FA881A8000BF2B
:107044000C37BD465DF8047B704700BFC4230020A5
:1070540080B483B000AF0346FB80054B1B68FA88FD
:107064001A8000BF0C37BD465DF8047B704700BF33
:10707400C823002080B483B000AF0346FB80054BD7
:107084001B68FA881A8000BF0C37BD465DF8047B84
:10709400704700BFCC23002080B483B000AF034608
:1070A400FB80054B1B68FA881A8000BF0C37BD466D
:1070B4005DF8047B704700BFD023002080B483B008
:1070C40000AF0346FB80054B1B68FA881A8000BF9B
:1070D4000C37BD465DF8047B704700BFD423002005
:1070E40080B483B000AF0346FB80054B1B68FA886D
:1070F4001A8000BF0C37BD465DF8047B704700BFA3
:10710400D823002080B483B000AF0346FB80054B36
:107114001B68FA881A8000BF0C37BD465DF8047BF3
:10712400704700BFDC23002080B483B000AF034667
:10713400FB80054B1B68FA881A8000BF0C37BD46DC
:107144005DF8047B704700BFE023002080B483B067
:1071540000AF0346FB80054B1B68FA881A8000BF0A
:107164000C37BD465DF8047B704700BFE423002064
:1071740080B483B000AF0346FB80054B1B68FA88DC
:107184001A8000BF0C37BD465DF8047B704700BF12
:10719400E823002080B483B000AF0346FB80054B96
:1071A4001B68FA881A8000BF0C37BD465DF8047B63
:1071B400704700BFEC23002080B483B000AF0346C7
:1071C400FB80054B1B68FA881A8000BF0C37BD464C
:1071D4005DF8047B704700BFF023002080B483B0C7
:1071E40000AF0346FB80054B1B68FA881A8000BF7A
:1071F4000C37BD465DF8047B704700BFF4230020C4
:1072040080B483B000AF0346FB80054B1B68FA884B
:107214001A8000BF0C37BD465DF8047B704700BF81
:10722400F823002080B483B000AF0346FB80054BF5
:107234001B68FA881A8000BF0C37BD465DF8047BD2
:10724400704700BFFC23002080B483B000AF034626
:10725400FB80054B1B68FA881A8000BF0C37BD46BB
:107264005DF8047B704700BF0024002080B483B025
:1072740000AF7860044B1B687A681A6000BF0C3753
:10728400BD465DF8047B70470424002080B400AF41
:10729400034B1B681846BD465DF8047B704700BF6E
:1072A4000424002090B482B000AFC7E90001054B6C
:1072B4001A68D7E90034C2E9003400BF0837BD4674
:1072C40090BC70470824002090B482B000AFC7E996
:1072D4000001054B1A68D7E90034C2E9003400BF45
:1072E4000837BD4690BC70470C24002090B482B08F
:1072F40000AFC7E90001054B1A68D7E90034C2E9B9
:10730400003400BF0837BD4690BC704710240020ED
:1073140090B482B000AFC7E90001054B1A68D7E901
:107324000034C2E9003400BF0837BD4690BC704742
:107334001424002090B482B000AFC7E90001054BCB
:107344001A68D7E90034C2E9003400BF0837BD46E3
:1073540090BC70471824002090B482B000AFC7E9F5
:107364000001054B1A68D7E90034C2E9003400BFB4
:107374000837BD4690BC70471C24002090B482B0EE
:1073840000AFC7E90001054B1A68D7E90034C2E928
:10739400003400BF0837BD4690BC7047202400204D
:1073A40090B482B000AFC7E90001054B1A68D7E971
:1073B4000034C2E9003400BF0837BD4690BC7047B2
:1073C4002424002090B482B000AFC7E90001054B2B
:1073D4001A68D7E90034C2E9003400BF0837BD4653
:1073E40090BC70472824002090B482B000AFC7E955
:1073F4000001054B1A68D7E90034C2E9003400BF24
:107404000837BD4690BC70472C24002090B482B04D
:1074140000AFC7E90001054B1A68D7E90034C2E997
:10742400003400BF0837BD4690BC704730240020AC
:1074340090B482B000AFC7E90001054B1A68D7E9E0
:107444000034C2E9003400BF0837BD4690BC704721
:107454003424002090B482B000AFC7E90001054B8A
:107464001A68D7E90034C2E9003400BF0837BD46C2
:1074740090BC70473824002090B482B000AFC7E9B4
:107484000001054B1A68D7E90034C2E9003400BF93
:107494000837BD4690BC70473C24002090B482B0AD
:1074A40000AFC7E90001054B1A68D7E90034C2E907
:1074B400003400BF0837BD4690BC7047402400200C
:1074C40090B482B000AFC7E90001054B1A68D7E950
:1074D4000034C2E9003400BF0837BD4690BC704791
:1074E4004424002080B483B000AF87ED010A054B2B
:1074F4001B687A681A6000BF0C37BD465DF8047BD0
:10750400704700BF4824002080B483B000AF87EDEB
:10751400010A054B1B687A681A6000BF0C37BD4628
:107524005DF8047B704700BF4C24002080B483B016
:1075340000AF87ED010A054B1B687A681A6000BF2B
:107544000C37BD465DF8047B704700BF5024002013
:1075540080B483B000AF87ED010A054B1B687A68DD
:107564001A6000BF0C37BD465DF8047B704700BF4E
:107574005424002080B483B000AF87ED010A054B8A
:107584001B687A681A6000BF0C37BD465DF8047B3F
:10759400704700BF5824002080B483B000AF87ED4B
:1075A400010A054B1B687A681A6000BF0C37BD4698
:1075B4005DF8047B704700BF5C24002080B483B076
:1075C40000AF87ED010A054B1B687A681A6000BF9B
:1075D4000C37BD465DF8047B704700BF6024002073
:1075E40080B483B000AF87ED010A054B1B687A684D
:1075F4001A6000BF0C37BD465DF8047B704700BFBE
:107604006424002080B483B000AF87ED010A054BE9
:107614001B687A681A6000BF0C37BD465DF8047BAE
:10762400704700BF6824002080B483B000AF87EDAA
:10763400010A054B1B687A681A6000BF0C37BD4607
:107644005DF8047B704700BF6C24002080B483B0D5
:1076540000AF87ED010A054B1B687A681A6000BF0A
:107664000C37BD465DF8047B704700BF70240020D2
:1076740080B483B000AF87ED010A054B1B687A68BC
:107684001A6000BF0C37BD465DF8047B704700BF2D
:107694007424002080B483B000AF87ED010A054B49
:1076A4001B687A681A6000BF0C37BD465DF8047B1E
:1076B400704700BF7824002080B483B000AF87ED0A
:1076C400010A054B1B687A681A6000BF0C37BD4677
:1076D4005DF8047B704700BF7C24002080B483B035
:1076E40000AF87ED010A054B1B687A681A6000BF7A
:1076F4000C37BD465DF8047B704700BF8024002032
:1077040080B483B000AF87ED010A054B1B687A682B
:107714001A6000BF0C37BD465DF8047B704700BF9C
:107724008424002080B483B000AF0346FB80054B63
:107734001B68FA881A8000BF0C37BD465DF8047BCD
:10774400704700BF8824002090B5ADF2E46D00AF0F
:10775400002387F8DF360123C7F8D836D7F8D806D0
:10776400FAF7CEF8A14B1B68A04A1268127942F0CE
:107774000402D2B21A719E4B1B689E4A13609D4B41
:107784001B795AB297F8DF36002B01D0042300E0AE
:10779400002313435BB2DAB2964B1A710023C7F885
:1077A400D436D7F8D406FAF7D7F8934B1B68924A25
:1077B4001268127951B297F8DF26002A01D0042208
:1077C40000E000220A4352B2D2B21A718B4B1B68FA
:1077D4008B4A13608A4B1B795AB297F8DF36002B19
:1077E40001D0042300E0002313435BB2DAB2844BDC
:1077F4001A710023C7F8D036D7F8D006FAF7DAF8AA
:10780400804B1B687F4A1268127951B297F8DF26C1
:10781400002A01D0042200E000220A4352B2D2B26C
:107824001A71794B1B68794A1360784B1B795AB2E9
:1078340097F8DF36002B01D0042300E00023134324
:107844005BB2DAB2714B1A710023C7F8CC36D7F8A1
:10785400CC06FAF7DDF86E4B1B686D4A1268127994
:1078640051B297F8DF26002A01D0042200E000225A
:107874000A4352B2D2B21A71664B1B68664A13604D
:10788400654B1B795AB297F8DF36002B01D00423DD
:1078940000E0002313435BB2DAB25F4B1A7100239A
:1078A400C7F8C836D7F8C806FAF7E0F85B4B1B6888
:1078B4005A4A1268127951B297F8DF26002A01D089
:1078C400042200E000220A4352B2D2B21A71544B8D
:1078D4001B68544A1360534B1B795AB297F8DF362E
:1078E400002B01D0042300E0002313435BB2DAB27F
:1078F4004C4B1A710023C7F8C436D7F8C406FAF7FC
:10790400E3F8494B1B68484A1268127951B297F858
:10791400DF26002A01D0042200E000220A4352B2EA
:10792400D2B21A71414B1B68414A1360404B1B7918
:107934005AB297F8DF36002B01D0042300E000236D
:1079440013435BB2DAB23A4B1A710023C7F8C0365C
:10795400D7F8C006FAF7CAF8364B1B68354A1268DE
:10796400127951B297F8DF26002A01D0042200E0F0
:1079740000220A4352B2D2B21A712F4B1B682F4A0B
:1079840013602E4B1B795AB297F8DF36002B01D0C7
:10799400042300E0002313435BB2DAB2274B1A71CD
:1079A4000023C7F8BC36D7F8BC06FAF7B1F8244B65
:1079B4001B68234A1268127951B297F8DF26002A0D
:1079C40001D0042200E000220A4352B2D2B21A715A
:1079D4001C4B1B681C4A13601B4B1B795AB297F84B
:1079E400DF36002B32D0042331E000BF681B0020B7
:1079F400543A0020A82B00206C1B0020583A002089
:107A0400B42B0020701B00205C3A0020C02B002007
:107A1400741B0020603A0020CC2B0020781B00202F
:107A2400643A0020D82B00207C1B0020683A0020F8
:107A3400E42B0020801B00206C3A0020F02B002057
:107A4400841B0020703A0020FC2B002000231343E9
:107A54005BB2DAB2A24B1A710023C7F8B836D7F872
:107A6400B806FAF767F89F4B1B689E4A12681279AA
:107A740051B297F8DF26002A01D0042200E0002248
:107A84000A4352B2D2B21A71974B1B68974A1360D9
:107A9400964B1B795AB297F8DF36002B01D004239A
:107AA40000E0002313435BB2DAB2904B1A71002357
:107AB400C7F8B436D7F8B406FAF74EF88C4B1B68FF
:107AC4008B4A1268127951B297F8DF26002A01D046
:107AD400042200E000220A4352B2D2B21A71854B4A
:107AE4001B68854A1360844B1B795AB297F8DF36BA
:107AF400002B01D0042300E0002313435BB2DAB26D
:107B04007D4B1A710023C7F8B036D7F8B006FAF7E0
:107B140035F87A4B1B68794A1268127951B297F892
:107B2400DF26002A01D0042200E000220A4352B2D8
:107B3400D2B21A71724B1B68724A1360714B1B7973
:107B44005AB297F8DF36002B01D0042300E000235B
:107B540013435BB2DAB26B4B1A710023C7F8AC362D
:107B6400D7F8AC06FAF71CF8674B1B68664A12682C
:107B7400127951B297F8DF26002A01D0042200E0DE
:107B840000220A4352B2D2B21A71604B1B68604A97
:107B940013605F4B1B795AB297F8DF36002B01D084
:107BA400042300E0002313435BB2DAB2584B1A718A
:107BB4000023C7F8A836D7F8A806FAF703F8554BF8
:107BC4001B68544A1268127951B297F8DF26002ACA
:107BD40001D0042200E000220A4352B2D2B21A7148
:107BE4004D4B1B684D4A13604C4B1B795AB297F8A6
:107BF400DF36002B01D0042300E0002313435BB2E3
:107C0400DAB2464B1A710723A7F8A636B7F8A63698
:107C14001846F9F7E9FF424B1B68414A126812798A
:107C240051B297F8DF26002A01D0042200E0002296
:107C34000A4352B2D2B21A713A4B1B683A4A1360E1
:107C4400394B1B795AB297F8DF36002B01D0042345
:107C540000E0002313435BB2DAB2334B1A710723FB
:107C6400A7F8A436B7F8A4361846F9F7CFFF2F4B78
:107C74001B682E4A1268127951B297F8DF26002A3F
:107C840001D0042200E000220A4352B2D2B21A7197
:107C9400274B1B68274A1360264B1B795AB297F867
:107CA400DF36002B01D0042300E0002313435BB232
:107CB400DAB2204B1A710723A7F8A236B7F8A23616
:107CC4001846F9F7B5FF1C4B1B681B4A126812795A
:107CD40051B297F8DF26002A30D004222FE000BFEB
:107CE400FC2B0020881B0020743A0020082C002064
:107CF4008C1B0020783A0020142C0020901B0020BC
:107D04007C3A0020202C0020941B0020803A002084
:107D14002C2C0020981B0020843A0020382C0020B2
:107D24009C1B0020883A0020402C0020A01B00202F
:107D34008C3A0020482C0020A41B002000220A4377
:107D440052B2D2B21A71AA4B1B68AA4A1360A94B49
:107D54001B795AB297F8DF36002B01D0042300E0D8
:107D6400002313435BB2DAB2A24B1A710723A7F8BC
:107D7400A036B7F8A0361846F9F76CFF9E4B1B687F
:107D84009D4A1268127951B297F8DF26002A01D071
:107D9400042200E000220A4352B2D2B21A710A232A
:107DA400A7F89E36B7F89E361846F9F765FF934B49
:107DB4001B68924A1268927851B297F8DF26002A1B
:107DC40001D0042200E000220A4352B2D2B29A70D7
:107DD4000B23A7F89C36B7F89C361846F9F76AFFC8
:107DE400874B1B68864A1268927851B297F8DF264F
:107DF400002A01D0042200E000220A4352B2D2B287
:107E04009A700C23A7F89A36B7F89A361846F9F7F9
:107E14006FFF7C4B1B687B4A1268927851B297F8CB
:107E2400DF26002A01D0042200E000220A4352B2D5
:107E3400D2B29A700D23A7F89836B7F89836184638
:107E4400F9F774FF704B1B686F4A1268927851B24D
:107E540097F8DF26002A01D0042200E000220A431A
:107E640052B2D2B29A700E23A7F89636B7F8963665
:107E74001846F9F779FF654B1B68644A12689278D3
:107E840051B297F8DF26002A01D0042200E0002234
:107E94000A4352B2D2B29A700023A7F89436B7F8C4
:107EA40094361846F9F77EFF594B1B68584A1268F6
:107EB400927851B297F8DF26002A01D0042200E01C
:107EC40000220A4352B2D2B29A700023A7F8923623
:107ED400B7F892361846F9F793FF4E4B1B684D4A94
:107EE4001268927851B297F8DF26002A01D0042252
:107EF40000E000220A4352B2D2B29A700023A7F8DB
:107F04009036B7F890361846F9F7A8FF424B1B682D
:107F1400414A1268927851B297F8DF26002A01D0BC
:107F2400042200E000220A4352B2D2B29A70002323
:107F3400A7F88E36B7F88E361846F9F7BDFF374BDB
:107F44001B68364A1268927851B297F8DF26002AE5
:107F540001D0042200E000220A4352B2D2B29A7045
:107F64000023A7F88C36B7F88C361846F9F7D2FFF9
:107F74002B4B1B682A4A1268927851B297F8DF2675
:107F8400002A01D0042200E000220A4352B2D2B2F5
:107F94009A7042F21073A7F88A36B7F88A361846F0
:107FA400F9F7E6FF1F4B1B681E4A1268927851B21C
:107FB40097F8DF26002A01D0042200E000220A43B9
:107FC40052B2D2B29A7042F21073A7F88836B7F858
:107FD40088361846F9F7EAFF134B1B68124A1268F1
:107FE400927851B297F8DF26002A1FD004221EE0AF
:107FF400903A0020502C0020A81B0020AC1B00202D
:10800400B01B0020B41B0020B81B0020BC1B0020A8
:10801400C01B0020C41B0020C81B0020CC1B002058
:10802400D01B0020D41B0020D81B002000220A43B0
:1080340052B2D2B29A7042F21073A7F88636B7F8E9
:1080440086361846F9F7D0FFAB4B1B68AA4A12686C
:10805400927851B297F8DF26002A01D0042200E07A
:1080640000220A4352B2D2B29A7042F21073A7F8B5
:108074008436B7F884361846F9F7D4FF9F4B1B684B
:108084009E4A1268927851B297F8DF26002A01D0EE
:10809400042200E000220A4352B2D2B29A70BB23F7
:1080A400A7F88236B7F882361846F9F7D9FF944B09
:1080B4001B68934A1268927851B297F8DF26002A17
:1080C40001D0042200E000220A4352B2D2B29A70D4
:1080D4000B23A7F88036B7F880361846F9F7DEFF89
:1080E400884B1B68874A1268927851B297F8DF264A
:1080F400002A01D0042200E000220A4352B2D2B284
:108104009A704FF0000307F27C62136007F27C63FD
:1081140093ED000AF9F7E0FF7B4B1B687A4A12687B
:10812400127951B297F8DF26002A01D0042200E028
:1081340000220A4352B2D2B21A714FF0000307F57B
:10814400CF62136007F5CF6393ED000AF9F7F2FFEE
:108154006E4B1B686D4A1268127951B297F8DF268C
:10816400002A01D0042200E000220A4352B2D2B213
:108174001A710023A7F87636B7F876361846FAF758
:1081840007F8634B1B68624A1268927851B297F8F9
:10819400DF26002A01D0042200E000220A4352B262
:1081A400D2B29A700023A7F87436B7F8743618461A
:1081B400FAF71CF8574B1B68564A1268927851B26A
:1081C40097F8DF26002A01D0042200E000220A43A7
:1081D40052B2D2B29A70002387F8733697F8733686
:1081E4001846FAF731F84C4B1B684B4A1268527820
:1081F40051B297F8DF26002A01D0042200E00022C1
:108204000A4352B2D2B25A700023C7F86C36D7F878
:108214006C06FAF747F8414B1B68404A126812791A
:1082240051B297F8DF26002A01D0042200E0002290
:108234000A4352B2D2B21A710023C7F86836D7F88B
:108244006806FAF75BF8364B1B68354A12681279F0
:1082540051B297F8DF26002A01D0042200E0002260
:108264000A4352B2D2B21A7146F27763A7F866365D
:10827400B7F866361846FAF76DF82A4B1B68294A90
:108284001268927851B297F8DF26002A01D00422AE
:1082940000E000220A4352B2D2B29A700023A7F837
:1082A4006436B7F864361846FAF772F81E4B1B6842
:1082B4001D4A1268927851B297F8DF26002A01D03D
:1082C400042200E000220A4352B2D2B29A70002380
:1082D400A7F86236B7F862361846FAF787F8134BF0
:1082E4001B68124A1268927851B297F8DF26002A66
:1082F4001ED004221DE000BFDC1B0020E01B002078
:10830400E41B0020E81B0020EC1B0020F01B0020D5
:10831400F41B0020F81B0020FC1B0020001C002084
:10832400041C0020081C00200C1C0020101C002031
:1083340000220A4352B2D2B29A700023A7F86036E0
:10834400B7F860361846FAF77FF8AF4B1B68AE4AA9
:108354001268927851B297F8DF26002A01D00422DD
:1083640000E000220A4352B2D2B29A700023A7F866
:108374005E36B7F85E361846FAF794F8A34B1B68D6
:10838400A24A1268927851B297F8DF26002A01D0E7
:10839400042200E000220A4352B2D2B29A700023AF
:1083A400A7F85C36B7F85C361846FAF7A9F8984B84
:1083B4001B68974A1268927851B297F8DF26002A10
:1083C40001D0042200E000220A4352B2D2B29A70D1
:1083D4000523A7F85A36B7F85A361846FAF7BEF8FE
:1083E4008C4B1B688B4A1268927851B297F8DF263F
:1083F400002A01D0042200E000220A4352B2D2B281
:108404009A700323A7F85836B7F858361846FAF77F
:10841400C3F8814B1B68804A1268927851B297F86E
:10842400DF26002A01D0042200E000220A4352B2CF
:10843400D2B29A704FF000034FF0000407F5CA62FD
:10844400C2E9003407F5CA63D3E90001FAF7C2F8B8
:10845400724B1B68714A1268127A51B297F8DF2680
:10846400002A01D0042200E000220A4352B2D2B210
:108474001A724FF0000307F24C62136007F24C6368
:1084840093ED000AFAF7D4F8654B1B68644A126846
:10849400127951B297F8DF26002A01D0042200E0B5
:1084A40000220A4352B2D2B21A710023C7F84836E6
:1084B400D7F84806FAF7EAF85A4B1B68594A126883
:1084C400127951B297F8DF26002A01D0042200E085
:1084D40000220A4352B2D2B21A71002387F84736F7
:1084E40097F847361846FAF7FDF84F4B1B684E4A83
:1084F4001268527851B297F8DF26002A01D004227C
:1085040000E000220A4352B2D2B25A700823A7F8FC
:108514004436B7F844361846FAF712F9434B1B6849
:10852400424A1268927851B297F8DF26002A01D0A5
:10853400042200E000220A4352B2D2B29A70062307
:10854400A7F84236B7F842361846FAF717F9384B07
:108554001B68374A1268927851B297F8DF26002ACE
:1085640001D0042200E000220A4352B2D2B29A702F
:108574000B23A7F84036B7F840361846FAF71CF92B
:108584002C4B1B682B4A1268927851B297F8DF265D
:10859400002A01D0042200E000220A4352B2D2B2DF
:1085A4009A706423A7F83E36B7F83E361846FAF7B1
:1085B40021F9214B1B68204A1268927851B297F82E
:1085C400DF26002A01D0042200E000220A4352B22E
:1085D400D2B29A704FF000034FF0000407F5C66260
:1085E400C2E9003407F5C663D3E90001FAF720F9BC
:1085F400124B1B68114A1268127A51B297F8DF269F
:10860400002A1DD004221CE0141C0020181C002089
:108614001C1C0020201C0020241C0020281C0020DE
:108624002C1C0020301C0020341C0020381C00208E
:108634003C1C0020401C0020441C0020481C00203E
:1086440000220A4352B2D2B21A724FF000034FF022
:10865400000407F5C562C2E9003407F5C563D3E930
:108664000001FAF713F9AB4B1B68AA4A1268127A95
:1086740051B297F8DF26002A01D0042200E000223C
:108684000A4352B2D2B21A724FF000034FF0000400
:1086940007F5C462C2E9003407F5C463D3E90001F5
:1086A400FAF722F99C4B1B689B4A1268127A51B262
:1086B40097F8DF26002A01D0042200E000220A43B2
:1086C40052B2D2B21A72002387F81F3697F81F36B7
:1086D4001846FAF737F9914B1B68904A126852789A
:1086E40051B297F8DF26002A01D0042200E00022CC
:1086F4000A4352B2D2B25A70002387F81E3697F852
:108704001E361846FAF73CF9854B1B68844A1268F2
:10871400527851B297F8DF26002A01D0042200E0F3
:1087240000220A4352B2D2B25A700023A7F81C3670
:10873400B7F81C361846FAF741F97A4B1B68794AA0
:108744001268927851B297F8DF26002A01D00422E9
:1087540000E000220A4352B2D2B29A700023A7F872
:108764001A36B7F81A361846FAF756F96E4B1B68DC
:108774006D4A1268927851B297F8DF26002A01D028
:10878400042200E000220A4352B2D2B29A700023BB
:10879400A7F81836B7F818361846FAF74FF9634BA6
:1087A4001B68624A1268927851B297F8DF26002A51
:1087B40001D0042200E000220A4352B2D2B29A70DD
:1087C4000023A7F81636B7F816361846FAF748F90C
:1087D400574B1B68564A1268927851B297F8DF26B5
:1087E400002A01D0042200E000220A4352B2D2B28D
:1087F4009A700023A7F81436B7F814361846FAF717
:1088040041F94C4B1B684B4A1268927851B297F865
:10881400DF26002A01D0042200E000220A4352B2DB
:10882400D2B29A700023A7F81236B7F81236184657
:10883400FAF73AF9404B1B683F4A1268927851B2F2
:1088440097F8DF26002A01D0042200E000220A4320
:1088540052B2D2B29A700023A7F81036B7F8103685
:108864001846FAF733F9354B1B68344A1268927884
:1088740051B297F8DF26002A01D0042200E000223A
:108884000A4352B2D2B29A700023A7F80E36B7F850
:108894000E361846FAF72CF9294B1B68284A126839
:1088A400927851B297F8DF26002A01D0042200E022
:1088B40000220A4352B2D2B29A70002387F80D36CE
:1088C40097F80D361846FAF725F91E4B1B681D4A12
:1088D4001268527851B297F8DF26002A01D0042298
:1088E40000E000220A4352B2D2B25A70002387F841
:1088F4000C3697F80C361846FAF71EF9124B1B681B
:10890400114A1268527851B297F8DF26002A1DD016
:1089140004221CE04C1C0020501C0020541C00208D
:10892400581C00205C1C0020601C0020641C0020DB
:10893400681C00206C1C0020701C0020741C00208B
:10894400781C00207C1C0020801C002000220A438C
:1089540052B2D2B25A700023A7F80A36B7F80A36D0
:108964001846FAF707F9A84B1B68A74A12689278C9
:1089740051B297F8DF26002A01D0042200E0002239
:108984000A4352B2D2B29A700023A7F80836B7F855
:1089940008361846FAF71CF99C4B1B689B4A126868
:1089A400927851B297F8DF26002A01D0042200E021
:1089B40000220A4352B2D2B29A700023A7F80636B4
:1089C400B7F806361846FAF715F9914B1B68904A22
:1089D4001268927851B297F8DF26002A01D0042257
:1089E40000E000220A4352B2D2B29A700023A7F8E0
:1089F4000436B7F804361846FAF70EF9854B1B68A7
:108A0400844A1268927851B297F8DF26002A01D07E
:108A1400042200E000220A4352B2D2B29A70002328
:108A2400A7F80236B7F802361846FAF707F97A4B70
:108A34001B68794A1268927851B297F8DF26002AA7
:108A440001D0042200E000220A4352B2D2B29A704A
:108A54000023A7F80036B7F800361846FAF700F9ED
:108A64006E4B1B686D4A1268927851B297F8DF26F4
:108A7400002A01D0042200E000220A4352B2D2B2FA
:108A84009A700023A7F8FE35B7F8FE351846FAF7B2
:108A9400F9F8634B1B68624A1268927851B297F8EE
:108AA400DF26002A01D0042200E000220A4352B249
:108AB400D2B29A700023A7F8FC35B7F8FC351846F3
:108AC400FAF7F2F8574B1B68564A1268927851B27B
:108AD40097F8DF26002A01D0042200E000220A438E
:108AE40052B2D2B29A700023A7F8FA35B7F8FA3521
:108AF4001846FAF7EBF84C4B1B684B4A126892780D
:108B040051B297F8DF26002A01D0042200E00022A7
:108B14000A4352B2D2B29A700023A7F8F835B7F8D4
:108B2400F8351846FAF7E4F8404B1B683F4A1268D8
:108B3400927851B297F8DF26002A01D0042200E08F
:108B440000220A4352B2D2B29A700023A7F8F63533
:108B5400B7F8F6351846FAF7DDF8354B1B68344A92
:108B64001268927851B297F8DF26002A01D00422C5
:108B740000E000220A4352B2D2B29A700023A7F84E
:108B8400F435B7F8F4351846FAF7D6F8294B1B68CC
:108B9400284A1268927851B297F8DF26002A01D049
:108BA400042200E000220A4352B2D2B29A70002397
:108BB400A7F8F235B7F8F2351846FAF7CFF81E4B96
:108BC4001B681D4A1268927851B297F8DF26002A72
:108BD40001D0042200E000220A4352B2D2B29A70B9
:108BE4000023A7F8F035B7F8F0351846FAF7C8F8B7
:108BF400124B1B68114A1268927851B297F8DF261B
:108C0400002A1DD004221CE0841C0020881C0020A3
:108C14008C1C0020901C0020941C0020981C002018
:108C24009C1C0020A01C0020A41C0020A81C0020C8
:108C3400AC1C0020B01C0020B41C0020B81C002078
:108C440000220A4352B2D2B29A700023A7F8EE353A
:108C5400B7F8EE351846FAF7A5F8AC4B1B68AB4AE3
:108C64001268927851B297F8DF26002A01D00422C4
:108C740000E000220A4352B2D2B29A700023A7F84D
:108C8400EC35B7F8EC351846FAF79EF8A04B1B689C
:108C94009F4A1268927851B297F8DF26002A01D0D1
:108CA400042200E000220A4352B2D2B29A70002396
:108CB400A7F8EA35B7F8EA351846FAF797F8954B66
:108CC4001B68944A1268927851B297F8DF26002AFA
:108CD40001D0042200E000220A4352B2D2B29A70B8
:108CE4000023A7F8E835B7F8E8351846FAF790F8FE
:108CF400894B1B68884A1268927851B297F8DF262C
:108D0400002A01D0042200E000220A4352B2D2B267
:108D14009A700023A7F8E635B7F8E6351846FAF74F
:108D240089F87E4B1B687D4A1268927851B297F895
:108D3400DF26002A01D0042200E000220A4352B2B6
:108D4400D2B29A700023A7F8E435B7F8E435184690
:108D5400FAF782F8724B1B68714A1268927851B222
:108D640097F8DF26002A01D0042200E000220A43FB
:108D740052B2D2B29A700023A7F8E235B7F8E235BE
:108D84001846FAF77BF8674B1B68664A12689278B4
:108D940051B297F8DF26002A01D0042200E0002215
:108DA4000A4352B2D2B29A7007F5BC6300221A8009
:108DB40007F5BC631B881846FAF772F85A4B1B6810
:108DC400594A1268927851B297F8DF26002A01D0E6
:108DD400042200E000220A4352B2D2B29A7007F28F
:108DE400DC5300221A6007F2DC531868FAF76AF8B9
:108DF4004E4B1B684D4A1268127951B297F8DF2620
:108E0400002A01D0042200E000220A4352B2D2B266
:108E14001A7107F5BB6300221A6007F5BB63186873
:108E2400FAF760F8424B1B68414A1268127951B252
:108E340097F8DF26002A01D0042200E000220A432A
:108E440052B2D2B21A7107F2D45300221A6007F256
:108E5400D4531868FAF756F8364B1B68354A12682B
:108E6400127951B297F8DF26002A01D0042200E0DB
:108E740000220A4352B2D2B21A7107F5BA63002231
:108E84001A6007F5BA631868FAF74CF82A4B1B689E
:108E9400294A1268127951B297F8DF26002A01D0C4
:108EA400042200E000220A4352B2D2B21A7107F23D
:108EB400CC5300221A6007F2CC531868FAF742F830
:108EC4001E4B1B681D4A1268127951B297F8DF26AF
:108ED400002A01D0042200E000220A4352B2D2B296
:108EE4001A7107F5B96300221A6007F5B9631868A7
:108EF400FAF738F8124B1B68114A1268127951B20A
:108F040097F8DF26002A1DD004221CE0BC1C002098
:108F1400C01C0020C41C0020C81C0020CC1C002045
:108F2400D01C0020D41C0020D81C0020DC1C0020F5
:108F3400E01C0020E41C0020E81C0020EC1C0020A5
:108F4400F01C002000220A4352B2D2B21A7107F276
:108F5400C45300221A6007F2C4531868FAF712F8CF
:108F6400A34B1B68A24A1268127951B297F8DF2604
:108F7400002A01D0042200E000220A4352B2D2B2F5
:108F84001A7107F5B86300221A6007F5B863186808
:108F9400FAF708F8974B1B68964A1268127951B28F
:108FA40097F8DF26002A01D0042200E000220A43B9
:108FB40052B2D2B21A7107F2BC5300221A6007F2FD
:108FC400BC531868F9F7FEFF8B4B1B688A4A12687A
:108FD400127951B297F8DF26002A01D0042200E06A
:108FE40000220A4352B2D2B21A7107F5B7630022C3
:108FF4001A6007F5B7631868F9F7F4FF7F4B1B682D
:109004007E4A1268127951B297F8DF26002A01D0FD
:10901400042200E000220A4352B2D2B21A7107F2CB
:10902400B45300221A6007F2B4531868F9F7EAFF40
:10903400734B1B68724A1268127951B297F8DF2693
:10904400002A01D0042200E000220A4352B2D2B224
:109054001A7107F5B66300221A6007F5B66318683B
:10906400F9F7E0FF674B1B68664A1268127951B240
:1090740097F8DF26002A01D0042200E000220A43E8
:1090840052B2D2B21A7107F2AC5300221A6007F23C
:10909400AC531868F9F7D6FF5B4B1B685A4A126841
:1090A400127951B297F8DF26002A01D0042200E099
:1090B40000220A4352B2D2B21A7107F5B5630022F4
:1090C4001A6007F5B5631868F9F7CCFF4F4B1B68B6
:1090D4004E4A1268127951B297F8DF26002A01D05D
:1090E400042200E000220A4352B2D2B21A7107F2FB
:1090F400A45300221A6007F2A4531868F9F7C2FFB8
:10910400434B1B68424A1268127951B297F8DF2622
:10911400002A01D0042200E000220A4352B2D2B253
:109124001A7107F5B46300221A6007F5B46318686E
:10913400F9F7B8FF374B1B68364A1268127951B2F7
:1091440097F8DF26002A01D0042200E000220A4317
:1091540052B2D2B21A7107F29E5300221A8007F259
:109164009E531B881846F9F7ADFF2B4B1B682A4A00
:109174001268927851B297F8DF26002A01D00422AF
:1091840000E000220A4352B2D2B29A7007F29C5312
:1091940000221A8007F29C531B881846F9F7A4FF93
:1091A4001E4B1B681D4A1268927851B297F8DF264D
:1091B400002A01D0042200E000220A4352B2D2B2B3
:1091C4009A7007F29A5300221A8007F29A531B8866
:1091D4001846F9F79BFF124B1B68114A12689278E4
:1091E40051B297F8DF26002A1CD004221BE000BFEE
:1091F400F41C0020F81C0020FC1C0020001D002092
:10920400041D0020081D00200C1D0020101D00203E
:10921400141D0020181D00201C1D0020201D0020EE
:10922400241D002000220A4352B2D2B29A7007F5DC
:10923400B36300221A8007F5B3631B881846F9F755
:1092440077FFA84B1B68A74A1268927851B297F827
:10925400DF26002A01D0042200E000220A4352B291
:10926400D2B29A7007F2965300221A8007F29653EC
:109274001B881846F9F76EFF9B4B1B689A4A1268C5
:10928400927851B297F8DF26002A01D0042200E038
:1092940000220A4352B2D2B29A7007F294530022C7
:1092A4001A8007F294531B881846F9F765FF8F4B11
:1092B4001B688E4A1268927851B297F8DF26002A0A
:1092C40001D0042200E000220A4352B2D2B29A70C2
:1092D40007F2925300221A8007F292531B88184611
:1092E400F9F75CFF824B1B68814A1268927851B28D
:1092F40097F8DF26002A01D0042200E000220A4366
:1093040052B2D2B29A7007F5B26300221A8007F5FE
:10931400B2631B881846F9F753FF764B1B68754AEE
:109324001268927851B297F8DF26002A01D00422FD
:1093340000E000220A4352B2D2B29A7007F28E536E
:1093440000221A8007F28E531B881846F9F74AFF49
:10935400694B1B68684A1268927851B297F8DF2605
:10936400002A01D0042200E000220A4352B2D2B201
:109374009A7007F28C5300221A8007F28C531B88D0
:109384001846F9F741FF5D4B1B685C4A12689278F6
:1093940051B297F8DF26002A01D0042200E000220F
:1093A4000A4352B2D2B29A7007F28A5300221A8048
:1093B40007F28A531B881846F9F738FF504B1B688D
:1093C4004F4A1268927851B297F8DF26002A01D0EA
:1093D400042200E000220A4352B2D2B29A7007F586
:1093E400B16300221A8007F5B1631B881846F9F7A8
:1093F4002FFF444B1B68434A1268927851B297F886
:10940400DF26002A01D0042200E000220A4352B2DF
:10941400D2B29A7007F2865300221A8007F286535A
:109424001B881846F9F726FF374B1B68364A126823
:10943400927851B297F8DF26002A01D0042200E086
:1094440000220A4352B2D2B29A7007F28453002225
:109454001A8007F284531B881846F9F71DFF2B4B1B
:109464001B682A4A1268927851B297F8DF26002ABC
:1094740001D0042200E000220A4352B2D2B29A7010
:1094840007F2825300221A8007F282531B8818467F
:10949400F9F714FF1E4B1B681D4A1268927851B2EB
:1094A40097F8DF26002A01D0042200E000220A43B4
:1094B40052B2D2B29A7007F5B06300221A8007F54F
:1094C400B0631B881846F9F70BFF124B1B68114A4F
:1094D4001268927851B297F8DF26002A1CD0042231
:1094E4001BE000BF281D00202C1D0020301D002083
:1094F400341D0020381D00203C1D0020401D00208C
:10950400441D0020481D00204C1D0020501D00203B
:10951400541D0020581D002000220A4352B2D2B22A
:109524009A7007F27C5300221A6007F27C53186881
:10953400F9F7E8FEA04B1B689F4A1268127951B2F2
:1095440097F8DF26002A01D0042200E000220A4313
:1095540052B2D2B21A7107F5AE624FF000034FF067
:109564000004C2E9003407F5AE63D3E90001F9F75A
:10957400E5FE924B1B68914A1268127A51B297F831
:10958400DF26002A01D0042200E000220A4352B25E
:10959400D2B21A7207F5AD624FF000034FF0000427
:1095A400C2E9003407F5AD63D3E90001F9F7D8FE49
:1095B400834B1B68824A1268127A51B297F8DF26ED
:1095C400002A01D0042200E000220A4352B2D2B29F
:1095D4001A7207F5AC624FF000034FF00004C2E9C1
:1095E400003407F5AC63D3E90001F9F7CBFE754B02
:1095F4001B68744A1268127A51B297F8DF26002A5F
:1096040001D0042200E000220A4352B2D2B21A72FC
:1096140007F5AB624FF000034FF00004C2E90034D9
:1096240007F5AB63D3E90001F9F7BEFE664B1B688F
:10963400654A1268127A51B297F8DF26002A01D0DF
:10964400042200E000220A4352B2D2B21A7207F591
:10965400AA624FF000034FF00004C2E9003407F59A
:10966400AA63D3E90001F9F7B1FE584B1B68574AC6
:109674001268127A51B297F8DF26002A01D0042228
:1096840000E000220A4352B2D2B21A7207F5A9626C
:109694004FF000034FF00004C2E9003407F5A9635A
:1096A400D3E90001F9F7A4FE494B1B68484A126844
:1096B400127A51B297F8DF26002A01D0042200E082
:1096C40000220A4352B2D2B21A7207F5A8624FF0CE
:1096D40000034FF00004C2E9003407F5A863D3E99E
:1096E4000001F9F797FE3B4B1B683A4A1268127A5D
:1096F40051B297F8DF26002A01D0042200E00022AC
:109704000A4352B2D2B21A7207F5A7624FF00003AD
:109714004FF00004C2E9003407F5A763D3E9000160
:10972400F9F78AFE2C4B1B682B4A1268127A51B245
:1097340097F8DF26002A01D0042200E000220A4321
:1097440052B2D2B21A7207F5A6624FF000034FF07C
:109754000004C2E9003407F5A663D3E90001F9F770
:109764007DFE1E4B1B681D4A1268127A51B297F88F
:10977400DF26002A01D0042200E000220A4352B26C
:10978400D2B21A7207F5A5624FF000034FF000043D
:10979400C2E9003407F5A563D3E90001F9F770FEC7
:1097A4000F4B1B680E4A1268127A51B297F8DF26E3
:1097B400002A17D0042216E05C1D0020601D002042
:1097C400641D0020681D00206C1D0020701D0020F9
:1097D400741D0020781D00207C1D0020801D0020A9
:1097E400841D002000220A4352B2D2B21A7207F535
:1097F400A4624FF000034FF00004C2E9003407F5FF
:10980400A463D3E90001F9F74DFEA74B1B68A64AF0
:109814001268127A51B297F8DF26002A01D0042286
:1098240000E000220A4352B2D2B21A7207F5A362D0
:109834004FF000034FF00004C2E9003407F5A363BE
:10984400D3E90001F9F740FE984B1B68974A126868
:10985400127A51B297F8DF26002A01D0042200E0E0
:1098640000220A4352B2D2B21A7207F5A2624FF032
:1098740000034FF00004C2E9003407F5A263D3E902
:109884000001F9F733FE8A4B1B68894A1268127A81
:1098940051B297F8DF26002A01D0042200E000220A
:1098A4000A4352B2D2B21A7207F5A1624FF0000312
:1098B4004FF00004C2E9003407F5A163D3E90001C5
:1098C400F9F726FE7B4B1B687A4A1268127A51B26A
:1098D40097F8DF26002A01D0042200E000220A4380
:1098E40052B2D2B21A7207F5A0624FF000034FF0E1
:1098F4000004C2E9003407F5A063D3E90001F9F7D5
:1099040019FE6D4B1B686C4A1268127A51B297F8B3
:10991400DF26002A01D0042200E000220A4352B2CA
:10992400D2B21A7207F59F624FF000034FF00004A1
:10993400C2E9003407F59F63D3E90001F9F70CFE8F
:109944005E4B1B685D4A1268127A51B297F8DF26A3
:10995400002A01D0042200E000220A4352B2D2B20B
:109964001A7207F2F4434FF000021A6007F2F4434C
:1099740093ED000AF9F702FE514B1B68504A126836
:10998400127951B297F8DF26002A01D0042200E0B0
:1099940000220A4352B2D2B21A7107F59E634FF005
:1099A40000021A6007F59E6393ED000AF9F7F8FDCB
:1099B400444B1B68434A1268127951B297F8DF2668
:1099C400002A01D0042200E000220A4352B2D2B29B
:1099D4001A7107F2EC434FF000021A6007F2EC43ED
:1099E40093ED000AF9F7EEFD374B1B68364A12680F
:1099F400127951B297F8DF26002A01D0042200E040
:109A040000220A4352B2D2B21A7107F59D634FF095
:109A140000021A6007F59D6393ED000AF9F7E4FD6F
:109A24002A4B1B68294A1268127951B297F8DF262B
:109A3400002A01D0042200E000220A4352B2D2B22A
:109A44001A7107F2E4434FF000021A6007F2E4438C
:109A540093ED000AF9F7DAFD1D4B1B681C4A1268E6
:109A6400127951B297F8DF26002A01D0042200E0CF
:109A740000220A4352B2D2B21A7107F59C634FF026
:109A840000021A6007F59C6393ED000AF9F7D0FD14
:109A9400104B1B680F4A1268127951B297F8DF26EF
:109AA400002A19D0042218E0881D00208C1D0020F3
:109AB400901D0020941D0020981D00209C1D002056
:109AC400A01D0020A41D0020A81D0020AC1D002006
:109AD400B01D0020B41D002000220A4352B2D2B2AD
:109AE4001A7107F2DC434FF000021A6007F2DC43FC
:109AF40093ED000AF9F7AEFDAC4B1B68AB4A126854
:109B0400127951B297F8DF26002A01D0042200E02E
:109B140000220A4352B2D2B21A7107F59B634FF086
:109B240000021A6007F59B6393ED000AF9F7A4FDA0
:109B34009F4B1B689E4A1268127951B297F8DF2630
:109B4400002A01D0042200E000220A4352B2D2B219
:109B54001A7107F2D4434FF000021A6007F2D4439B
:109B640093ED000AF9F79AFD924B1B68914A12682B
:109B7400127951B297F8DF26002A01D0042200E0BE
:109B840000220A4352B2D2B21A7107F59A634FF017
:109B940000021A6007F59A6393ED000AF9F790FD45
:109BA400854B1B68844A1268127951B297F8DF26F4
:109BB400002A01D0042200E000220A4352B2D2B2A9
:109BC4001A7107F2CC434FF000021A6007F2CC433B
:109BD40093ED000AF9F786FD784B1B68774A126803
:109BE400127951B297F8DF26002A01D0042200E04E
:109BF40000220A4352B2D2B21A7107F599634FF0A8
:109C040000021A6007F5996393ED000AF9F77CFDE9
:109C14006B4B1B686A4A1268127951B297F8DF26B7
:109C2400002A01D0042200E000220A4352B2D2B238
:109C34001A7107F2C4434FF000021A6007F2C443DA
:109C440093ED000AF9F772FD5E4B1B685D4A1268DA
:109C5400127951B297F8DF26002A01D0042200E0DD
:109C640000220A4352B2D2B21A7107F598634FF038
:109C740000021A6007F5986393ED000AF9F768FD8E
:109C8400514B1B68504A1268127951B297F8DF267B
:109C9400002A01D0042200E000220A4352B2D2B2C8
:109CA4001A7107F2BC434FF000021A6007F2BC437A
:109CB40093ED000AF9F75EFD444B1B68434A1268B2
:109CC400127951B297F8DF26002A01D0042200E06D
:109CD40000220A4352B2D2B21A7107F597634FF0C9
:109CE40000021A6007F5976393ED000AF9F754FD33
:109CF400374B1B68364A1268127951B297F8DF263F
:109D0400002A01D0042200E000220A4352B2D2B257
:109D14001A7107F2B64300221A8007F2B6431B8871
:109D24001846F9F74BFD2B4B1B682A4A12689278A8
:109D340051B297F8DF26002A01D0042200E0002265
:109D44000A4352B2D2B29A7007F2B44300221A8084
:109D540007F2B4431B881846F9F74EFD1E4B1B68E7
:109D64001D4A1268927851B297F8DF26002A01D072
:109D7400042200E000220A4352B2D2B29A7007F2DF
:109D8400B24300221A8007F2B2431B881846F9F73F
:109D940051FD124B1B68114A1268927851B297F820
:109DA400DF26002A1CD004221BE000BFB81D0020BF
:109DB400BC1D0020C01D0020C41D0020C81D0020A3
:109DC400CC1D0020D01D0020D41D0020D81D002053
:109DD400DC1D0020E01D0020E41D0020E81D002003
:109DE40000220A4352B2D2B29A7007F59663002257
:109DF4001A8007F596631B881846F9F72DFDAB4BBF
:109E04001B68AA4A1268927851B297F8DF26002A92
:109E140001D0042200E000220A4352B2D2B29A7066
:109E240007F2AE4300221A8007F2AE431B8818469D
:109E3400F9F724FD9E4B1B689D4A1268927851B233
:109E440097F8DF26002A01D0042200E000220A430A
:109E540052B2D2B29A7007F2AC4300221A8007F2CF
:109E6400AC431B881846F9F71BFD924B1B68914ABB
:109E74001268927851B297F8DF26002A01D00422A2
:109E840000E000220A4352B2D2B29A7007F2AA4307
:109E940000221A8007F2AA431B881846F9F712FD1C
:109EA400854B1B68844A1268927851B297F8DF2672
:109EB400002A01D0042200E000220A4352B2D2B2A6
:109EC4009A7007F5956300221A8007F595631B883D
:109ED4001846F9F709FD794B1B68784A126892789D
:109EE40051B297F8DF26002A01D0042200E00022B4
:109EF4000A4352B2D2B29A7007F2A64300221A80E1
:109F040007F2A6431B881846F9F700FD6C4B1B6843
:109F14006B4A1268927851B297F8DF26002A01D072
:109F2400042200E000220A4352B2D2B29A7007F52A
:109F340094634FF000021A6007F5946393ED000AEE
:109F4400F9F7F6FC5F4B1B685E4A1268127951B24E
:109F540097F8DF26002A01D0042200E000220A43F9
:109F640052B2D2B21A7107F29C434FF000021A6047
:109F740007F29C4393ED000AF9F7F8FC524B1B6877
:109F8400514A1268127951B297F8DF26002A01D09B
:109F9400042200E000220A4352B2D2B21A7107F539
:109FA40093634FF000021A6007F5936393ED000A80
:109FB400F9F7EEFC454B1B68444A1268127951B21A
:109FC40097F8DF26002A01D0042200E000220A4389
:109FD40052B2D2B21A7107F294434FF000021A60DF
:109FE40007F2944393ED000AF9F7E4FC384B1B683D
:109FF400374A1268127951B297F8DF26002A01D045
:10A00400042200E000220A4352B2D2B21A7107F5C8
:10A0140091624FF000034FF00004C2E9003407F5E9
:10A024009163D3E90001F9F7D7FC2A4B1B68294A4D
:10A034001268127A51B297F8DF26002A01D004225E
:10A0440000E000220A4352B2D2B21A7207F28443E9
:10A0540000221A6007F284431868F9F7CFFC1E4BFC
:10A064001B681D4A1268127951B297F8DF26002A3C
:10A0740001D0042200E000220A4352B2D2B21A7183
:10A0840007F2824300221A8007F282431B88184693
:10A09400F9F7C4FC114B1B68104A1268927851B24C
:10A0A40097F8DF26002A1BD004221AE0EC1D0020BA
:10A0B400F01D0020F41D0020F81D0020FC1D0020D0
:10A0C400001E0020041E0020081E00200C1E00207C
:10A0D400101E0020141E0020181E00201C1E00202C
:10A0E40000220A4352B2D2B29A7007F5906300225A
:10A0F4001A8007F590631B881846F9F7A1FCA84B52
:10A104001B68A74A1268927851B297F8DF26002A92
:10A1140001D0042200E000220A4352B2D2B29A7063
:10A1240007F27E4300221A8007F27E431B881846FA
:10A13400F9F798FC9B4B1B689A4A1268927851B2C3
:10A1440097F8DF26002A01D0042200E000220A4307
:10A1540052B2D2B29A7007F27C4300221A8007F2FC
:10A164007C431B881846F9F78FFC8F4B1B688E4A7B
:10A174001268927851B297F8DF26002A01D004229F
:10A1840000E000220A4352B2D2B29A7007F27A4334
:10A1940000221A8007F27A431B881846F9F786FCD6
:10A1A400824B1B68814A1268927851B297F8DF2675
:10A1B400002A01D0042200E000220A4352B2D2B2A3
:10A1C4009A7007F2794300221A7007F279431B78D8
:10A1D4001846F9F789FC764B1B68754A1268527861
:10A1E40051B297F8DF26002A01D0042200E00022B1
:10A1F4000A4352B2D2B25A7007F58F6300221A7022
:10A2040007F58F631B781846F9F780FC694B1B68C8
:10A21400684A1268527851B297F8DF26002A01D0B2
:10A22400042200E000220A4352B2D2B25A7007F26A
:10A23400774300221A7007F277431B781846F9F720
:10A2440077FC5D4B1B685C4A1268527851B297F8F0
:10A25400DF26002A01D0042200E000220A4352B281
:10A26400D2B25A7007F2764300221A7007F276438C
:10A274001B781846F9F76EFC504B1B684F4A12685E
:10A28400527851B297F8DF26002A01D0042200E068
:10A2940000220A4352B2D2B25A7007F27543002226
:10A2A4001A7007F275431B781846F9F765FC444B9E
:10A2B4001B68434A1268527851B297F8DF26002A85
:10A2C40001D0042200E000220A4352B2D2B25A70F2
:10A2D40007F2744300221A7007F274431B7818467D
:10A2E400F9F75CFC374B1B68364A1268527851B256
:10A2F40097F8DF26002A01D0042200E000220A4356
:10A3040052B2D2B25A7007F2734300221A7007F2A3
:10A3140073431B781846F9F753FC2B4B1B682A4AE6
:10A324001268527851B297F8DF26002A01D004222D
:10A3340000E000220A4352B2D2B25A7007F27243CA
:10A3440000221A7007F272431B781846F9F74AFC88
:10A354001E4B1B681D4A1268527851B297F8DF26CB
:10A36400002A01D0042200E000220A4352B2D2B2F1
:10A374005A7007F2714300221A7007F271431B7876
:10A384001846F9F741FC124B1B68114A12685278BF
:10A3940051B297F8DF26002A1CD004221BE000BF2C
:10A3A400201E0020241E0020281E00202C1E002019
:10A3B400301E0020341E0020381E00203C1E0020C9
:10A3C400401E0020441E0020481E00204C1E002079
:10A3D400501E002000220A4352B2D2B25A7007F52E
:10A3E4008E6300221A7007F58E631B781846F9F7FE
:10A3F4001DFCAD4B1B68AC4A1268527851B297F8F9
:10A40400DF26002A01D0042200E000220A4352B2CF
:10A41400D2B25A7007F26F4300221A7007F26F43E8
:10A424001B781846F9F714FCA04B1B689F4A126866
:10A43400527851B297F8DF26002A01D0042200E0B6
:10A4440000220A4352B2D2B25A7007F26E4300227B
:10A454001A7007F26E431B781846F9F70BFC944BFD
:10A464001B68934A1268527851B297F8DF26002A83
:10A4740001D0042200E000220A4352B2D2B25A7040
:10A4840007F58D634FF000021A6007F58D6393EDB5
:10A49400000AF9F701FC874B1B68864A1268127997
:10A4A40051B297F8DF26002A01D0042200E00022EE
:10A4B4000A4352B2D2B21A7107F264434FF0000257
:10A4C4001A6007F2644393ED000AF9F7F7FB7A4B3D
:10A4D4001B68794A1268127951B297F8DF26002A6C
:10A4E40001D0042200E000220A4352B2D2B21A710F
:10A4F40007F58C634FF000021A6007F58C6393ED47
:10A50400000AF9F7EDFB6D4B1B686C4A126812796F
:10A5140051B297F8DF26002A01D0042200E000227D
:10A524000A4352B2D2B21A7107F25C434FF00002EE
:10A534001A6007F25C4393ED000AF9F7E3FB604B02
:10A544001B685F4A1268127951B297F8DF26002A15
:10A5540001D0042200E000220A4352B2D2B21A719E
:10A5640007F58B634FF000021A6007F58B6393EDD8
:10A57400000AF9F7D9FB534B1B68524A1268127947
:10A5840051B297F8DF26002A01D0042200E000220D
:10A594000A4352B2D2B21A7107F254434FF0000286
:10A5A4001A6007F2544393ED000AF9F7CFFB464BC8
:10A5B4001B68454A1268127951B297F8DF26002ABF
:10A5C40001D0042200E000220A4352B2D2B21A712E
:10A5D40007F58A634FF000021A6007F58A6393ED6A
:10A5E400000AF9F7C5FB394B1B68384A126812791F
:10A5F40051B297F8DF26002A01D0042200E000229D
:10A604000A4352B2D2B21A7107F24C434FF000021D
:10A614001A6007F24C4393ED000AF9F7BBFB2C4B8D
:10A624001B682B4A1268127951B297F8DF26002A68
:10A6340001D0042200E000220A4352B2D2B21A71BD
:10A6440007F589634FF000021A6007F5896393EDFB
:10A65400000AF9F7B1FB1F4B1B681E4A12681279F6
:10A6640051B297F8DF26002A01D0042200E000222C
:10A674000A4352B2D2B21A7107F244434FF00002B5
:10A684001A6007F2444393ED000AF9F7A7FB124B53
:10A694001B68114A1268127951B297F8DF26002A12
:10A6A4001CD004221BE000BF541E0020581E0020B2
:10A6B4005C1E0020601E0020641E0020681E002016
:10A6C4006C1E0020701E0020741E0020781E0020C6
:10A6D4007C1E0020801E0020841E002000220A43CD
:10A6E40052B2D2B21A7107F588634FF000021A60B1
:10A6F40007F5886393ED000AF9F782FBAD4B1B68FD
:10A70400AC4A1268127951B297F8DF26002A01D0B8
:10A71400042200E000220A4352B2D2B21A7107F2B4
:10A724003C434FF000021A6007F23C4393ED000AE9
:10A73400F9F778FBA04B1B689F4A1268127951B253
:10A7440097F8DF26002A01D0042200E000220A4301
:10A7540052B2D2B21A7107F587634FF000021A6041
:10A7640007F5876393ED000AF9F76EFB934B1B68BB
:10A77400924A1268127951B297F8DF26002A01D062
:10A78400042200E000220A4352B2D2B21A7107F244
:10A7940034434FF000021A6007F2344393ED000A89
:10A7A400F9F764FB864B1B68854A1268127951B22B
:10A7B40097F8DF26002A01D0042200E000220A4391
:10A7C40052B2D2B21A7107F586634FF000021A60D2
:10A7D40007F5866393ED000AF9F75AFB794B1B687A
:10A7E400784A1268127951B297F8DF26002A01D00C
:10A7F400042200E000220A4352B2D2B21A7107F2D4
:10A804002C434FF000021A6007F22C4393ED000A28
:10A81400F9F750FB6C4B1B686B4A1268127951B202
:10A8240097F8DF26002A01D0042200E000220A4320
:10A8340052B2D2B21A7107F585634FF000021A6062
:10A8440007F5856393ED000AF9F746FB5F4B1B6838
:10A854005E4A1268127951B297F8DF26002A01D0B5
:10A86400042200E000220A4352B2D2B21A7107F263
:10A8740024434FF000021A6007F2244393ED000AC8
:10A88400F9F748FB524B1B68514A1268127951B2CE
:10A8940097F8DF26002A01D0042200E000220A43B0
:10A8A40052B2D2B21A7107F584634FF000021A60F3
:10A8B40007F5846393ED000AF9F74AFB454B1B68DF
:10A8C400444A1268127951B297F8DF26002A01D05F
:10A8D400042200E000220A4352B2D2B21A7107F2F3
:10A8E4001C434FF000021A6007F21C4393ED000A68
:10A8F400F9F740FB384B1B68374A1268127951B29A
:10A9040097F8DF26002A01D0042200E000220A433F
:10A9140052B2D2B21A7107F583634FF000021A6083
:10A9240007F5836393ED000AF9F736FB2B4B1B689D
:10A934002A4A1268127951B297F8DF26002A01D008
:10A94400042200E000220A4352B2D2B21A7107F282
:10A9540014434FF000021A6007F2144393ED000A07
:10A96400F9F72CFB1E4B1B681D4A1268127951B271
:10A9740097F8DF26002A01D0042200E000220A43CF
:10A9840052B2D2B21A7107F582634FF000021A6014
:10A9940007F5826393ED000AF9F722FB114B1B685C
:10A9A400104A1268127951B297F8DF26002A1BD098
:10A9B40004221AE0881E00208C1E0020901E002015
:10A9C400941E0020981E00209C1E0020A01E002023
:10A9D400A41E0020A81E0020AC1E0020B01E0020D3
:10A9E400B41E0020B81E002000220A4352B2D2B284
:10A9F4001A7107F20C434FF000021A6007F20C437D
:10AA040093ED000AF9F7FEFAA74B1B68A64A1268F1
:10AA1400127951B297F8DF26002A01D0042200E00F
:10AA240000220A4352B2D2B21A7107F20A43002238
:10AA34001A8007F20A431B881846F9F7F5FA9B4B6C
:10AA44001B689A4A1268927851B297F8DF26002A56
:10AA540001D0042200E000220A4352B2D2B29A701A
:10AA640007F2094300221A7007F209431B781846BB
:10AA7400F9F708FB8E4B1B688D4A1268527851B265
:10AA840097F8DF26002A01D0042200E000220A43BE
:10AA940052B2D2B25A7007F5816300221A7007F5D8
:10AAA40081631B781846F9F7FFFA824B1B68814AC9
:10AAB4001268527851B297F8DF26002A01D0042296
:10AAC40000E000220A4352B2D2B25A7007F206439F
:10AAD40000221A8007F206431B881846F9F7F6FA93
:10AAE400754B1B68744A1268927851B297F8DF2646
:10AAF400002A01D0042200E000220A4352B2D2B25A
:10AB04009A7007F2044300221A8007F204431B8858
:10AB14001846F9F7F9FA694B1B68684A1268927883
:10AB240051B297F8DF26002A01D0042200E0002267
:10AB34000A4352B2D2B29A7007F2034300221A7047
:10AB440007F203431B781846F9F7F0FA5C4B1B68CD
:10AB54005B4A1268527851B297F8DF26002A01D076
:10AB6400042200E000220A4352B2D2B25A7007F221
:10AB7400024300221A7007F202431B781846F9F7C1
:10AB8400E7FA504B1B684F4A1268527851B297F853
:10AB9400DF26002A01D0042200E000220A4352B238
:10ABA400D2B25A7007F2014300221A7007F201432D
:10ABB4001B781846F9F7DEFA434B1B68424A1268C1
:10ABC400527851B297F8DF26002A01D0042200E01F
:10ABD40000220A4352B2D2B25A7007F580630022AF
:10ABE4001A7007F580631B781846F9F7D5FA374BC6
:10ABF4001B68364A1268527851B297F8DF26002A49
:10AC040001D0042200E000220A4352B2D2B25A70A8
:10AC140007F2FF3300221A7007F2FF331B7818463D
:10AC2400F9F7D8FA2A4B1B68294A1268527851B2AC
:10AC340097F8DF26002A01D0042200E000220A430C
:10AC440052B2D2B25A7007F2FE3300221A7007F2DF
:10AC5400FE331B781846F9F7CFFA1E4B1B681D4AC2
:10AC64001268527851B297F8DF26002A01D00422E4
:10AC740000E000220A4352B2D2B25A7007F2FD3306
:10AC840000221A7007F2FD331B781846F9F7C6FA4A
:10AC9400114B1B68104A1268527851B297F8DF269C
:10ACA400002A1BD004221AE0BC1E0020C01E002073
:10ACB400C41E0020C81E0020CC1E0020D01E002070
:10ACC400D41E0020D81E0020DC1E0020E01E002020
:10ACD400E41E0020E81E0020EC1E002000220A438F
:10ACE40052B2D2B25A7007F57F7300221A7007F578
:10ACF4007F731B781846F9F7A3FAA94B1B68A84A77
:10AD04001268527851B297F8DF26002A01D0042243
:10AD140000E000220A4352B2D2B25A7007F2FB3367
:10AD240000221A7007F2FB331B781846F9F79AFAD7
:10AD34009C4B1B689B4A1268527851B297F8DF26E5
:10AD4400002A01D0042200E000220A4352B2D2B207
:10AD54005A7007F2FA3300221A7007F2FA331B789A
:10AD64001846F9F791FA904B1B688F4A126852788B
:10AD740051B297F8DF26002A01D0042200E0002215
:10AD84000A4352B2D2B25A7007F2F93300221A704F
:10AD940007F2F9331B781846F9F788FA834B1B68D6
:10ADA400824A1268527851B297F8DF26002A01D0FD
:10ADB400042200E000220A4352B2D2B25A7007F5CC
:10ADC4007E7300221A7007F57E731B781846F9F714
:10ADD4007FFA774B1B68764A1268527851B297F81B
:10ADE400DF26002A01D0042200E000220A4352B2E6
:10ADF400D2B25A7007F2F73300221A7007F2F7330F
:10AE04001B781846F9F776FA6A4B1B68694A126888
:10AE1400527851B297F8DF26002A01D0042200E0CC
:10AE240000220A4352B2D2B25A7007F2F633002219
:10AE34001A7007F2F6331B781846F9F76DFA5E4B71
:10AE44001B685D4A1268527851B297F8DF26002ACF
:10AE540001D0042200E000220A4352B2D2B25A7056
:10AE640007F2F53300221A7007F2F5331B781846FF
:10AE7400F9F764FA514B1B68504A1268527851B280
:10AE840097F8DF26002A01D0042200E000220A43BA
:10AE940052B2D2B25A7007F57D7300221A7007F5C8
:10AEA4007D731B781846F9F75BFA454B1B68444AD7
:10AEB4001268527851B297F8DF26002A01D0042292
:10AEC40000E000220A4352B2D2B25A7007F2F233BF
:10AED40000221A8007F2F2331B881846F9F752FA57
:10AEE400384B1B68374A1268927851B297F8DF26BC
:10AEF400002A01D0042200E000220A4352B2D2B256
:10AF04009A7007F57C7300221A8007F57C731B88FE
:10AF14001846F9F749FA2C4B1B682B4A12689278A9
:10AF240051B297F8DF26002A01D0042200E0002263
:10AF34000A4352B2D2B29A7007F57A724FF0000304
:10AF44004FF00004C2E9003407F57A73D3E9000135
:10AF5400F9F73CFA1D4B1B681C4A1268127A51B26D
:10AF640097F8DF26002A01D0042200E000220A43D9
:10AF740052B2D2B21A7207F5797300221A6007F539
:10AF840079731868F9F734FA114B1B68104A126880
:10AF9400127951B297F8DF26002A1BD004221AE056
:10AFA400F01E0020F41E0020F81E0020FC1E0020CD
:10AFB400001F0020041F0020081F00200C1F002079
:10AFC400101F0020141F0020181F00201C1F002029
:10AFD400201F002000220A4352B2D2B21A7107F293
:10AFE400E33300221A7007F2E3331B781846F9F7AB
:10AFF4000FFAA94B1B68A84A1268527851B297F805
:10B00400DF26002A01D0042200E000220A4352B2C3
:10B01400D2B25A7007F2E23300221A7007F2E23316
:10B024001B781846F9F706FA9C4B1B689B4A126872
:10B03400527851B297F8DF26002A01D0042200E0AA
:10B0440000220A4352B2D2B25A7007F2E13300220C
:10B054001A7007F2E1331B781846F9F7FDF9904BA3
:10B064001B688F4A1268527851B297F8DF26002A7B
:10B0740001D0042200E000220A4352B2D2B25A7034
:10B0840007F5787300221A7007F578731B78184651
:10B09400F9F7F4F9834B1B68824A1268527851B26B
:10B0A40097F8DF26002A01D0042200E000220A4398
:10B0B40052B2D2B25A7007F2DF3300221A7007F28A
:10B0C400DF331B781846F9F7EBF9774B1B68764AA0
:10B0D4001268527851B297F8DF26002A01D0042270
:10B0E40000E000220A4352B2D2B25A7007F2DE33B1
:10B0F40000221A7007F2DE331B781846F9F7E2F9DA
:10B104006A4B1B68694A1268527851B297F8DF2675
:10B11400002A01D0042200E000220A4352B2D2B233
:10B124005A7007F2DD3300221A7007F2DD331B7800
:10B134001846F9F7D9F95E4B1B685D4A12685278D4
:10B1440051B297F8DF26002A01D0042200E0002241
:10B154000A4352B2D2B25A7007F5777300221A70BA
:10B1640007F577731B781846F9F7D0F9514B1B682C
:10B17400504A1268527851B297F8DF26002A01D05B
:10B18400042200E000220A4352B2D2B25A7007F2FB
:10B19400DB3300221A7007F2DB331B781846F9F709
:10B1A400C7F9454B1B68444A1268527851B297F864
:10B1B400DF26002A01D0042200E000220A4352B212
:10B1C400D2B25A7007F2DA3300221A7007F2DA3375
:10B1D4001B781846F9F7BEF9384B1B68374A1268D2
:10B1E400527851B297F8DF26002A01D0042200E0F9
:10B1F40000220A4352B2D2B25A7007F575734FF067
:10B2040000021A6007F5757393ED000AF9F7B4F9B3
:10B214002B4B1B682A4A1268127951B297F8DF2621
:10B22400002A01D0042200E000220A4352B2D2B222
:10B234001A7107F574734FF000021A6007F57473FE
:10B2440093ED000AF9F7B6F91E4B1B681D4A126804
:10B25400127951B297F8DF26002A01D0042200E0C7
:10B2640000220A4352B2D2B21A7107F573734FF037
:10B2740000021A6007F5737393ED000AF9F7ACF94D
:10B28400114B1B68104A1268127951B297F8DF26E5
:10B29400002A1BD004221AE0241F0020281F0020AB
:10B2A4002C1F0020301F0020341F0020381F0020D6
:10B2B4003C1F0020401F0020441F0020481F002086
:10B2C4004C1F0020501F0020541F002000220A435E
:10B2D40052B2D2B21A7107F5727300221A6007F5DE
:10B2E40072731868F9F78AF9A54B1B68A44A1268A7
:10B2F400127951B297F8DF26002A01D0042200E027
:10B3040000220A4352B2D2B21A7107F571730022B5
:10B314001A6007F571731868F9F780F9994B1B687F
:10B32400984A1268127951B297F8DF26002A01D0A0
:10B33400042200E000220A4352B2D2B21A7107F585
:10B34400707300221A6007F570731868F9F776F9BC
:10B354008D4B1B688C4A1268127951B297F8DF261C
:10B36400002A01D0042200E000220A4352B2D2B2E1
:10B374001A7107F56F7300221A6007F56F73186866
:10B38400F9F76CF9814B1B68804A1268127951B243
:10B3940097F8DF26002A01D0042200E000220A43A5
:10B3A40052B2D2B21A7107F56E7300221A6007F511
:10B3B4006E731868F9F762F9754B1B68744A126862
:10B3C400127951B297F8DF26002A01D0042200E056
:10B3D40000220A4352B2D2B21A7107F2B6330022E3
:10B3E4001A8007F2B6331B881846F9F757F9694BE8
:10B3F4001B68684A1268927851B297F8DF26002ACF
:10B4040001D0042200E000220A4352B2D2B29A7060
:10B4140007F56D7300221A8007F56D731B881846B3
:10B42400F9F74EF95C4B1B685B4A1268927851B28B
:10B4340097F8DF26002A01D0042200E000220A4304
:10B4440052B2D2B29A7007F2B23300221A8007F2D3
:10B45400B2331B881846F9F745F9504B1B684F4A1D
:10B464001268927851B297F8DF26002A01D004229C
:10B4740000E000220A4352B2D2B29A7007F56C730C
:10B4840000221A8007F56C731B881846F9F73CF9FB
:10B49400434B1B68424A1268927851B297F8DF26F0
:10B4A400002A01D0042200E000220A4352B2D2B2A0
:10B4B4009A7007F2AE3300221A8007F2AE331B886B
:10B4C4001846F9F733F9374B1B68364A12689278F5
:10B4D40051B297F8DF26002A01D0042200E00022AE
:10B4E4000A4352B2D2B29A7007F56B7300221A80E3
:10B4F40007F56B731B881846F9F746F92A4B1B6846
:10B50400294A1268927851B297F8DF26002A01D0AE
:10B51400042200E000220A4352B2D2B29A7007F227
:10B52400AA3300221A8007F2AA331B881846F9F7B7
:10B5340059F91E4B1B681D4A1268927851B297F84C
:10B54400DF26002A01D0042200E000220A4352B27E
:10B55400D2B29A7007F56A7300221A8007F56A73EB
:10B564001B881846F9F750F9114B1B68104A1268EA
:10B57400927851B297F8DF26002A1BD004221AE0F1
:10B58400581F00205C1F0020601F0020641F002043
:10B59400681F00206C1F0020701F0020741F0020F3
:10B5A400781F00207C1F0020801F0020841F0020A3
:10B5B400881F002000220A4352B2D2B29A7007F2C6
:10B5C400A63300221A8007F2A6331B881846F9F71F
:10B5D4002DF9A84B1B68A74A1268927851B297F8C4
:10B5E400DF26002A01D0042200E000220A4352B2DE
:10B5F400D2B29A7007F5697300221A8007F569734D
:10B604001B881846F9F724F99B4B1B689A4A126861
:10B61400927851B297F8DF26002A01D0042200E084
:10B6240000220A4352B2D2B29A7007F2A233002225
:10B634001A8007F2A2331B881846F9F71BF98F4BBF
:10B644001B688E4A1268927851B297F8DF26002A56
:10B6540001D0042200E000220A4352B2D2B29A700E
:10B6640007F5687300221A8007F568731B8818466B
:10B67400F9F712F9824B1B68814A1268927851B229
:10B6840097F8DF26002A01D0042200E000220A43B2
:10B6940052B2D2B29A7007F29E3300221A8007F295
:10B6A4009E331B881846F9F709F9764B1B68754ACF
:10B6B4001268927851B297F8DF26002A01D004224A
:10B6C40000E000220A4352B2D2B29A7007F56773BF
:10B6D40000221A8007F567731B881846F9F700F9EA
:10B6E400694B1B68684A1268927851B297F8DF2652
:10B6F400002A01D0042200E000220A4352B2D2B24E
:10B704009A7007F29A3300221A8007F29A331B8840
:10B714001846F9F7F7F85D4B1B685C4A1268927893
:10B7240051B297F8DF26002A01D0042200E000225B
:10B734000A4352B2D2B29A7007F5667300221A8095
:10B7440007F566731B881846F9F7EEF8504B1B682B
:10B754004F4A1268927851B297F8DF26002A01D036
:10B76400042200E000220A4352B2D2B29A7007F2D5
:10B77400963300221A8007F296331B881846F9F78D
:10B78400E5F8444B1B68434A1268927851B297F823
:10B79400DF26002A01D0042200E000220A4352B22C
:10B7A400D2B29A7007F2953300221A7007F29533D9
:10B7B4001B781846F9F7F8F8374B1B68364A1268B5
:10B7C400527851B297F8DF26002A01D0042200E013
:10B7D40000220A4352B2D2B25A7007F565730022AE
:10B7E4001A7007F565731B781846F9F7EFF82B4BB9
:10B7F4001B682A4A1268527851B297F8DF26002A49
:10B8040001D0042200E000220A4352B2D2B25A709C
:10B8140007F2923300221A8007F292331B881846EB
:10B82400F9F7E6F81E4B1B681D4A1268927851B26C
:10B8340097F8DF26002A01D0042200E000220A4300
:10B8440052B2D2B29A7007F5647300221A8007F5D7
:10B8540064731B881846F9F7E9F8124B1B68114A00
:10B864001268927851B297F8DF26002A1CD004227D
:10B874001BE000BF8C1F0020901F0020941F00209D
:10B88400981F00209C1F0020A01F0020A41F002040
:10B89400A81F0020AC1F0020B01F0020B41F0020F0
:10B8A400B81F0020BC1F002000220A4352B2D2B2AB
:10B8B4009A7007F28F3300221A7007F28F331B78C5
:10B8C4001846F9F7C5F8A84B1B68A74A12685278BE
:10B8D40051B297F8DF26002A01D0042200E00022AA
:10B8E4000A4352B2D2B25A7007F28E3300221A704F
:10B8F40007F28E331B781846F9F7BCF89B4B1B688C
:10B904009A4A1268527851B297F8DF26002A01D079
:10B91400042200E000220A4352B2D2B25A7007F263
:10B924008D3300221A7007F28D331B781846F9F70D
:10B93400B3F88F4B1B688E4A1268527851B297F84D
:10B94400DF26002A01D0042200E000220A4352B27A
:10B95400D2B25A7007F5637300221A7007F5637345
:10B964001B781846F9F7AAF8824B1B68814A1268BB
:10B97400527851B297F8DF26002A01D0042200E061
:10B9840000220A4352B2D2B25A7007F28B33002219
:10B994001A7007F28B331B781846F9F7ADF8764B1B
:10B9A4001B68754A1268527851B297F8DF26002A4C
:10B9B40001D0042200E000220A4352B2D2B25A70EB
:10B9C40007F28A3300221A7007F28A331B7818466A
:10B9D400F9F7A4F8694B1B68684A1268527851B2A7
:10B9E40097F8DF26002A01D0042200E000220A434F
:10B9F40052B2D2B25A7007F2893300221A7007F297
:10BA040089331B781846F9F79BF85D4B1B685C4A31
:10BA14001268527851B297F8DF26002A01D0042226
:10BA240000E000220A4352B2D2B25A7007F56273A0
:10BA340000221A7007F562731B781846F9F792F81A
:10BA4400504B1B684F4A1268527851B297F8DF2660
:10BA5400002A01D0042200E000220A4352B2D2B2EA
:10BA64005A7007F2873300221A7007F287331B7863
:10BA74001846F9F789F8444B1B68434A1268527810
:10BA840051B297F8DF26002A01D0042200E00022F8
:10BA94000A4352B2D2B25A7007F2863300221A70A5
:10BAA40007F286331B781846F9F780F8374B1B6882
:10BAB400364A1268527851B297F8DF26002A01D02C
:10BAC400042200E000220A4352B2D2B25A7007F2B2
:10BAD400853300221A7007F285331B781846F9F76C
:10BAE40077F82B4B1B682A4A1268527851B297F8A0
:10BAF400DF26002A01D0042200E000220A4352B2C9
:10BB0400D2B25A7007F5617300221A7007F5617397
:10BB14001B781846F9F76EF81E4B1B681D4A12680D
:10BB2400527851B297F8DF26002A01D0042200E0AF
:10BB340000220A4352B2D2B25A7007F2833300226F
:10BB44001A7007F283331B781846F9F765F8124B1D
:10BB54001B68114A1268527851B297F8DF26002AFE
:10BB64001CD004221BE000BFC01F0020C41F002003
:10BB7400C81F0020CC1F0020D01F0020D41F00208D
:10BB8400D81F0020DC1F0020E01F0020E41F00203D
:10BB9400E81F0020EC1F0020F01F002000220A43B1
:10BBA40052B2D2B25A7007F2823300221A7007F2EC
:10BBB40082331B781846F9F741F8A94B1B68A84A49
:10BBC4001268527851B297F8DF26002A01D0042275
:10BBD40000E000220A4352B2D2B25A7007F2813313
:10BBE40000221A7007F281331B781846F9F738F8E7
:10BBF4009C4B1B689B4A1268527851B297F8DF2617
:10BC0400002A01D0042200E000220A4352B2D2B238
:10BC14005A7007F5607300221A7007F560731B7879
:10BC24001846F9F72FF8904B1B688F4A1268527820
:10BC340051B297F8DF26002A01D0042200E0002246
:10BC44000A4352B2D2B25A7007F27E3300221A80EB
:10BC540007F27E331B881846F9F726F8834B1B68D6
:10BC6400824A1268927851B297F8DF26002A01D0EE
:10BC7400042200E000220A4352B2D2B29A7007F5BD
:10BC84005F7300221A8007F55F731B881846F9F763
:10BC94001DF8774B1B68764A1268927851B297F870
:10BCA400DF26002A01D0042200E000220A4352B217
:10BCB400D2B29A7007F55C724FF000034FF00004A3
:10BCC400C2E9003407F55C73D3E90001F9F710F811
:10BCD400684B1B68674A1268127A51B297F8DF26DC
:10BCE400002A01D0042200E000220A4352B2D2B258
:10BCF4001A7207F55B7300221A6007F55B73186804
:10BD0400F9F708F85C4B1B685B4A1268127951B268
:10BD140097F8DF26002A01D0042200E000220A431B
:10BD240052B2D2B21A7107F26B3300221A7007F2C0
:10BD34006B331B781846F8F7FDFF504B1B684F4ACE
:10BD44001268527851B297F8DF26002A01D00422F3
:10BD540000E000220A4352B2D2B25A7007F26A33A8
:10BD640000221A7007F26A331B781846F8F7F4FFBA
:10BD7400434B1B68424A1268527851B297F8DF2647
:10BD8400002A01D0042200E000220A4352B2D2B2B7
:10BD94005A7007F2693300221A7007F269331B786C
:10BDA4001846F8F7EBFF374B1B68364A126852788F
:10BDB40051B297F8DF26002A01D0042200E00022C5
:10BDC4000A4352B2D2B25A7007F55A7300221A705B
:10BDD40007F55A731B781846F8F7E2FF2A4B1B68DD
:10BDE400294A1268527851B297F8DF26002A01D006
:10BDF400042200E000220A4352B2D2B25A7007F27F
:10BE0400673300221A7007F267331B781846F8F775
:10BE1400D9FF1E4B1B681D4A1268527851B297F81D
:10BE2400DF26002A01D0042200E000220A4352B295
:10BE3400D2B25A7007F2663300221A7007F26633E0
:10BE44001B781846F8F7D0FF114B1B68104A12688C
:10BE5400527851B297F8DF26002A1BD004221AE048
:10BE6400F41F0020F81F0020FC1F002000200020E9
:10BE740004200020082000200C2000201020002096
:10BE840014200020182000201C2000202020002046
:10BE94002420002000220A4352B2D2B25A7007F280
:10BEA400653300221A7007F265331B781846F8F7D9
:10BEB400ADFFA74B1B68A64A1268527851B297F897
:10BEC400DF26002A01D0042200E000220A4352B2F5
:10BED400D2B25A7007F5597300221A7007F55973D4
:10BEE4001B781846F8F7A4FF9A4B1B68994A126806
:10BEF400527851B297F8DF26002A01D0042200E0DC
:10BF040000220A4352B2D2B25A7007F263330022BB
:10BF14001A7007F263331B781846F8F79BFF8E4BB1
:10BF24001B688D4A1268527851B297F8DF26002AAE
:10BF340001D0042200E000220A4352B2D2B25A7065
:10BF440007F2623300221A7007F262331B78184634
:10BF5400F8F792FF814B1B68804A1268527851B2FD
:10BF640097F8DF26002A01D0042200E000220A43C9
:10BF740052B2D2B25A7007F557734FF000021A60EA
:10BF840007F5577393ED000AF8F788FF744B1B68A5
:10BF9400734A1268127951B297F8DF26002A01D049
:10BFA400042200E000220A4352B2D2B21A7107F509
:10BFB40056734FF000021A6007F5567393ED000AAA
:10BFC400F8F78AFF674B1B68664A1268127951B208
:10BFD40097F8DF26002A01D0042200E000220A4359
:10BFE40052B2D2B21A7107F555734FF000021A60BB
:10BFF40007F5557393ED000AF8F780FF5A4B1B6859
:10C00400594A1268127951B297F8DF26002A01D0F2
:10C01400042200E000220A4352B2D2B21A7107F598
:10C02400547300221A6007F554731868F8F778FF00
:10C034004E4B1B684D4A1268127951B297F8DF26AD
:10C04400002A01D0042200E000220A4352B2D2B2F4
:10C054001A7107F5537300221A6007F553731868B1
:10C06400F8F76EFF424B1B68414A1268127951B2CD
:10C0740097F8DF26002A01D0042200E000220A43B8
:10C0840052B2D2B21A7107F5527300221A6007F540
:10C0940052731868F8F764FF364B1B68354A126808
:10C0A400127951B297F8DF26002A01D0042200E069
:10C0B40000220A4352B2D2B21A7107F55173002218
:10C0C4001A6007F551731868F8F75AFF2A4B1B6872
:10C0D400294A1268127951B297F8DF26002A01D052
:10C0E400042200E000220A4352B2D2B21A7107F5C8
:10C0F400507300221A6007F550731868F8F750FF60
:10C104001E4B1B681D4A1268127951B297F8DF263C
:10C11400002A01D0042200E000220A4352B2D2B223
:10C124001A7107F23E3300221A8007F23E331B884D
:10C134001846F8F745FF124B1B68114A12689278AB
:10C1440051B297F8DF26002A1CD004221BE000BF5E
:10C15400282000202C200020302000203420002023
:10C16400382000203C2000204020002044200020D3
:10C17400482000204C200020502000205420002083
:10C184005820002000220A4352B2D2B29A7007F516
:10C194004F7300221A8007F54F731B881846F8F76F
:10C1A40021FFA84B1B68A74A1268927851B297F8EE
:10C1B400DF26002A01D0042200E000220A4352B202
:10C1C400D2B29A7007F23A3300221A8007F23A3355
:10C1D4001B881846F8F718FF9B4B1B689A4A12688D
:10C1E400927851B297F8DF26002A01D0042200E0A9
:10C1F40000220A4352B2D2B29A7007F54E7300225B
:10C204001A8007F54E731B881846F8F70FFF8F4BFB
:10C214001B688E4A1268927851B297F8DF26002A7A
:10C2240001D0042200E000220A4352B2D2B29A7032
:10C2340007F2363300221A8007F236331B88184679
:10C24400F8F722FF824B1B68814A1268927851B238
:10C2540097F8DF26002A01D0042200E000220A43D6
:10C2640052B2D2B29A7007F54D7300221A8007F5C4
:10C274004D731B881846F8F735FF764B1B68754AD3
:10C284001268927851B297F8DF26002A01D004226E
:10C2940000E000220A4352B2D2B29A7007F232335B
:10C2A40000221A8007F232331B881846F8F748FF39
:10C2B400694B1B68684A1268927851B297F8DF2676
:10C2C400002A01D0042200E000220A4352B2D2B272
:10C2D4009A7007F2313300221A7007F231331B7857
:10C2E4001846F8F75BFF5D4B1B685C4A126852788E
:10C2F40051B297F8DF26002A01D0042200E0002280
:10C304000A4352B2D2B25A7007F54C7300221A7023
:10C3140007F54C731B781846F8F752FF504B1B680F
:10C324004F4A1268527851B297F8DF26002A01D09A
:10C33400042200E000220A4352B2D2B25A7007F239
:10C344002F3300221A7007F22F331B781846F8F7A0
:10C3540049FF444B1B68434A1268527851B297F81C
:10C36400DF26002A01D0042200E000220A4352B250
:10C37400D2B25A7007F22E3300221A7007F22E330B
:10C384001B781846F8F740FF374B1B68364A12688B
:10C39400527851B297F8DF26002A01D0042200E037
:10C3A40000220A4352B2D2B25A7007F22D3300224D
:10C3B4001A7007F22D331B781846F8F737FF2B4B0A
:10C3C4001B682A4A1268527851B297F8DF26002A6D
:10C3D40001D0042200E000220A4352B2D2B25A70C1
:10C3E40007F54B7300221A7007F54B731B78184638
:10C3F400F8F72EFF1E4B1B681D4A1268527851B283
:10C4040097F8DF26002A01D0042200E000220A4324
:10C4140052B2D2B25A7007F22B3300221A7007F2CA
:10C424002B331B781846F8F725FF124B1B68114A6B
:10C434001268527851B297F8DF26002A1CD00422E1
:10C444001BE000BF5C20002060200020642000204E
:10C45400682000206C200020702000207420002020
:10C46400782000207C2000208020002084200020D0
:10C47400882000208C20002000220A4352B2D2B22D
:10C484005A7007F22A3300221A7007F22A331B78F3
:10C494001846F8F701FFAE4B1B68AD4A1268527894
:10C4A40051B297F8DF26002A01D0042200E00022CE
:10C4B4000A4352B2D2B25A7007F549734FF00002E0
:10C4C4001A6007F5497393ED000AF8F7F7FEA14BDC
:10C4D4001B68A04A1268127951B297F8DF26002A25
:10C4E40001D0042200E000220A4352B2D2B21A71EF
:10C4F40007F548734FF000021A6007F5487393ED8F
:10C50400000AF8F7EDFE944B1B68934A12681279FF
:10C5140051B297F8DF26002A01D0042200E000225D
:10C524000A4352B2D2B21A7107F547734FF00002B0
:10C534001A6007F5477393ED000AF8F7E3FE874B9B
:10C544001B68864A1268127951B297F8DF26002ACE
:10C5540001D0042200E000220A4352B2D2B21A717E
:10C5640007F546734FF000021A6007F5467393ED22
:10C57400000AF8F7D9FE7A4B1B68794A12681279D7
:10C5840051B297F8DF26002A01D0042200E00022ED
:10C594000A4352B2D2B21A7107F545734FF0000242
:10C5A4001A6007F5457393ED000AF8F7CFFE6D4B5B
:10C5B4001B686C4A1268127951B297F8DF26002A78
:10C5C40001D0042200E000220A4352B2D2B21A710E
:10C5D40007F544734FF000021A6007F5447393EDB6
:10C5E400000AF8F7C5FE604B1B685F4A12681279AF
:10C5F40051B297F8DF26002A01D0042200E000227D
:10C604000A4352B2D2B21A7107F543734FF00002D3
:10C614001A6007F5437393ED000AF8F7BBFE534B1A
:10C624001B68524A1268127951B297F8DF26002A21
:10C6340001D0042200E000220A4352B2D2B21A719D
:10C6440007F542734FF000021A6007F5427393ED49
:10C65400000AF8F7B1FE464B1B68454A1268127986
:10C6640051B297F8DF26002A01D0042200E000220C
:10C674000A4352B2D2B21A7107F541734FF0000265
:10C684001A6007F5417393ED000AF8F7A7FE394BDA
:10C694001B68384A1268127951B297F8DF26002ACB
:10C6A40001D0042200E000220A4352B2D2B21A712D
:10C6B40007F540734FF000021A6007F5407393EDDD
:10C6C400000AF8F79DFE2C4B1B682B4A126812795E
:10C6D40051B297F8DF26002A01D0042200E000229C
:10C6E4000A4352B2D2B21A7107F53F734FF00002F7
:10C6F4001A6007F53F7393ED000AF8F793FE1F4B9A
:10C704001B681E4A1268127951B297F8DF26002A74
:10C7140001D0042200E000220A4352B2D2B21A71BC
:10C7240007F53E734FF000021A6007F53E7393ED70
:10C73400000AF8F789FE124B1B68114A1268127935
:10C7440051B297F8DF26002A1CD004221BE000BF58
:10C754009020002094200020982000209C2000207D
:10C76400A0200020A4200020A8200020AC2000202D
:10C77400B0200020B4200020B8200020BC200020DD
:10C78400C020002000220A4352B2D2B21A7107F22A
:10C79400F62300221A8007F2F6231B881846F8F7BE
:10C7A40065FEA84B1B68A74A1268927851B297F8A5
:10C7B400DF26002A01D0042200E000220A4352B2FC
:10C7C400D2B29A7007F53D7300221A8007F53D73C3
:10C7D4001B881846F8F75CFE9B4B1B689A4A126844
:10C7E400927851B297F8DF26002A01D0042200E0A3
:10C7F40000220A4352B2D2B29A7007F2F323002203
:10C804001A7007F2F3231B781846F8F76FFE8F4B64
:10C814001B688E4A1268527851B297F8DF26002AB4
:10C8240001D0042200E000220A4352B2D2B25A706C
:10C8340007F2F22300221A7007F2F2231B7818463B
:10C84400F8F766FE824B1B68814A1268527851B22F
:10C8540097F8DF26002A01D0042200E000220A43D0
:10C8640052B2D2B25A7007F53C7300221A8007F50F
:10C874003C731B881846F8F75DFE764B1B68754AB7
:10C884001268927851B297F8DF26002A01D0042268
:10C8940000E000220A4352B2D2B29A7007F2EE23A9
:10C8A40000221A8007F2EE231B881846F8F760FE70
:10C8B400694B1B68684A1268927851B297F8DF2670
:10C8C400002A01D0042200E000220A4352B2D2B26C
:10C8D4009A7007F2ED2300221A7007F2ED231B78F9
:10C8E4001846F8F757FE5D4B1B685C4A126852788D
:10C8F40051B297F8DF26002A01D0042200E000227A
:10C904000A4352B2D2B25A7007F53B7300221A702E
:10C9140007F53B731B781846F8F74EFE504B1B681F
:10C924004F4A1268527851B297F8DF26002A01D094
:10C93400042200E000220A4352B2D2B25A7007F233
:10C94400EB2300221A7007F2EB231B781846F8F742
:10C9540045FE444B1B68434A1268527851B297F81B
:10C96400DF26002A01D0042200E000220A4352B24A
:10C97400D2B25A7007F2EA2300221A7007F2EA23AD
:10C984001B781846F8F73CFE374B1B68364A12688A
:10C99400527851B297F8DF26002A01D0042200E031
:10C9A40000220A4352B2D2B25A7007F2E92300229B
:10C9B4001A7007F2E9231B781846F8F73FFE2B4B51
:10C9C4001B682A4A1268527851B297F8DF26002A67
:10C9D40001D0042200E000220A4352B2D2B25A70BB
:10C9E40007F53A7300221A7007F53A731B78184654
:10C9F400F8F736FE1E4B1B681D4A1268527851B276
:10CA040097F8DF26002A01D0042200E000220A431E
:10CA140052B2D2B25A7007F2E72300221A7007F218
:10CA2400E7231B781846F8F72DFE124B1B68114AB2
:10CA34001268527851B297F8DF26002A1CD00422DB
:10CA44001BE000BFC4200020C8200020CC20002010
:10CA5400D0200020D4200020D8200020DC2000207A
:10CA6400E0200020E4200020E8200020EC2000202A
:10CA7400F0200020F420002000220A4352B2D2B257
:10CA84005A7007F2E62300221A7007F2E6231B7895
:10CA94001846F8F709FEA94B1B68A84A1268527891
:10CAA40051B297F8DF26002A01D0042200E00022C8
:10CAB4000A4352B2D2B25A7007F2E52300221A7026
:10CAC40007F2E5231B781846F8F700FE9C4B1B6819
:10CAD4009B4A1268527851B297F8DF26002A01D097
:10CAE400042200E000220A4352B2D2B25A7007F57F
:10CAF400397300221A7007F539731B781846F8F752
:10CB0400F7FD904B1B688F4A1268527851B297F820
:10CB1400DF26002A01D0042200E000220A4352B298
:10CB2400D2B25A7007F2E32300221A7007F2E32309
:10CB34001B781846F8F7EEFD834B1B68824A12688F
:10CB4400527851B297F8DF26002A01D0042200E07F
:10CB540000220A4352B2D2B25A7007F2E2230022F0
:10CB64001A7007F2E2231B781846F8F7E5FD774BB5
:10CB74001B68764A1268527851B297F8DF26002A69
:10CB840001D0042200E000220A4352B2D2B25A7009
:10CB940007F2E12300221A7007F2E1231B781846FA
:10CBA400F8F7DCFD6A4B1B68694A1268527851B287
:10CBB40097F8DF26002A01D0042200E000220A436D
:10CBC40052B2D2B25A7007F5387300221A7007F5C0
:10CBD40038731B781846F8F7D3FD5E4B1B685D4A23
:10CBE4001268527851B297F8DF26002A01D0042245
:10CBF40000E000220A4352B2D2B25A7007F2DF2395
:10CC040000221A7007F2DF231B781846F8F7CAFDD2
:10CC1400514B1B68504A1268527851B297F8DF267C
:10CC2400002A01D0042200E000220A4352B2D2B208
:10CC34005A7007F2DE2300221A7007F2DE231B78F3
:10CC44001846F8F7C1FD454B1B68444A12685278F0
:10CC540051B297F8DF26002A01D0042200E0002216
:10CC64000A4352B2D2B25A7007F5377300221A80BF
:10CC740007F537731B881846F8F7B8FD384B1B685F
:10CC8400374A1268927851B297F8DF26002A01D009
:10CC9400042200E000220A4352B2D2B29A7007F290
:10CCA400DA2300221A8007F2DA231B881846F8F7E1
:10CCB400AFFD2C4B1B682B4A1268927851B297F83F
:10CCC400DF26002A01D0042200E000220A4352B2E7
:10CCD400D2B29A7007F534724FF000034FF000049B
:10CCE400C2E9003407F53473D3E90001F8F7A2FD73
:10CCF4001D4B1B681C4A1268127A51B297F8DF2642
:10CD0400002A01D0042200E000220A4352B2D2B227
:10CD14001A7207F5337300221A6007F53373186823
:10CD2400F8F79AFD114B1B68104A1268127951B238
:10CD340097F8DF26002A1BD004221AE0F8200020EE
:10CD4400FC200020002100200421002008210020D4
:10CD54000C21002010210020142100201821002083
:10CD64001C21002020210020242100202821002033
:10CD740000220A4352B2D2B21A7107F2CB23002224
:10CD84001A7007F2CB231B781846F8F775FDA94BE8
:10CD94001B68A84A1268527851B297F8DF26002A15
:10CDA40001D0042200E000220A4352B2D2B25A70E7
:10CDB40007F2CA2300221A7007F2CA231B78184606
:10CDC400F8F76CFD9C4B1B689B4A1268527851B271
:10CDD40097F8DF26002A01D0042200E000220A434B
:10CDE40052B2D2B25A7007F2C92300221A7007F263
:10CDF400C9231B781846F8F763FD904B1B688F4ACC
:10CE04001268527851B297F8DF26002A01D0042222
:10CE140000E000220A4352B2D2B25A7007F53273CC
:10CE240000221A7007F532731B781846F8F75AFD7A
:10CE3400834B1B68824A1268527851B297F8DF26F6
:10CE4400002A01D0042200E000220A4352B2D2B2E6
:10CE54005A7007F2C72300221A7007F2C7231B78FF
:10CE64001846F8F751FD774B1B68764A12685278DA
:10CE740051B297F8DF26002A01D0042200E00022F4
:10CE84000A4352B2D2B25A7007F2C62300221A7071
:10CE940007F2C6231B781846F8F748FD6A4B1B684F
:10CEA400694A1268527851B297F8DF26002A01D0F5
:10CEB400042200E000220A4352B2D2B25A7007F2AE
:10CEC400C52300221A7007F2C5231B781846F8F709
:10CED4003FFD5E4B1B685D4A1268527851B297F869
:10CEE400DF26002A01D0042200E000220A4352B2C5
:10CEF400D2B25A7007F5317300221A7007F53173F4
:10CF04001B781846F8F736FD514B1B68504A1268D7
:10CF1400527851B297F8DF26002A01D0042200E0AB
:10CF240000220A4352B2D2B25A7007F2C32300223B
:10CF34001A7007F2C3231B781846F8F72DFD454BEA
:10CF44001B68444A1268527851B297F8DF26002AC7
:10CF540001D0042200E000220A4352B2D2B25A7035
:10CF640007F2C22300221A7007F2C2231B78184664
:10CF7400F8F724FD384B1B68374A1268527851B2CF
:10CF840097F8DF26002A01D0042200E000220A4399
:10CF940052B2D2B25A7007F52F734FF000021A60E2
:10CFA40007F52F7393ED000AF8F71AFD2B4B1B6856
:10CFB4002A4A1268127951B297F8DF26002A01D062
:10CFC400042200E000220A4352B2D2B21A7107F5D9
:10CFD4002E734FF000021A6007F52E7393ED000ACA
:10CFE400F8F71CFD1E4B1B681D4A1268127951B2DA
:10CFF40097F8DF26002A01D0042200E000220A4329
:10D0040052B2D2B21A7107F52D734FF000021A60B2
:10D0140007F52D7393ED000AF8F712FD114B1B6809
:10D02400104A1268127951B297F8DF26002A1BD0F1
:10D0340004221AE02C210020302100203421002079
:10D04400382100203C2100204021002044210020E0
:10D05400482100204C210020502100205421002090
:10D06400582100205C21002000220A4352B2D2B28F
:10D074001A7107F52C7300221A6007F52C731868CF
:10D08400F8F7F0FCA54B1B68A44A1268127951B258
:10D0940097F8DF26002A01D0042200E000220A4388
:10D0A40052B2D2B21A7107F52B7300221A6007F537
:10D0B4002B731868F8F7E6FC994B1B68984A1268BA
:10D0C400127951B297F8DF26002A01D0042200E039
:10D0D40000220A4352B2D2B21A7107F52A7300220F
:10D0E4001A6007F52A731868F8F7DCFC8D4B1B6887
:10D0F4008C4A1268127951B297F8DF26002A01D0BF
:10D10400042200E000220A4352B2D2B21A7107F597
:10D11400297300221A6007F529731868F8F7D2FCFE
:10D12400814B1B68804A1268127951B297F8DF2646
:10D13400002A01D0042200E000220A4352B2D2B2F3
:10D144001A7107F5287300221A6007F52873186806
:10D15400F8F7C8FC754B1B68744A1268127951B20F
:10D1640097F8DF26002A01D0042200E000220A43B7
:10D1740052B2D2B21A7107F29E2300221A8007F229
:10D184009E231B881846F8F7BDFC694B1B68684A48
:10D194001268927851B297F8DF26002A01D004224F
:10D1A40000E000220A4352B2D2B29A7007F5277304
:10D1B40000221A8007F527731B881846F8F7B4FC79
:10D1C4005C4B1B685B4A1268927851B297F8DF2671
:10D1D400002A01D0042200E000220A4352B2D2B253
:10D1E4009A7007F29A2300221A8007F29A231B8866
:10D1F4001846F8F7ABFC504B1B684F4A12689278FC
:10D2040051B297F8DF26002A01D0042200E0002260
:10D214000A4352B2D2B29A7007F5267300221A80DA
:10D2240007F526731B881846F8F7A2FC434B1B68C6
:10D23400424A1268927851B297F8DF26002A01D048
:10D24400042200E000220A4352B2D2B29A7007F2DA
:10D25400962300221A8007F296231B881846F8F7B3
:10D2640099FC374B1B68364A1268927851B297F88A
:10D27400DF26002A01D0042200E000220A4352B231
:10D28400D2B29A7007F5257300221A8007F5257328
:10D294001B881846F8F79CFC2A4B1B68294A12681D
:10D2A400927851B297F8DF26002A01D0042200E0D8
:10D2B40000220A4352B2D2B29A7007F29223002299
:10D2C4001A8007F292231B881846F8F79FFC1E4B1E
:10D2D4001B681D4A1268927851B297F8DF26002A1B
:10D2E40001D0042200E000220A4352B2D2B29A7062
:10D2F40007F5247300221A8007F524731B88184647
:10D30400F8F796FC114B1B68104A1268927851B2D8
:10D3140097F8DF26002A1BD004221AE0602100209F
:10D3240064210020682100206C210020702100204D
:10D3340074210020782100207C21002080210020FD
:10D3440084210020882100208C21002090210020AD
:10D3540000220A4352B2D2B29A7007F28E230022FC
:10D364001A8007F28E231B881846F8F773FCA84B23
:10D374001B68A74A1268927851B297F8DF26002AF0
:10D3840001D0042200E000220A4352B2D2B29A70C1
:10D3940007F5237300221A8007F523731B881846A8
:10D3A400F8F76AFC9B4B1B689A4A1268927851B250
:10D3B40097F8DF26002A01D0042200E000220A4365
:10D3C40052B2D2B29A7007F28A2300221A8007F26C
:10D3D4008A231B881846F8F761FC8F4B1B688E4A1A
:10D3E4001268927851B297F8DF26002A01D00422FD
:10D3F40000E000220A4352B2D2B29A7007F52273B7
:10D4040000221A8007F522731B881846F8F758FC87
:10D41400824B1B68814A1268927851B297F8DF26D2
:10D42400002A01D0042200E000220A4352B2D2B200
:10D434009A7007F2862300221A8007F286231B883B
:10D444001846F8F74FFC764B1B68754A12689278B9
:10D4540051B297F8DF26002A01D0042200E000220E
:10D464000A4352B2D2B29A7007F5217300221A808D
:10D4740007F521731B881846F8F746FC694B1B68AF
:10D48400684A1268927851B297F8DF26002A01D0D0
:10D49400042200E000220A4352B2D2B29A7007F288
:10D4A400822300221A8007F282231B881846F8F789
:10D4B4003DFC5D4B1B685C4A1268927851B297F848
:10D4C400DF26002A01D0042200E000220A4352B2DF
:10D4D400D2B29A7007F5207300221A8007F52073E0
:10D4E4001B881846F8F734FC504B1B684F4A1268E7
:10D4F400927851B297F8DF26002A01D0042200E086
:10D5040000220A4352B2D2B29A7007F27E2300225A
:10D514001A8007F27E231B881846F8F72BFC444B2D
:10D524001B68434A1268927851B297F8DF26002AA2
:10D5340001D0042200E000220A4352B2D2B29A700F
:10D5440007F51F7300221A8007F51F731B881846FE
:10D55400F8F722FC374B1B68364A1268927851B2AE
:10D5640097F8DF26002A01D0042200E000220A43B3
:10D5740052B2D2B29A7007F27A2300221A8007F2CA
:10D584007A231B881846F8F719FC2B4B1B682A4A88
:10D594001268927851B297F8DF26002A01D004224B
:10D5A40000E000220A4352B2D2B29A7007F51E7309
:10D5B40000221A8007F51E731B881846F8F710FC22
:10D5C4001E4B1B681D4A1268927851B297F8DF26E9
:10D5D400002A01D0042200E000220A4352B2D2B24F
:10D5E4009A7007F2762300221A8007F276231B88AA
:10D5F4001846F8F707FC124B1B68114A1268927818
:10D6040051B297F8DF26002A1CD004221BE000BF89
:10D6140094210020982100209C210020A02100209A
:10D62400A4210020A8210020AC210020B02100204A
:10D63400B4210020B8210020BC210020C0210020FA
:10D64400C421002000220A4352B2D2B29A7007F5D4
:10D654001C734FF000021A6007F51C7393ED000A67
:10D66400F8F7E2FBAD4B1B68AC4A1268127951B271
:10D6740097F8DF26002A01D0042200E000220A43A2
:10D6840052B2D2B21A7107F51B734FF000021A603E
:10D6940007F51B7393ED000AF8F7D8FBA04B1B6842
:10D6A4009F4A1268127951B297F8DF26002A01D0F6
:10D6B400042200E000220A4352B2D2B21A7107F5E2
:10D6C4001A734FF000021A6007F51A7393ED000AFB
:10D6D400F8F7CEFB934B1B68924A1268127951B249
:10D6E40097F8DF26002A01D0042200E000220A4332
:10D6F40052B2D2B21A7107F519734FF000021A60D0
:10D7040007F5197393ED000AF8F7C4FB864B1B6801
:10D71400854A1268127951B297F8DF26002A01D09F
:10D72400042200E000220A4352B2D2B21A7107F571
:10D7340018734FF000021A6007F5187393ED000A8E
:10D74400F8F7BAFB794B1B68784A1268127951B220
:10D7540097F8DF26002A01D0042200E000220A43C1
:10D7640052B2D2B21A7107F517734FF000021A6061
:10D7740007F5177393ED000AF8F7B0FB6C4B1B68C1
:10D784006B4A1268127951B297F8DF26002A01D049
:10D79400042200E000220A4352B2D2B21A7107F501
:10D7A40016734FF000021A6007F5167393ED000A22
:10D7B400F8F7A6FB5F4B1B685E4A1268127951B2F8
:10D7C40097F8DF26002A01D0042200E000220A4351
:10D7D40052B2D2B21A7107F515734FF000021A60F3
:10D7E40007F5157393ED000AF8F79CFB524B1B6881
:10D7F400514A1268127951B297F8DF26002A01D0F3
:10D80400042200E000220A4352B2D2B21A7107F590
:10D8140014734FF000021A6007F5147393ED000AB5
:10D82400F8F792FB454B1B68444A1268127951B2CF
:10D8340097F8DF26002A01D0042200E000220A43E0
:10D8440052B2D2B21A7107F513734FF000021A6084
:10D8540007F5137393ED000AF8F788FB384B1B6840
:10D86400374A1268127951B297F8DF26002A01D09C
:10D87400042200E000220A4352B2D2B21A7107F520
:10D8840012734FF000021A6007F5127393ED000A49
:10D89400F8F77EFB2B4B1B682A4A1268127951B2A7
:10D8A40097F8DF26002A01D0042200E000220A4370
:10D8B40052B2D2B21A7107F511734FF000021A6016
:10D8C40007F5117393ED000AF8F774FB1E4B1B6800
:10D8D4001D4A1268127951B297F8DF26002A01D046
:10D8E400042200E000220A4352B2D2B21A7107F5B0
:10D8F40010734FF000021A6007F5107393ED000ADD
:10D90400F8F76AFB114B1B68104A1268127951B27E
:10D9140097F8DF26002A1BD004221AE0C821002031
:10D92400CC210020D0210020D4210020D8210020A7
:10D93400DC210020E0210020E4210020E821002057
:10D94400EC210020F0210020F4210020F821002007
:10D9540000220A4352B2D2B21A7107F50F734FF084
:10D9640000021A6007F50F7393ED000AF8F746FBFF
:10D97400AD4B1B68AC4A1268127951B297F8DF2696
:10D98400002A01D0042200E000220A4352B2D2B29B
:10D994001A7107F50E734FF000021A6007F50E7343
:10D9A40093ED000AF8F73CFBA04B1B689F4A1268F2
:10D9B400127951B297F8DF26002A01D0042200E040
:10D9C40000220A4352B2D2B21A7107F50D734FF016
:10D9D40000021A6007F50D7393ED000AF8F732FBA5
:10D9E400934B1B68924A1268127951B297F8DF265A
:10D9F400002A01D0042200E000220A4352B2D2B22B
:10DA04001A7107F50C734FF000021A6007F50C73D6
:10DA140093ED000AF8F728FB864B1B68854A1268C9
:10DA2400127951B297F8DF26002A01D0042200E0CF
:10DA340000220A4352B2D2B21A7107F50B734FF0A7
:10DA440000021A6007F50B7393ED000AF8F71EFB4A
:10DA5400794B1B68784A1268127951B297F8DF261D
:10DA6400002A01D0042200E000220A4352B2D2B2BA
:10DA74001A7107F50A734FF000021A6007F50A736A
:10DA840093ED000AF8F714FB6C4B1B686B4A1268A1
:10DA9400127951B297F8DF26002A01D0042200E05F
:10DAA40000220A4352B2D2B21A7107F509734FF039
:10DAB40000021A6007F5097393ED000AF8F70AFBF0
:10DAC4005F4B1B685E4A1268127951B297F8DF26E1
:10DAD400002A01D0042200E000220A4352B2D2B24A
:10DAE4001A7107F508734FF000021A6007F50873FE
:10DAF40093ED000AF8F700FB524B1B68514A126879
:10DB0400127951B297F8DF26002A01D0042200E0EE
:10DB140000220A4352B2D2B21A7107F507734FF0CA
:10DB240000021A6007F5077393ED000AF8F7F6FA96
:10DB3400454B1B68444A1268127951B297F8DF26A4
:10DB4400002A01D0042200E000220A4352B2D2B2D9
:10DB54001A7107F506734FF000021A6007F5067391
:10DB640093ED000AF8F7ECFA384B1B68374A126851
:10DB7400127951B297F8DF26002A01D0042200E07E
:10DB840000220A4352B2D2B21A7107F505734FF05C
:10DB940000021A6007F5057393ED000AF8F7E2FA3C
:10DBA4002B4B1B682A4A1268127951B297F8DF2668
:10DBB400002A01D0042200E000220A4352B2D2B269
:10DBC4001A7107F504734FF000021A6007F5047325
:10DBD40093ED000AF8F7D8FA1E4B1B681D4A126829
:10DBE400127951B297F8DF26002A01D0042200E00E
:10DBF40000220A4352B2D2B21A7107F503734FF0EE
:10DC040000021A6007F5037393ED000AF8F7CEFAE1
:10DC1400114B1B68104A1268127951B297F8DF262B
:10DC2400002A1BD004221AE0FC210020002200203C
:10DC340004220020082200200C22002010220020B0
:10DC440014220020182200201C2200202022002060
:10DC540024220020282200202C22002000220A4313
:10DC640052B2D2B21A7107F502734FF000021A6071
:10DC740007F5027393ED000AF8F7AAFAAD4B1B6897
:10DC8400AC4A1268127951B297F8DF26002A01D003
:10DC9400042200E000220A4352B2D2B21A7107F5FC
:10DCA40001734FF000021A6007F5017393ED000A47
:10DCB400F8F7A0FAA04B1B689F4A1268127951B278
:10DCC40097F8DF26002A01D0042200E000220A434C
:10DCD40052B2D2B21A7107F500734FF000021A6003
:10DCE40007F5007393ED000AF8F796FA934B1B6857
:10DCF400924A1268127951B297F8DF26002A01D0AD
:10DD0400042200E000220A4352B2D2B21A7107F58B
:10DD1400FE734FF000021A6007F5FE7393ED000ADC
:10DD2400F8F78CFA864B1B68854A1268127951B24F
:10DD340097F8DF26002A01D0042200E000220A43DB
:10DD440052B2D2B21A7107F5FC734FF000021A6096
:10DD540007F5FC7393ED000AF8F782FA794B1B6818
:10DD6400784A1268127951B297F8DF26002A01D056
:10DD7400042200E000220A4352B2D2B21A7107F51B
:10DD8400FA734FF000021A6007F5FA7393ED000A74
:10DD9400F8F778FA6C4B1B686B4A1268127951B227
:10DDA40097F8DF26002A01D0042200E000220A436B
:10DDB40052B2D2B21A7107F5F8734FF000021A602A
:10DDC40007F5F87393ED000AF8F76EFA5F4B1B68DA
:10DDD4005E4A1268127951B297F8DF26002A01D000
:10DDE400042200E000220A4352B2D2B21A7107F5AB
:10DDF400F6734FF000021A6007F5F67393ED000A0C
:10DE0400F8F764FA524B1B68514A1268127951B2FE
:10DE140097F8DF26002A01D0042200E000220A43FA
:10DE240052B2D2B21A7107F5F4734FF000021A60BD
:10DE340007F5F47393ED000AF8F75AFA454B1B689B
:10DE4400444A1268127951B297F8DF26002A01D0A9
:10DE5400042200E000220A4352B2D2B21A7107F53A
:10DE6400F2734FF000021A6007F5F27393ED000AA3
:10DE7400F8F750FA384B1B68374A1268127951B2D6
:10DE840097F8DF26002A01D0042200E000220A438A
:10DE940052B2D2B21A7107F5F0734FF000021A6051
:10DEA40007F5F07393ED000AF8F746FA2B4B1B685D
:10DEB4002A4A1268127951B297F8DF26002A01D053
:10DEC400042200E000220A4352B2D2B21A7107F5CA
:10DED400EE734FF000021A6007F5EE7393ED000A3B
:10DEE400F8F73CFA1E4B1B681D4A1268127951B2AE
:10DEF40097F8DF26002A01D0042200E000220A431A
:10DF040052B2D2B21A7107F5EC734FF000021A60E4
:10DF140007F5EC7393ED000AF8F732FA114B1B681E
:10DF2400104A1268127951B297F8DF26002A1BD0E2
:10DF340004221AE03022002034220020382200205B
:10DF44003C220020402200204422002048220020BD
:10DF54004C2200205022002054220020582200206D
:10DF64005C2200206022002000220A4352B2D2B276
:10DF74001A7107F5EA734FF000021A6007F5EA73A5
:10DF840093ED000AF8F70EFAAB4B1B68AA4A126825
:10DF9400127951B297F8DF26002A01D0042200E05A
:10DFA40000220A4352B2D2B21A7107F5E8734FF055
:10DFB40000021A6007F5E87393ED000AF8F704FA13
:10DFC4009E4B1B689D4A1268127951B297F8DF265E
:10DFD400002A01D0042200E000220A4352B2D2B245
:10DFE4001A7107F5E6734FF000021A6007F5E6733D
:10DFF40093ED000AF8F7FAF9914B1B68904A1268FE
:10E00400127951B297F8DF26002A01D0042200E0E9
:10E0140000220A4352B2D2B21A7107F5E4734FF0E8
:10E0240000021A6007F5E47393ED000AF8F7F0F9BB
:10E03400844B1B68834A1268127951B297F8DF2621
:10E04400002A01D0042200E000220A4352B2D2B2D4
:10E054001A7107F5E2734FF000021A6007F5E273D4
:10E0640093ED000AF8F7E6F9774B1B68764A1268D5
:10E07400127951B297F8DF26002A01D0042200E079
:10E0840000220A4352B2D2B21A7107F5E0734FF07C
:10E0940000021A6007F5E07393ED000AF8F7DCF963
:10E0A4006A4B1B68694A1268127951B297F8DF26E5
:10E0B400002A01D0042200E000220A4352B2D2B264
:10E0C4001A7107F5DE734FF000021A6007F5DE736C
:10E0D40093ED000AF8F7D2F95D4B1B685C4A1268AD
:10E0E400127951B297F8DF26002A01D0042200E009
:10E0F40000220A4352B2D2B21A7107F5DC734FF010
:10E1040000021A6007F5DC7393ED000AF8F7C8F90A
:10E11400504B1B684F4A1268127951B297F8DF26A8
:10E12400002A01D0042200E000220A4352B2D2B2F3
:10E134001A7107F5DA734FF000021A6007F5DA7303
:10E1440093ED000AF8F7BEF9434B1B68424A126884
:10E15400127951B297F8DF26002A01D0042200E098
:10E1640000220A4352B2D2B21A7107F5D9730022BF
:10E174001A8007F5D9731B881846F8F7B5F9374B99
:10E184001B68364A1268927851B297F8DF26002A43
:10E1940001D0042200E000220A4352B2D2B29A70A3
:10E1A40007F5D87300221A8007F5D8731B88184620
:10E1B400F8F7ACF92A4B1B68294A1268927851B2D5
:10E1C40097F8DF26002A01D0042200E000220A4347
:10E1D40052B2D2B29A7007F2AF1300221A7007F249
:10E1E400AF131B781846F8F7BFF91E4B1B681D4A7E
:10E1F4001268527851B297F8DF26002A01D004221F
:10E2040000E000220A4352B2D2B25A7007F5D77323
:10E2140000221A7007F5D7731B781846F8F7B6F979
:10E22400114B1B68104A1268527851B297F8DF26D6
:10E23400002A1BD004221AE0642200206822002055
:10E244006C220020702200207422002078220020FA
:10E254007C220020802200208422002088220020AA
:10E264008C220020902200209422002000220A43C5
:10E2740052B2D2B25A7007F5D67300221A8007F54B
:10E28400D6731B881846F8F793F9A84B1B68A74A5E
:10E294001268927851B297F8DF26002A01D004223E
:10E2A40000E000220A4352B2D2B29A7007F5D57345
:10E2B40000221A8007F5D5731B881846F8F796F9DB
:10E2C4009B4B1B689A4A1268927851B297F8DF26E2
:10E2D400002A01D0042200E000220A4352B2D2B242
:10E2E4009A7007F2A91300221A7007F2A9131B7877
:10E2F4001846F8F78DF98F4B1B688E4A12685278CE
:10E3040051B297F8DF26002A01D0042200E000224F
:10E314000A4352B2D2B25A7007F5D47300221A706B
:10E3240007F5D4731B781846F8F784F9824B1B68F9
:10E33400814A1268527851B297F8DF26002A01D038
:10E34400042200E000220A4352B2D2B25A7007F209
:10E35400A71300221A7007F2A7131B781846F8F7C0
:10E364007BF9764B1B68754A1268527851B297F85C
:10E37400DF26002A01D0042200E000220A4352B220
:10E38400D2B25A7007F5D37300221A7007F5D3730B
:10E394001B781846F8F772F9694B1B68684A1268CB
:10E3A400527851B297F8DF26002A01D0042200E007
:10E3B40000220A4352B2D2B25A7007F2A5130022C5
:10E3C4001A7007F2A5131B781846F8F775F95D4B18
:10E3D4001B685C4A1268527851B297F8DF26002A0B
:10E3E40001D0042200E000220A4352B2D2B25A7091
:10E3F40007F5D27300221A7007F5D2731B781846FA
:10E40400F8F76CF9504B1B684F4A1268527851B2B6
:10E4140097F8DF26002A01D0042200E000220A43F4
:10E4240052B2D2B25A7007F2A31300221A7007F242
:10E43400A3131B781846F8F763F9444B1B68434A47
:10E444001268527851B297F8DF26002A01D00422CC
:10E4540000E000220A4352B2D2B25A7007F5D173D7
:10E4640000221A7007F5D1731B781846F8F75AF989
:10E47400374B1B68364A1268527851B297F8DF2638
:10E48400002A01D0042200E000220A4352B2D2B290
:10E494005A7007F2A11300221A7007F2A1131B7815
:10E4A4001846F8F751F92B4B1B682A4A1268527820
:10E4B40051B297F8DF26002A01D0042200E000229E
:10E4C4000A4352B2D2B25A7007F5D07300221A70BE
:10E4D40007F5D0731B781846F8F748F91E4B1B68EC
:10E4E4001D4A1268527851B297F8DF26002A01D0EB
:10E4F400042200E000220A4352B2D2B25A7007F258
:10E504009F1300221A7007F29F131B781846F8F71E
:10E514003FF9124B1B68114A1268527851B297F8AE
:10E52400DF26002A1CD004221BE000BF9822002012
:10E534009C220020A0220020A4220020A822002047
:10E54400AC220020B0220020B4220020B8220020F7
:10E55400BC220020C0220020C4220020C8220020A7
:10E5640000220A4352B2D2B25A7007F5CF73002286
:10E574001A7007F5CF731B781846F8F71BF9A94BE7
:10E584001B68A84A1268527851B297F8DF26002A0D
:10E5940001D0042200E000220A4352B2D2B25A70DF
:10E5A40007F29D1300221A7007F29D131B78184678
:10E5B400F8F712F99C4B1B689B4A1268527851B2C7
:10E5C40097F8DF26002A01D0042200E000220A4343
:10E5D40052B2D2B25A7007F5CE7300221A7007F500
:10E5E400CE731B781846F8F709F9904B1B688F4ACD
:10E5F4001268527851B297F8DF26002A01D004221B
:10E6040000E000220A4352B2D2B25A7007F29B13BE
:10E6140000221A7007F29B131B781846F8F700F9CA
:10E62400834B1B68824A1268527851B297F8DF26EE
:10E63400002A01D0042200E000220A4352B2D2B2DE
:10E644005A7007F5CD7300221A7007F5CD731B7845
:10E654001846F8F7F7F8774B1B68764A1268527831
:10E6640051B297F8DF26002A01D0042200E00022EC
:10E674000A4352B2D2B25A7007F5CC7300221A8000
:10E6840007F5CC731B881846F8F7EEF86A4B1B683D
:10E69400694A1268927851B297F8DF26002A01D0AD
:10E6A400042200E000220A4352B2D2B29A7007F563
:10E6B400CB7300221A8007F5CB731B881846F8F732
:10E6C400E5F85E4B1B685D4A1268927851B297F880
:10E6D400DF26002A01D0042200E000220A4352B2BD
:10E6E400D2B29A7007F5C4724FF000034FF00004E1
:10E6F400C2E9003407F5C473D3E90001F8F7D8F888
:10E704004F4B1B684E4A1268127A51B297F8DF26B3
:10E71400002A01D0042200E000220A4352B2D2B2FD
:10E724001A7207F5C27300221A6007F5C2731868DB
:10E73400F8F7D0F8434B1B68424A1268127951B279
:10E7440097F8DF26002A01D0042200E000220A43C1
:10E7540052B2D2B21A7107F2831300221A7007F26E
:10E7640083131B781846F8F7C5F8374B1B68364AED
:10E774001268527851B297F8DF26002A01D0042299
:10E7840000E000220A4352B2D2B25A7007F5C173B4
:10E7940000221A7007F5C1731B781846F8F7BCF805
:10E7A4002A4B1B68294A1268527851B297F8DF261F
:10E7B400002A01D0042200E000220A4352B2D2B25D
:10E7C4005A7007F2811300221A7007F281131B7822
:10E7D4001846F8F7B3F81E4B1B681D4A12685278A6
:10E7E40051B297F8DF26002A01D0042200E000226B
:10E7F4000A4352B2D2B25A7007F5C07300221A709B
:10E8040007F5C0731B781846F8F7AAF8114B1B6874
:10E81400104A1268527851B297F8DF26002A1BD0AA
:10E8240004221AE0CC220020D0220020D42200208E
:10E83400D8220020DC220020E0220020E422002054
:10E84400E8220020EC220020F0220020F422002004
:10E85400F8220020FC22002000220A4352B2D2B245
:10E864005A7007F27F1300221A7007F27F131B7885
:10E874001846F8F787F8A74B1B68A64A126852781F
:10E8840051B297F8DF26002A01D0042200E00022CA
:10E894000A4352B2D2B25A7007F5BF7300221A70FB
:10E8A40007F5BF731B781846F8F77EF89A4B1B6878
:10E8B400994A1268527851B297F8DF26002A01D09B
:10E8C400042200E000220A4352B2D2B25A7007F284
:10E8D4007D1300221A7007F27D131B781846F8F78F
:10E8E40075F88E4B1B688D4A1268527851B297F8AE
:10E8F400DF26002A01D0042200E000220A4352B29B
:10E90400D2B25A7007F5BE7300221A7007F5BE73AF
:10E914001B781846F8F76CF8814B1B68804A12681C
:10E92400527851B297F8DF26002A01D0042200E081
:10E9340000220A4352B2D2B25A7007F27B13002269
:10E944001A7007F27B131B781846F8F763F8754BB7
:10E954001B68744A1268527851B297F8DF26002A6D
:10E9640001D0042200E000220A4352B2D2B25A700B
:10E9740007F5BD7300221A7007F5BD731B7818469E
:10E98400F8F75AF8684B1B68674A1268527851B214
:10E9940097F8DF26002A01D0042200E000220A436F
:10E9A40052B2D2B25A7007F5BA734FF000021A602D
:10E9B40007F5BA7393ED000AF8F750F85B4B1B6840
:10E9C4005A4A1268127951B297F8DF26002A01D008
:10E9D400042200E000220A4352B2D2B21A7107F5AF
:10E9E400B8734FF000021A6007F5B87393ED000A8C
:10E9F400F8F752F84E4B1B684D4A1268127951B21F
:10EA040097F8DF26002A01D0042200E000220A43FE
:10EA140052B2D2B21A7107F5B6734FF000021A60FF
:10EA240007F5B67393ED000AF8F748F8414B1B68F5
:10EA3400404A1268127951B297F8DF26002A01D0B1
:10EA4400042200E000220A4352B2D2B21A7107F53E
:10EA5400B47300221A6007F5B4731868F8F740F825
:10EA6400354B1B68344A1268127951B297F8DF2685
:10EA7400002A01D0042200E000220A4352B2D2B29A
:10EA84001A7107F5B27300221A6007F5B273186899
:10EA9400F8F736F8294B1B68284A1268127951B2E4
:10EAA40097F8DF26002A01D0042200E000220A435E
:10EAB40052B2D2B21A7107F5B07300221A6007F588
:10EAC400B0731868F8F72CF81D4B1B681C4A1268C1
:10EAD400127951B297F8DF26002A01D0042200E00F
:10EAE40000220A4352B2D2B21A7107F5AE73002261
:10EAF4001A6007F5AE731868F8F722F8114B1B6813
:10EB0400104A1268127951B297F8DF26002A1BD0F6
:10EB140004221AE0002300200423002008230020FC
:10EB24000C2300201023002014230020182300208D
:10EB34001C2300202023002024230020282300203D
:10EB44002C2300203023002000220A4352B2D2B2E8
:10EB54001A7107F5AC7300221A6007F5AC731868D4
:10EB6400F7F7FEFFA74B1B68A64A1268127951B249
:10EB740097F8DF26002A01D0042200E000220A438D
:10EB840052B2D2B21A7107F5AB7300221A8007F59C
:10EB9400AB731B881846F7F7F3FF9B4B1B689A4A25
:10EBA4001268927851B297F8DF26002A01D0042225
:10EBB40000E000220A4352B2D2B29A7007F5AA7357
:10EBC40000221A8007F5AA731B881846F7F7EAFF94
:10EBD4008E4B1B688D4A1268927851B297F8DF26E3
:10EBE400002A01D0042200E000220A4352B2D2B229
:10EBF4009A7007F5A97300221A8007F5A9731B8878
:10EC04001846F7F7E1FF824B1B68814A1268927835
:10EC140051B297F8DF26002A01D0042200E0002236
:10EC24000A4352B2D2B29A7007F5A87300221A802E
:10EC340007F5A8731B881846F7F7D8FF754B1B68B0
:10EC4400744A1268927851B297F8DF26002A01D0EC
:10EC5400042200E000220A4352B2D2B29A7007F5AD
:10EC6400A77300221A8007F5A7731B881846F7F7C5
:10EC7400CFFF694B1B68684A1268927851B297F8C3
:10EC8400DF26002A01D0042200E000220A4352B207
:10EC9400D2B29A7007F5A67300221A8007F5A673FC
:10ECA4001B881846F7F7C6FF5C4B1B685B4A126863
:10ECB400927851B297F8DF26002A01D0042200E0AE
:10ECC40000220A4352B2D2B29A7007F5A573002209
:10ECD4001A8007F5A5731B881846F7F7BDFF504B3C
:10ECE4001B684F4A1268927851B297F8DF26002ABF
:10ECF40001D0042200E000220A4352B2D2B29A7038
:10ED040007F5A47300221A8007F5A4731B8818461C
:10ED1400F7F7B4FF434B1B68424A1268927851B22A
:10ED240097F8DF26002A01D0042200E000220A43DB
:10ED340052B2D2B29A7007F5A37300221A8007F573
:10ED4400A3731B881846F7F7ABFF374B1B68364A8B
:10ED54001268927851B297F8DF26002A01D0042273
:10ED640000E000220A4352B2D2B29A7007F5A273AD
:10ED740000221A8007F5A2731B881846F7F7A2FF32
:10ED84002A4B1B68294A1268927851B297F8DF26F9
:10ED9400002A01D0042200E000220A4352B2D2B277
:10EDA4009A7007F5A17300221A8007F5A1731B88D6
:10EDB4001846F7F799FF1E4B1B681D4A1268927894
:10EDC40051B297F8DF26002A01D0042200E0002285
:10EDD4000A4352B2D2B29A7007F5A07300221A8085
:10EDE40007F5A0731B881846F7F790FF114B1B68B3
:10EDF400104A1268927851B297F8DF26002A1BD085
:10EE040004221AE034230020382300203C2300206D
:10EE14004023002044230020482300204C230020CA
:10EE24005023002054230020582300205C2300207A
:10EE3400602300206423002000220A4352B2D2B28D
:10EE44009A7007F59F7300221A8007F59F731B8839
:10EE54001846F7F76DFFA54B1B68A44A1268927811
:10EE640051B297F8DF26002A01D0042200E00022E4
:10EE74000A4352B2D2B29A7007F59E7300221A80E6
:10EE840007F59E731B881846F7F764FF984B1B68B9
:10EE9400974A1268927851B297F8DF26002A01D077
:10EEA400042200E000220A4352B2D2B29A7007F55B
:10EEB4009D7300221A8007F59D731B881846F7F787
:10EEC4005BFF8C4B1B688B4A1268927851B297F89F
:10EED400DF26002A01D0042200E000220A4352B2B5
:10EEE400D2B29A7007F59C7300221A8007F59C73BE
:10EEF4001B881846F7F752FF7F4B1B687E4A12683F
:10EF0400927851B297F8DF26002A01D0042200E05B
:10EF140000220A4352B2D2B29A7007F59B730022C0
:10EF24001A8007F59B731B881846F7F749FF734B44
:10EF34001B68724A1268927851B297F8DF26002A49
:10EF440001D0042200E000220A4352B2D2B29A70E5
:10EF540007F59A7300221A8007F59A731B881846DE
:10EF6400F7F740FF664B1B68654A1268927851B206
:10EF740097F8DF26002A01D0042200E000220A4389
:10EF840052B2D2B29A7007F5997300221A8007F52B
:10EF940099731B881846F7F737FF5A4B1B68594A71
:10EFA4001268927851B297F8DF26002A01D0042221
:10EFB40000E000220A4352B2D2B29A7007F5967367
:10EFC40000221A6007F596731868F7F72FFF4E4B67
:10EFD4001B684D4A1268127951B297F8DF26002A4D
:10EFE40001D0042200E000220A4352B2D2B21A71C4
:10EFF40007F5947300221A6007F594731868F7F7FD
:10F0040025FF424B1B68414A1268127951B297F8A6
:10F01400DF26002A01D0042200E000220A4352B273
:10F02400D2B21A7107F5927300221A6007F592732F
:10F034001868F7F71BFF364B1B68354A12681279BC
:10F0440051B297F8DF26002A01D0042200E0002202
:10F054000A4352B2D2B21A7107F5907300221A60B1
:10F0640007F590731868F7F711FF2A4B1B68294AB4
:10F074001268127951B297F8DF26002A01D00422CF
:10F0840000E000220A4352B2D2B21A7107F58E731D
:10F0940000221A6007F58E731868F7F707FF1E4BF6
:10F0A4001B681D4A1268127951B297F8DF26002AAC
:10F0B40001D0042200E000220A4352B2D2B21A71F3
:10F0C40007F58C7300221A6007F58C731868F7F73C
:10F0D400FDFE124B1B68114A1268127951B297F85F
:10F0E400DF26002A1CD004221BE000BF6823002076
:10F0F4006C23002070230020742300207823002038
:10F104007C230020802300208423002088230020E7
:10F114008C23002090230020942300209823002097
:10F1240000220A4352B2D2B21A7107F58A7300223E
:10F134001A6007F58A731868F7F7D8FEA34B1B68A3
:10F14400A24A1268127951B297F8DF26002A01D038
:10F15400042200E000220A4352B2D2B21A7107F527
:10F16400887300221A6007F588731868F7F7CEFED3
:10F17400974B1B68964A1268127951B297F8DF26AA
:10F18400002A01D0042200E000220A4352B2D2B283
:10F194001A7107F5867300221A6007F586731868DA
:10F1A400F7F7C4FE8B4B1B688A4A1268127951B276
:10F1B40097F8DF26002A01D0042200E000220A4347
:10F1C40052B2D2B21A7107F5847300221A6007F59D
:10F1D40084731868F7F7BAFE7F4B1B687E4A12687F
:10F1E400127951B297F8DF26002A01D0042200E0F8
:10F1F40000220A4352B2D2B21A7107F58273002276
:10F204001A6007F582731868F7F7B0FE734B1B6832
:10F21400724A1268127951B297F8DF26002A01D097
:10F22400042200E000220A4352B2D2B21A7107F556
:10F23400807300221A6007F580731868F7F7A6FE3A
:10F24400674B1B68664A1268127951B297F8DF2639
:10F25400002A01D0042200E000220A4352B2D2B2B2
:10F264001A7107F1FC0300221A6007F1FC03186805
:10F27400F7F79CFE5B4B1B685A4A1268127951B22D
:10F2840097F8DF26002A01D0042200E000220A4376
:10F2940052B2D2B21A7107F1F80300221A6007F1D0
:10F2A400F8031868F7F792FE4F4B1B684E4A126832
:10F2B400127951B297F8DF26002A01D0042200E027
:10F2C40000220A4352B2D2B21A7107F1F4030022A7
:10F2D4001A6007F1F4031868F7F788FE434B1B68BC
:10F2E400424A1268127951B297F8DF26002A01D0F7
:10F2F400042200E000220A4352B2D2B21A7107F18A
:10F30400F00300221A6007F1F0031868F7F77EFE95
:10F31400374B1B68364A1268127951B297F8DF26C8
:10F32400002A01D0042200E000220A4352B2D2B2E1
:10F334001A7107F1EE0300221A8007F1EE031B880D
:10F344001846F7F773FE2B4B1B682A4A126892780B
:10F3540051B297F8DF26002A01D0042200E00022EF
:10F364000A4352B2D2B29A7007F1EC0300221A8017
:10F3740007F1EC031B881846F7F76AFE1E4B1B685F
:10F384001D4A1268927851B297F8DF26002A01D0FC
:10F39400042200E000220A4352B2D2B29A7007F16A
:10F3A400EA0300221A8007F1EA031B881846F7F7DC
:10F3B40061FE124B1B68114A1268927851B297F899
:10F3C400DF26002A1CD004221BE000BF9C2300205F
:10F3D400A0230020A4230020A8230020AC23002085
:10F3E400B0230020B4230020B8230020BC23002035
:10F3F400C0230020C4230020C8230020CC230020E5
:10F4040000220A4352B2D2B29A7007F1E8030022F2
:10F414001A8007F1E8031B881846F7F73DFEA84B4E
:10F424001B68A74A1268927851B297F8DF26002A1F
:10F4340001D0042200E000220A4352B2D2B29A70F0
:10F4440007F1E60300221A8007F1E6031B88184639
:10F45400F7F734FE9B4B1B689A4A1268927851B2B4
:10F4640097F8DF26002A01D0042200E000220A4394
:10F4740052B2D2B29A7007F1E40300221A8007F163
:10F48400E4031B881846F7F72BFE8F4B1B688E4A44
:10F494001268927851B297F8DF26002A01D004222C
:10F4A40000E000220A4352B2D2B29A7007F1E2039A
:10F4B40000221A8007F1E2031B881846F7F722FEA0
:10F4C400824B1B68814A1268927851B297F8DF2602
:10F4D400002A01D0042200E000220A4352B2D2B230
:10F4E4009A7007F1E00300221A8007F1E0031B88F9
:10F4F4001846F7F719FE764B1B68754A126892781E
:10F5040051B297F8DF26002A01D0042200E000223D
:10F514000A4352B2D2B29A7007F1DE0300221A8073
:10F5240007F1DE031B881846F7F710FE694B1B68CA
:10F53400684A1268927851B297F8DF26002A01D0FF
:10F54400042200E000220A4352B2D2B29A7007F1B8
:10F55400DC0300221A8007F1DC031B881846F7F746
:10F5640007FE5D4B1B685C4A1268927851B297F8AB
:10F57400DF26002A01D0042200E000220A4352B20E
:10F58400D2B29A7007F1DA0300221A8007F1DA0383
:10F594001B881846F7F7FEFD504B1B684F4A12684C
:10F5A400927851B297F8DF26002A01D0042200E0B5
:10F5B40000220A4352B2D2B29A7007F1D803002251
:10F5C4001A8007F1D8031B881846F7F7F5FD444B5A
:10F5D4001B68434A1268927851B297F8DF26002AD2
:10F5E40001D0042200E000220A4352B2D2B29A703F
:10F5F40007F1D60300221A8007F1D6031B881846A8
:10F60400F7F7ECFD374B1B68364A1268927851B213
:10F6140097F8DF26002A01D0042200E000220A43E2
:10F6240052B2D2B29A7007F1D40300221A8007F1C1
:10F63400D4031B881846F7F7E3FD2B4B1B682A4AB3
:10F644001268927851B297F8DF26002A01D004227A
:10F6540000E000220A4352B2D2B29A7007F1D203F8
:10F6640000221A8007F1D2031B881846F7F7DAFD47
:10F674001E4B1B681D4A1268927851B297F8DF2618
:10F68400002A01D0042200E000220A4352B2D2B27E
:10F694009A7007F1D00300221A8007F1D0031B8867
:10F6A4001846F7F7D1FD124B1B68114A126892787D
:10F6B40051B297F8DF26002A1CD004221BE000BFB9
:10F6C400D0230020D4230020D8230020DC230020D2
:10F6D400E0230020E4230020E8230020EC23002082
:10F6E400F0230020F4230020F8230020FC23002032
:10F6F4000024002000220A4352B2D2B29A7007F1C9
:10F70400CC0300221A6007F1CC031868F7F7AEFDAA
:10F71400A04B1B689F4A1268127951B297F8DF26F2
:10F72400002A01D0042200E000220A4352B2D2B2DD
:10F734001A7107F1C0024FF000034FF00004C2E950
:10F74400003407F1C003D3E90001F7F7ABFD924B96
:10F754001B68914A1268127A51B297F8DF26002A80
:10F7640001D0042200E000220A4352B2D2B21A723B
:10F7740007F1B8024FF000034FF00004C2E900346F
:10F7840007F1B803D3E90001F7F79EFD834B1B682B
:10F79400824A1268127A51B297F8DF26002A01D001
:10F7A400042200E000220A4352B2D2B21A7207F1D4
:10F7B400B0024FF000034FF00004C2E9003407F137
:10F7C400B003D3E90001F7F791FD754B1B68744A48
:10F7D4001268127A51B297F8DF26002A01D0042267
:10F7E40000E000220A4352B2D2B21A7207F1A80210
:10F7F4004FF000034FF00004C2E9003407F1A803FE
:10F80400D3E90001F7F784FD664B1B68654A12686B
:10F81400127A51B297F8DF26002A01D0042200E0C0
:10F8240000220A4352B2D2B21A7207F1A0024FF078
:10F8340000034FF00004C2E9003407F1A003D3E948
:10F844000001F7F777FD584B1B68574A1268127A84
:10F8540051B297F8DF26002A01D0042200E00022EA
:10F864000A4352B2D2B21A7207F198024FF000035F
:10F874004FF00004C2E9003407F19803D3E9000112
:10F88400F7F76AFD494B1B68484A1268127A51B26D
:10F8940097F8DF26002A01D0042200E000220A4360
:10F8A40052B2D2B21A7207F190024FF000034FF035
:10F8B4000004C2E9003407F19003D3E90001F7F72B
:10F8C4005DFD3B4B1B683A4A1268127A51B297F8B5
:10F8D400DF26002A01D0042200E000220A4352B2AB
:10F8E400D2B21A7207F188024FF000034FF00004FD
:10F8F400C2E9003407F18803D3E90001F7F750FDAA
:10F904002C4B1B682B4A1268127A51B297F8DF26E7
:10F91400002A01D0042200E000220A4352B2D2B2EB
:10F924001A7207F180024FF000034FF00004C2E99D
:10F93400003407F18003D3E90001F7F743FD1E4BC0
:10F944001B681D4A1268127A51B297F8DF26002A02
:10F9540001D0042200E000220A4352B2D2B21A7249
:10F9640007F178024FF000034FF00004C2E90034BD
:10F9740007F17803D3E90001F7F736FD0F4B1B6855
:10F984000E4A1268127A51B297F8DF26002A17D06D
:10F99400042216E004240020082400200C24002063
:10F9A4001024002014240020182400201C240020EB
:10F9B4002024002024240020282400202C2400209B
:10F9C40000220A4352B2D2B21A7207F170024FF007
:10F9D40000034FF00004C2E9003407F17003D3E9D7
:10F9E4000001F7F713FDA74B1B68A64A1268127AA9
:10F9F40051B297F8DF26002A01D0042200E0002249
:10FA04000A4352B2D2B21A7207F168024FF00003ED
:10FA14004FF00004C2E9003407F16803D3E90001A0
:10FA2400F7F706FD984B1B68974A1268127A51B291
:10FA340097F8DF26002A01D0042200E000220A43BE
:10FA440052B2D2B21A7207F160024FF000034FF0C3
:10FA54000004C2E9003407F16003D3E90001F7F7B9
:10FA6400F9FC8A4B1B68894A1268127A51B297F8DA
:10FA7400DF26002A01D0042200E000220A4352B209
:10FA8400D2B21A7207F158024FF000034FF000048B
:10FA9400C2E9003407F15803D3E90001F7F7ECFC9D
:10FAA4007B4B1B687A4A1268127A51B297F8DF26A8
:10FAB400002A01D0042200E000220A4352B2D2B24A
:10FAC4001A7207F150024FF000034FF00004C2E92C
:10FAD400003407F15003D3E90001F7F7DFFC6D4B65
:10FAE4001B686C4A1268127A51B297F8DF26002A12
:10FAF40001D0042200E000220A4352B2D2B21A72A8
:10FB040007F148024FF000034FF00004C2E900344B
:10FB140007F14803D3E90001F7F7D2FC5E4B1B68F9
:10FB24005D4A1268127A51B297F8DF26002A01D092
:10FB3400042200E000220A4352B2D2B21A7207F140
:10FB440044034FF000021A6007F1440393ED000AE6
:10FB5400F7F7C8FC514B1B68504A1268127951B22E
:10FB640097F8DF26002A01D0042200E000220A438D
:10FB740052B2D2B21A7107F140034FF000021A6078
:10FB840007F1400393ED000AF7F7BEFC444B1B68F2
:10FB9400434A1268127951B297F8DF26002A01D03D
:10FBA400042200E000220A4352B2D2B21A7107F1D1
:10FBB4003C034FF000021A6007F13C0393ED000A86
:10FBC400F7F7B4FC374B1B68364A1268127951B206
:10FBD40097F8DF26002A01D0042200E000220A431D
:10FBE40052B2D2B21A7107F138034FF000021A6010
:10FBF40007F1380393ED000AF7F7AAFC2A4B1B68B8
:10FC0400294A1268127951B297F8DF26002A01D0E6
:10FC1400042200E000220A4352B2D2B21A7107F160
:10FC240034034FF000021A6007F1340393ED000A25
:10FC3400F7F7A0FC1D4B1B681C4A1268127951B2DD
:10FC440097F8DF26002A01D0042200E000220A43AC
:10FC540052B2D2B21A7107F130034FF000021A60A7
:10FC640007F1300393ED000AF7F796FC104B1B687D
:10FC74000F4A1268127951B297F8DF26002A19D078
:10FC8400042218E0302400203424002038240020EA
:10FC94003C24002040240020442400204824002048
:10FCA4004C240020502400205424002058240020F8
:10FCB4005C24002000220A4352B2D2B21A7107F126
:10FCC4002C034FF000021A6007F12C0393ED000A95
:10FCD400F7F774FC964B1B68954A1268127951B277
:10FCE40097F8DF26002A01D0042200E000220A430C
:10FCF40052B2D2B21A7107F128034FF000021A600F
:10FD040007F1280393ED000AF7F76AFC894B1B6897
:10FD1400884A1268127951B297F8DF26002A01D076
:10FD2400042200E000220A4352B2D2B21A7107F14F
:10FD340024034FF000021A6007F1240393ED000A34
:10FD4400F7F760FC7C4B1B687B4A1268127951B24E
:10FD540097F8DF26002A01D0042200E000220A439B
:10FD640052B2D2B21A7107F120034FF000021A60A6
:10FD740007F1200393ED000AF7F756FC6F4B1B685D
:10FD84006E4A1268127951B297F8DF26002A01D020
:10FD9400042200E000220A4352B2D2B21A7107F1DF
:10FDA4001C034FF000021A6007F11C0393ED000AD4
:10FDB400F7F74CFC624B1B68614A1268127951B226
:10FDC40097F8DF26002A01D0042200E000220A432B
:10FDD40052B2D2B21A7107F118034FF000021A603E
:10FDE40007F1180393ED000AF7F742FC554B1B6823
:10FDF400544A1268127951B297F8DF26002A01D0CA
:10FE0400042200E000220A4352B2D2B21A7107F16E
:10FE140014034FF000021A6007F1140393ED000A73
:10FE2400F7F738FC484B1B68474A1268127951B2FD
:10FE340097F8DF26002A01D0042200E000220A43BA
:10FE440052B2D2B21A7107F110034FF000021A60D5
:10FE540007F1100393ED000AF7F72EFC3B4B1B68E8
:10FE64003A4A1268127951B297F8DF26002A01D073
:10FE7400042200E000220A4352B2D2B21A7107F1FE
:10FE84000C034FF000021A6007F10C0393ED000A13
:10FE9400F7F724FC2E4B1B682D4A1268127951B2D5
:10FEA40097F8DF26002A01D0042200E000220A434A
:10FEB40052B2D2B21A7107F108034FF000021A606D
:10FEC40007F1080393ED000AF7F71AFC214B1B68AE
:10FED400204A1268127951B297F8DF26002A01D01D
:10FEE400042200E000220A4352B2D2B21A71BB1DAE
:10FEF40000221A80BB1D1B881846F7F713FC164B0B
:10FF04001B68154A1268927851B297F8DF26002AC6
:10FF140001D0042200E000220A4352B2D2B29A7005
:10FF240007F04AFA00BF07F2E467BD4690BD00BF80
:10FF34006024002064240020682400206C24002015
:10FF44007024002074240020782400207C240020C5
:10FF540080240020842400208824002080B582B0DE
:10FF640000AFC7E90001D7E9000107F03BFA00BF81
:10FF74000837BD4680BD0000B0B58AB002AF00238B
:10FF8400FB6100F01FF9F861644BB3F8053098B2D7
:10FF9400624BD3F80710614BD3F80F205F4BD3F8B3
:10FFA40013405E4BD3F80B300093234601F0D4F892
:10FFB4005B4B3C461D460FCD0FC495E8070084E813
:10FFC4000700584B1B68DB683A4657491046984768
:10FFD4000246564B1A60564B0022DA8300221A84DA
:10FFE400534B544AC3F82220514B00225A64504BBD
:0CFFF400514A9A644E4B0022A3F86A2088
:020000040811E1
:100000000022A3F86C204B4B4D4AC3F86E20494B9D
:100010000022C3F89020474B4A4AC3F89420454B2E
:100020000022A3F8B6200022A3F8B820414B464A8C
:10003000C3F8BA203F4B0022C3F8DC203D4B434AB3
:10004000C3F8E0203B4B0022A3F802210022A3F8D2
:100050000421384B3E4AC3F80621364B0022C3F830
:100060002821344B3B4AC3F82C21324B0022A3F801
:100070004E210022A3F850212E4B374AC3F85221BB
:100080002C4B0022C3F874212A4B344AC3F8782140
:10009000284B0022A3F89A210022A3F89C21254B8B
:1000A0002F4AC3F89E21234B0022C3F8C021214BC5
:1000B0002C4AC3F8C4212C4B234A1A602B4B234AE9
:1000C0001A602B4B224A1A602A4B224A1A602A4B8A
:1000D0002A4A1A602A4B2B4A1A602B4B2B4A1A6069
:1000E0002B4B2C4A1A602C4B134A1A602B4B134A89
:1000F0001A602B4B124A1A602A4B124A1A602A4B7A
:100100002A4A1A602A4B2B4A1A602B4B2B4A1A6038
:100110002B4B2C4A1A60FB6918462037BD46B0BDF0
:1001200098240020F8931108E42A0020043B0020C2
:10013000083B0020C8240020943A0020A83A002060
:10014000BC3A0020D03A0020E43A0020E83A0020EF
:10015000EC3A0020F03A0020F43A0020F83A00206F
:10016000FC3A0020003B0020543A0020583A00207E
:100170005C3A0020603A0020643A00209A3A00205D
:10018000683A0020AE3A00206C3A0020C23A0020C3
:10019000703A0020D63A0020743A0020783A0020C5
:1001A0007C3A0020803A0020843A0020F63A002071
:1001B000883A0020FA3A00208C3A0020FE3A0020CB
:1001C000903A0020023B002080B485B000AF0023AD
:1001D000FB6000237B8100BF00233B8100BFFB68E5
:1001E00018461437BD465DF8047B704780B588B06B
:1001F00000AF0023BB6100237B6101237B600023F0
:100200007B8200BF1E4B1B68D3F810313A1D07F1EB
:10021000080149F64040984778617B69002B29D056
:100220000023FB7721E0164B1B685B6EFA7F1146BB
:1002300078699847F860FB68002B13D0FB685B680F
:100240001A46104B9A420DD3FB685B6819460D4A5B
:100250000D4B1344994205D2094B1B681B6EF9687C
:1002600078699847FB7F0133FB77FA7F7B699B684E
:100270009A42D8D3BB6918462037BD4680BD00BF1F
:10028000E42A00200000002000CC010090B589B0D5
:1002900000AFB96011461A460346FB810B46BB818D
:1002A0001346FB800023FB6100237B610023BB61BD
:1002B0002A4B1B68D3F81441BA89F8893B6BB9689B
:1002C000A047F861254B1B68D3F82031F86998479F
:1002D00078617B69002B32DD204B1B68D3F8183125
:1002E0007969F86998470346002B1AD01B4B1B68A5
:1002F000D3F81C31BA1DB968F869984738613A6972
:100300007B699A4209D04FF0FF33BB61134B1B68E6
:10031000D3F8FC301F20984701E0FB88BB61002325
:10032000FB610E4B1B68D3F8D83098470B4B1B680A
:100330005B6A01209847FB69002BCDD109E0074B90
:100340001B68D3F800317969054898474FF0FF33AF
:10035000BB61BB6918462437BD4690BDE42A002026
:100360001494110890B589B000AF78607B681B6861
:100370007B61644B1B689B6898470346FB60614B3D
:100380001B68D3F80031604898470023FB770023AF
:10039000FB770023BB61A7E05C4ABB69262101FB18
:1003A00003F31344D3F806207B699A4240F0988007
:1003B0000123FB77B86900F0ADF838613B69693318
:1003C000042B5BD801A252F823F000BF4B041108A4
:1003D00007041108290411087D041108E10311081C
:1003E000484B1B68D3F8FC306420984748497A6929
:1003F00013465B0013441B019B1A0B4420333A69DC
:10040000C3F8072057E03F4B1B68D3F8FC3064204B
:1004100098473E4ABB69262101FB03F3134410337E
:100420003A69C3F8062046E0364B1B68D3F8FC3027
:1004300064209847354ABB69262101FB03F3134426
:1004400010333A69C3F8062035E02E4B1B68D3F809
:10045000FC30642098472D4ABB69262101FB03F339
:10046000134415331B781846284ABB69262101FB23
:1004700003F313441033C3F806001CE024497A69DF
:1004800013465B0013441B019B1A0B4420330022CC
:10049000DA7100221A7200225A7200229A721B4AE2
:1004A000BB69262101FB03F3134410330022DA80D9
:1004B00000221A8100BF134B1B68D3F8A4401449D3
:1004C0007A6913465B0013441B019B1A0B442033CB
:1004D000D3F8032007F10C0311461846A04700E0AB
:1004E00000BFBB690133BB61BB690B2B7FF754AF06
:1004F000FB7F002B7FF44BAF024B1B685B6A012034
:10050000984744E7E42A002028941108C8240020D2
:1005100098240020F0B589B006AF78609D4A7B68CA
:10052000262101FB03F313440C331B78013B0F2BF3
:1005300000F2A58201A252F823F000BF7D05110848
:100540002F061108E1061108990711084B08110838
:10055000CD0811087F0A11087F0A11087F0A1108C7
:100560007F0A11087F0A11087F0A11087F0A110803
:100570007F0A11084F091108E7091108854A7B68AD
:10058000262101FB03F313440A331E78814A7B685A
:10059000262101FB03F313440833B3F805301FFA97
:1005A00083FE7C4A7B68262101FB03F31344083356
:1005B000B3F807301FFA83FC764A7B68262101FBDB
:1005C00003F313442033D3F8023072497A682620AB
:1005D00000FB02F20A440832B2F8072092B23A60F5
:1005E0006C497A68262000FB02F20A440432128821
:1005F0007968262000FB01F110316648014405317D
:10060000644C7868262505FB00F020441830D0F8AB
:1006100002000490039102923A68019200936346AB
:1006200072463146012000F033FA03462AE2594A65
:100630007B68262101FB03F313440A331E78554AD5
:100640007B68262101FB03F313440833B3F805301C
:100650001FFA83FE4F4A7B68262101FB03F31344F4
:100660000833B3F807301FFA83FC4A4A7B68262117
:1006700001FB03F313442033D3F8023045497A6871
:10068000262000FB02F20A440832B2F8072092B298
:100690003A6040497A68262000FB02F20A4404329C
:1006A00012887968262000FB01F110313948014495
:1006B0000531384C7868262505FB00F020441830B9
:1006C000D0F802000490039102923A6801920093DC
:1006D000634672463146022000F0DAF90346D1E162
:1006E0002C4A7B68262101FB03F313440A331E784E
:1006F000284A7B68262101FB03F313440833B3F82F
:1007000005301FFA83FE234A7B68262101FB03F391
:1007100013440833B3F807301FFA83FC1D4A7B6883
:10072000262101FB03F313442033D3F80230194987
:100730007A68262000FB02F20A440832B2F8072049
:1007400092B23A6013497A68262000FB02F20A440A
:10075000043212887968262000FB01F110310D481F
:10076000014405310B4C7868262505FB00F0204438
:100770001830D0F802000490039102923A68019276
:100780000093634672463146032000F071FA034637
:1007900078E100BFC8240020BC4A7B68262101FB09
:1007A00003F313440A331E78B84A7B68262101FB01
:1007B00003F313440833B3F805301FFA83FEB34A3A
:1007C0007B68262101FB03F313440833B3F8073099
:1007D0001FFA83FCAD4A7B68262101FB03F3134417
:1007E0002033D3F80230A9497A68262000FB02F2B0
:1007F0000A440832B2F8072092B23A60A3497A68F4
:10080000262000FB02F20A4404321288796826206E
:1008100000FB01F110319D48014405319B4C786883
:10082000262505FB00F020441830D0F80200049083
:10083000039102923A6801920093634672463146F0
:10084000042000F015FA03461CE1904A7B6826213B
:1008500001FB03F313440A331D788C4A7B6826217D
:1008600001FB03F313440833B3F805309EB2874A03
:100870007B68262101FB03F313442033D3F80230B5
:10088000B3F800E0814A7B68262101FB03F313449F
:1008900004331B887A68262101FB02F210327B495F
:1008A0000A44053279487968262404FB01F10144A1
:1008B0001831D1F80210029101920093734632462A
:1008C0002946052000F0A6FA0346DBE06F4A7B6864
:1008D000262101FB03F313440A331D786B4A7B681E
:1008E000262101FB03F313440833B3F805309EB20D
:1008F000664A7B68262101FB03F313442033D3F8B7
:100900000230B3F800E0614A7B68262101FB03F363
:10091000134404331B887A68262101FB02F210324B
:100920005A490A44053259487968262404FB01F1E2
:1009300001441831D1F802100291019200937346DC
:1009400032462946062000F065FA03469AE04F4AEF
:100950007B68262101FB03F313440A331E784B4ABC
:100960007B68262101FB03F313440833B3F80530F9
:100970001FFA83FE454A7B68262101FB03F31344DB
:100980002033D3F802C0414A7B68262101FB03F3E0
:1009900013440833B3F807309BB2DBB23B497A68A3
:1009A000262000FB02F20A440432128879682620CD
:1009B00000FB01F11031354801440531334C7868B2
:1009C000262505FB00F020441830D0F802000390E3
:1009D0000291019200936346724631460F2000F067
:1009E0008DFA03464EE0294A7B68262101FB03F37A
:1009F00013440A331E78254A7B68262101FB03F342
:100A000013440833B3F805301FFA83FE1F4A7B688E
:100A1000262101FB03F313442033D3F802C01B4A01
:100A20007B68262101FB03F313440833B3F8073036
:100A30009BB2DBB215497A68262000FB02F20A4419
:100A4000043212887968262000FB01F110310F482A
:100A5000014405310D4C7868262505FB00F0204443
:100A60001830D0F80200039002910192009363467F
:100A700072463146102000F0D9FA034602E000BF6A
:100A80004FF0FF3318460C37BD46F0BDC824002098
:100A9000B0B5CEB002AF05460C4610461946FB1D58
:100AA0002A461A70BB1D22461A703B1D02461A8048
:100AB000BB1C0A461A800023C7F824310023C7F85C
:100AC00020310023C7F81C31684B1B68D3F828413C
:100AD000BB1C1D883B1D1A88FB1D1978BB1D18788F
:100AE00007F10C030193002300932B46A047C7F89E
:100AF0001801D7F81831002B04DC6FF06503C7F834
:100B00001C31ACE0D7F818319AB207F10C01B7F8F4
:100B10004801D7F85031009340F20513FFF7B6FBB8
:100B2000C7F81401D7F81431002B04DCD7F81431BE
:100B3000C7F81C3193E007F10C039B781A46BB1CE5
:100B40001B880733002B00DA0733DB109A4206D1EB
:100B500007F10C031B78BA1D12789A4204D06FF08B
:100B60006703C7F81C317AE007F10C039B789BB24E
:100B70000533A7F812313D4B1B68D3F82C31B7F879
:100B8000121107F10C02104698470346002B62D061
:100B9000D7F84031002B5ED0344B1B68D3F8D030EF
:100BA00098470023C7F82C3142E0D7F82C310333A3
:100BB00007F10C02D35C87F811310123C7F8283103
:100BC00026E0D7F82831DAB297F811311340DBB2BA
:100BD000002B07D0D7F82431D7F840211344012245
:100BE0001A7006E0D7F82431D7F8402113440022C8
:100BF0001A70D7F820310133C7F82031D7F82831DF
:100C00005B00C7F82831D7F824310133C7F8243105
:100C1000D7F82831DBB2002B05D0BB1C1A88D7F8D7
:100C200020319A42CDDCD7F82C310133C7F82C3172
:100C300007F10C039B781A46D7F82C319A4205DD50
:100C4000D7F82C21D7F844319A42AEDB074B1B680A
:100C5000D3F8D4309847D7F81431C7F81C31D7F8F7
:100C60001C31184607F59877BD46B0BDE42A002030
:100C7000B0B5CAB002AF05460C4610461946FB1D7A
:100C80002A461A70BB1D22461A703B1D02461A8066
:100C9000BB1C0A461A800023C7F81C310023C7F882
:100CA00018315B4B1B68D3F82841BB1C1D883B1DCA
:100CB0001A88FB1D1978BB1D187807F108030193EA
:100CC000002300932B46A047C7F81401D7F814312E
:100CD000002B04DC6FF06503C7F8183190E0D7F8FB
:100CE00014319AB207F10801B7F83801D7F840314A
:100CF000009340F20513FFF7C9FAC7F81001D7F8BF
:100D00001031C7F81831D7F81031002B06DC404BF2
:100D10001B68D3F8FC306420984771E007F10803A2
:100D20009B781A46BB1C1B885B009A4206D107F1D0
:100D300008031B78BA1D12789A4204D06FF067033B
:100D4000C7F818315CE0D7F83031002B58D007F1E4
:100D500008039B789BB20533A7F80E312C4B1B6818
:100D6000D3F82C31B7F80E1107F108021046984756
:100D70000346002B3ED0264B1B68D3F8D030984753
:100D80000023C7F81C311FE0D7F81C315B00D7F8EF
:100D900030211344D7F81C215200033207F1080117
:100DA0008A5C92B2120291B2D7F81C210232520030
:100DB00007F10800825C92B20A4392B21A80D7F817
:100DC0001C310133C7F81C3107F108039B785B081D
:100DD000DBB21A46D7F81C319A4205DDD7F81C2140
:100DE000D7F834319A42CFDB094B1B68D3F8D430A3
:100DF000984705E0064B1B68D3F8FC306420984701
:100E0000D7F81831184607F59077BD46B0BD00BF3A
:100E1000E42A0020B0B5CAB002AF05460C46104621
:100E20001946FB1D2A461A70BB1D22461A703B1D2F
:100E300002461A80BB1C0A461A802F4B1B68D3F847
:100E400028413B1D1A88FB1D1978BB1D187807F136
:100E50000C030193BB1C00930123A047C7F81801A2
:100E6000D7F81831002B04DA6FF06503C7F81C318E
:100E70003AE0D7F818319AB207F10C01B7F830010F
:100E8000D7F83831009340F20513FFF7FFF9C7F8A0
:100E900014010823A7F81231B7F81221D7F814313A
:100EA0009A4204DD6FF06703C7F81C311CE0124B57
:100EB0001B68D3F82C31B7F8121107F10C02104659
:100EC00098470346002B06D007F10C031B78BA1D88
:100ED00012789A4204D06FF06703C7F81C3103E020
:100EE000D7F81431C7F81C31D7F81C31184607F56C
:100EF0009077BD46B0BD00BFE42A0020B0B5CAB0AF
:100F000002AF0446084611463A461360FB1D2246CE
:100F10001A70BB1D02461A703B1D0A461A8097F8CC
:100F20003031FF2B08D1FE2387F830313D4B1B6851
:100F3000D3F800313C4898473A4B1B68D3F8284116
:100F400097F830319DB23B1D1A88FB1D1978BB1DE7
:100F5000187807F10C0301933B461B6800932B465E
:100F6000A047C7F81801D7F81831002B04DA6FF042
:100F70006503C7F81C314DE0D7F818319AB207F174
:100F80000C01B7F83401D7F83C31009340F2051357
:100F9000FFF77CF9C7F81401D7F81431002B04DCF3
:100FA000D7F81431C7F81C3134E007F10C031B7873
:100FB000BA1D12789A4224D107F10C035B78FA1D0E
:100FC00012789A421DD107F10C039A783B1D1B88B9
:100FD0001B0A9BB2DBB29A4213D107F10C03DA78F9
:100FE0003B1D1B88DBB29A420BD107F10C031B7926
:100FF000002B06D107F10C035B7997F830219A4258
:1010000004D06FF06703C7F81C3103E0D7F8143140
:10101000C7F81C31D7F81C31184607F59077BD4644
:10102000B0BD00BFE42A002048941108B0B5CAB092
:1010300002AF0446084611463A461360FB1D22469D
:101040001A70BB1D02461A703B1D0A461A8097F99A
:101050003031002B08DA7F2387F830313D4B1B6895
:10106000D3F800313C4898473A4B1B68D3F82841E5
:1010700097F830319DB23B1D1A88FB1D1978BB1DB6
:10108000187807F10C0301933B461B6800932B462D
:10109000A047C7F81801D7F81831002B04DA6FF011
:1010A0006503C7F81C314DE0D7F818319AB207F143
:1010B0000C01B7F83401D7F83C31009340F2051326
:1010C000FFF7E4F8C7F81401D7F81431072B04DC54
:1010D0006FF06703C7F81C3134E007F10C031B788D
:1010E000BA1D12789A4224D107F10C035B78FA1DDD
:1010F00012789A421DD107F10C039A783B1D1B8888
:101100001B0A9BB2DBB29A4213D107F10C03DA78C7
:101110003B1D1B88DBB29A420BD107F10C031B79F4
:10112000002B06D107F10C035B7997F830219A4226
:1011300004D06FF06703C7F81C3103E0D7F814310F
:10114000C7F81C31D7F81C31184607F59077BD4613
:10115000B0BD00BFE42A002048941108B0B5A4B087
:1011600002AFB9607A603B600346FB810023C7F899
:101170008030684A07F1440307CA03C31A80023368
:10118000120C1A70644A07F1380307CA03C31A80A5
:101190000233120C1A70614A07F12C0307CA03C309
:1011A0001A800233120C1A705D4A07F1200307CA35
:1011B00003C31A800233120C1A70FB89013B042B03
:1011C0001CD801A252F823F0ED111108DD1111080D
:1011D000FD111108E5111108F511110807F144037B
:1011E0003B660BE007F138033B6607E007F12C0391
:1011F0003B6603E007F120033B6600BF494B1B68D9
:10120000D3F8F03007F15002104698470346002B00
:1012100079D1BB6EA7F87E30002387F87D3000239C
:1012200087F88730002387F87C30002387F87B30ED
:10123000322387F87A3000237B67D7F8983087F815
:101240007B303B6887F87C30B86800F06DF8034667
:1012500087F87D307B68082B07D0092B09D0072B36
:101260000BD1002387F8873007E0012387F8873008
:1012700003E0022387F8873000BF4FF000034FF0F0
:101280000004C7E90634B7F864303B823A8B97F81C
:101290007D309BB213439BB23B833A8B97F88730E8
:1012A0009BB21B019BB213439BB23B833A8B97F8D3
:1012B0007C309BB29B019BB213439BB23B833A8B26
:1012C00097F87B309BB21B029BB213439BB23B83CC
:1012D0003A8B97F87A309BB29B029BB213439BB236
:1012E0003B83104B1B68D3F8DC40B7F87E506A464E
:1012F00007F1180393E8030082E8030007F11003E5
:101300000CCB2846A047D7F8803018468837BD4612
:10131000B0BD00BF64941108709411087C9411084A
:1013200088941108E42A002080B485B000AF78606A
:101330007B68B3F5964F3FD0B3F5964F14DCB3F509
:10134000166F2DD0B3F5166F04DC002B25D00C2BB7
:1013500047D049E0B3F5165F28D0B3F5615F28D0D8
:10136000B3F5965F1FD03FE04DF6C02293422CD0DC
:101370004DF6C022934206DCB3F5E14F1FD0B3F522
:10138000164F1FD030E0B3F5963F24D0B3F5E13FC0
:1013900024D0B3F5614F1BD026E00023FB7326E079
:1013A0000123FB7323E00223FB7320E00323FB7381
:1013B0001DE00423FB731AE00523FB7317E00623EB
:1013C000FB7314E00723FB7311E00823FB730EE0AB
:1013D0000923FB730BE00A23FB7308E00B23FB7369
:1013E00005E00C23FB7302E00C23FB7300BFFB7BC7
:1013F00018461437BD465DF8047B704780B483B04F
:1014000000AF0E4B7B600E4B3B6009E07B681A78A7
:101410003B681A707B6801337B603B6801333B603B
:101420003B68084A9342F1D3064A054BD31A184643
:101430000C37BD465DF8047B704700BFA4C011089F
:1014400000000020C42A002080B483B000AF0B4B02
:101450007B6005E07B6800221A707B6801337B604B
:101460007B68074A9342F5D3054A044BD31A1846C2
:101470000C37BD465DF8047B704700BFC82A0020CA
:101480008443002080B483B000AF0346FB71FB7936
:101490003B2B00F2A38001A252F823F08D15110816
:1014A0009115110895151108991511089D15110828
:1014B000A1151108A5151108A9151108AD151108D8
:1014C000B1151108B5151108B9151108BD15110888
:1014D000C1151108C5151108C9151108CD15110838
:1014E000D1151108D5151108D91511088D15110838
:1014F0009115110895151108991511089D151108D8
:10150000A1151108A5151108A9151108AD15110887
:10151000B1151108B5151108B9151108BD15110837
:10152000C1151108C5151108C9151108CD151108E7
:10153000D1151108D5151108D91511088D151108E7
:101540009115110895151108991511089D15110887
:10155000A1151108A5151108A9151108AD15110837
:10156000B1151108B5151108B9151108BD151108E7
:10157000C1151108C5151108C9151108CD15110897
:10158000D1151108D5151108D9151108042326E025
:10159000082324E0012322E0022320E004231EE0AC
:1015A00008231CE001231AE0022318E0042316E0BC
:1015B000082314E0082312E0012310E002230EE0C8
:1015C00004230CE008230AE0012308E07F2306E05F
:1015D000082304E0082302E0082300E00023184663
:1015E0000C37BD465DF8047B704700BF80B584B002
:1015F00000AF78600023FB600EE0FB68DB000A4A66
:101600001344BB60BB681B793C2B02D07B68B86875
:101610009847FB680133FB60FB68B3F55F7FECD351
:1016200000BF1037BD4680BDB8A4110880B487B094
:1016300000AFF860B9607A60FB681B683B6100230B
:101640007B617B6800221A70FB681B793B2B00F2E0
:10165000D48201A252F823F0491711085F1711082C
:10166000751711088B171108A1171108B717110862
:10167000CD171108E3171108F91711080F181108F1
:10168000251811083B18110851181108671811087E
:101690007D18110893181108A9181108C11811080C
:1016A000D7181108ED181108091911082F19110878
:1016B000551911087B191108A1191108C71911082A
:1016C000ED191108131A1108391A11085F1A1108B7
:1016D000851A1108AB1A1108D11A1108F71A110846
:1016E0001D1B1108431B1108691B11088F1B1108D2
:1016F000B51B1108DB1B1108031911082919110862
:101700004F191108751911089B191108C1191108F1
:10171000E71911080D1A1108331A1108591A11087E
:101720007F1A1108A51A1108CB1A1108F11A11080D
:10173000171B11083D1B1108631B1108891B110899
:10174000AF1B1108D51B11083B691A797B681A7009
:101750003A69BB681A60BB681B687B614EE23B69F3
:101760001A7A7B681A703A69BB681A60BB681B6892
:101770007B6143E23B695A787B681A703A69BB68BF
:101780001A60BB681B687B6138E23B699A787B68AA
:101790001A703A69BB681A60BB681B687B612DE2EE
:1017A0003B691A797B681A703A69BB681A60BB6832
:1017B0001B687B6122E23B691A7A7B681A703A697E
:1017C000BB681A60BB681B687B6117E23B695A788B
:1017D0007B681A703A69BB681A60BB681B687B61DA
:1017E0000CE23B699A787B681A703A69BB681A60A8
:1017F000BB681B687B6101E23B691A797B681A70E0
:101800003A69BB681A60BB681B687B61F6E13B699B
:101810001A7A7B681A703A69BB681A60BB681B68E1
:101820007B61EBE13B691A7A7B681A703A69BB68A5
:101830001A60BB681B687B61E0E13B695A787B6892
:101840001A703A69BB681A60BB681B687B61D5E196
:101850003B699A787B681A703A69BB681A60BB6802
:101860001B687B61CAE13B691A797B681A703A6927
:10187000BB681A60BB681B687B61BFE13B691A7A71
:101880007B681A703A69BB681A60BB681B687B6129
:10189000B4E13B695A787B681A703A69BB681A6090
:1018A000BB681B687B61A9E13B6993F87F207B687B
:1018B0001A703A69BB681A60BB681B687B619DE15E
:1018C0003B691A7A7B681A703A69BB681A60BB6810
:1018D0001B687B6192E13B691A7A7B681A703A69EE
:1018E000BB681A60BB681B687B6187E13B691A7A39
:1018F0007B681A703A69BB681A60BB681B687B61B9
:101900007CE17B6808221A707B681A783B691B7936
:101910001343DAB27B681A703B691A68BB681A60B5
:101920003B6908337B6169E17B6808221A707B6838
:101930001A783B691B791343DAB27B681A703B69EA
:101940001A68BB681A603B6908337B6156E17B68A3
:1019500008221A707B681A783B691B791343DAB244
:101960007B681A703B691A68BB681A603B6905336B
:101970007B6143E17B6808221A707B681A783B69B7
:101980001B791343DAB27B681A703B691A68BB682B
:101990001A603B6906337B6130E17B6808221A706C
:1019A0007B681A783B691B791343DAB27B681A703B
:1019B0003B691A68BB681A603B6908337B611DE1AB
:1019C0007B6808221A707B681A783B691B7913437D
:1019D000DAB27B681A703B691A68BB681A603B69A7
:1019E00008337B610AE17B6808221A707B681A78E9
:1019F0003B691B791343DAB27B681A703B691A683A
:101A0000BB681A603B6905337B61F7E07B6808229D
:101A10001A707B681A783B691B791343DAB27B68CA
:101A20001A703B691A68BB681A603B6906337B61B0
:101A3000E4E07B6808221A707B681A783B691B799E
:101A40001343DAB27B681A703B691A68BB681A6084
:101A50003B6908337B61D1E07B6808221A707B68A0
:101A60001A783B691B791343DAB27B681A703B69B9
:101A70001A68BB681A603B6908337B61BEE07B680B
:101A800008221A707B681A783B691B791343DAB213
:101A90007B681A703B691A68BB681A603B69083337
:101AA0007B61ABE07B6808221A707B681A783B691F
:101AB0001B791343DAB27B681A703B691A68BB68FA
:101AC0001A603B6905337B6198E07B6808221A70D5
:101AD0007B681A783B691B791343DAB27B681A700A
:101AE0003B691A68BB681A603B6906337B6185E015
:101AF0007B6808221A707B681A783B691B7913434C
:101B0000DAB27B681A703B691A68BB681A603B6975
:101B100008337B6172E07B6808221A707B681A7850
:101B20003B691B791343DAB27B681A703B691A6808
:101B3000BB681A603B6908337B615FE07B68082201
:101B40001A707B681A783B691B791343DAB27B6899
:101B50001A703B691A68BB681A603B6905337B6180
:101B60004CE07B6808221A707B681A783B691B7905
:101B70001343DAB27B681A703B691A68BB681A6053
:101B80003B6905337B6139E07B6808221A707B680A
:101B90001A783B691B791343DAB27B681A703B6988
:101BA0001A68BB681A603B6908337B6126E07B6872
:101BB00008221A707B681A783B691B791343DAB2E2
:101BC0007B681A703B691A68BB681A603B69083306
:101BD0007B6113E07B6808221A707B681A783B6986
:101BE0001B791343DAB27B681A703B691A68BB68C9
:101BF0001A603B6908337B6100E000BF7B681B789B
